{
  "_format": "hh-sol-artifact-1",
  "contractName": "CipherPolicyHub",
  "sourceName": "contracts/CipherPolicyHub.sol",
  "abi": [
    {
      "inputs": [
        {
          "internalType": "address",
          "name": "_verifier",
          "type": "address"
        },
        {
          "internalType": "address",
          "name": "_adjuster",
          "type": "address"
        }
      ],
      "stateMutability": "nonpayable",
      "type": "constructor"
    },
    {
      "anonymous": false,
      "inputs": [
        {
          "indexed": true,
          "internalType": "uint256",
          "name": "claimId",
          "type": "uint256"
        },
        {
          "indexed": true,
          "internalType": "address",
          "name": "claimant",
          "type": "address"
        }
      ],
      "name": "ClaimDecrypted",
      "type": "event"
    },
    {
      "anonymous": false,
      "inputs": [
        {
          "indexed": true,
          "internalType": "uint256",
          "name": "claimId",
          "type": "uint256"
        },
        {
          "indexed": false,
          "internalType": "bool",
          "name": "isApproved",
          "type": "bool"
        },
        {
          "indexed": false,
          "internalType": "uint32",
          "name": "settlementAmount",
          "type": "uint32"
        }
      ],
      "name": "ClaimProcessed",
      "type": "event"
    },
    {
      "anonymous": false,
      "inputs": [
        {
          "indexed": true,
          "internalType": "uint256",
          "name": "claimId",
          "type": "uint256"
        },
        {
          "indexed": true,
          "internalType": "uint256",
          "name": "policyId",
          "type": "uint256"
        },
        {
          "indexed": true,
          "internalType": "address",
          "name": "claimant",
          "type": "address"
        }
      ],
      "name": "ClaimSubmitted",
      "type": "event"
    },
    {
      "anonymous": false,
      "inputs": [
        {
          "indexed": true,
          "internalType": "uint256",
          "name": "policyId",
          "type": "uint256"
        },
        {
          "indexed": true,
          "internalType": "address",
          "name": "policyholder",
          "type": "address"
        },
        {
          "indexed": false,
          "internalType": "string",
          "name": "policyType",
          "type": "string"
        }
      ],
      "name": "PolicyCreated",
      "type": "event"
    },
    {
      "anonymous": false,
      "inputs": [
        {
          "indexed": true,
          "internalType": "address",
          "name": "user",
          "type": "address"
        },
        {
          "indexed": false,
          "internalType": "uint32",
          "name": "reputation",
          "type": "uint32"
        }
      ],
      "name": "ReputationUpdated",
      "type": "event"
    },
    {
      "anonymous": false,
      "inputs": [
        {
          "indexed": true,
          "internalType": "address",
          "name": "policyholder",
          "type": "address"
        },
        {
          "indexed": false,
          "internalType": "uint32",
          "name": "riskScore",
          "type": "uint32"
        },
        {
          "indexed": false,
          "internalType": "bool",
          "name": "isVerified",
          "type": "bool"
        }
      ],
      "name": "RiskAssessed",
      "type": "event"
    },
    {
      "anonymous": false,
      "inputs": [
        {
          "indexed": true,
          "internalType": "uint256",
          "name": "settlementId",
          "type": "uint256"
        },
        {
          "indexed": true,
          "internalType": "uint256",
          "name": "claimId",
          "type": "uint256"
        },
        {
          "indexed": true,
          "internalType": "address",
          "name": "beneficiary",
          "type": "address"
        }
      ],
      "name": "SettlementCompleted",
      "type": "event"
    },
    {
      "anonymous": false,
      "inputs": [
        {
          "indexed": true,
          "internalType": "uint256",
          "name": "claimId",
          "type": "uint256"
        },
        {
          "indexed": true,
          "internalType": "address",
          "name": "claimant",
          "type": "address"
        },
        {
          "indexed": false,
          "internalType": "string",
          "name": "claimType",
          "type": "string"
        }
      ],
      "name": "SimpleClaimSubmitted",
      "type": "event"
    },
    {
      "inputs": [],
      "name": "adjuster",
      "outputs": [
        {
          "internalType": "address",
          "name": "",
          "type": "address"
        }
      ],
      "stateMutability": "view",
      "type": "function"
    },
    {
      "inputs": [
        {
          "internalType": "address",
          "name": "policyholder",
          "type": "address"
        },
        {
          "internalType": "externalEuint32",
          "name": "riskScore",
          "type": "bytes32"
        },
        {
          "internalType": "string",
          "name": "assessmentHash",
          "type": "string"
        },
        {
          "internalType": "bytes",
          "name": "inputProof",
          "type": "bytes"
        }
      ],
      "name": "assessRisk",
      "outputs": [],
      "stateMutability": "nonpayable",
      "type": "function"
    },
    {
      "inputs": [],
      "name": "claimCounter",
      "outputs": [
        {
          "internalType": "uint256",
          "name": "",
          "type": "uint256"
        }
      ],
      "stateMutability": "view",
      "type": "function"
    },
    {
      "inputs": [
        {
          "internalType": "uint256",
          "name": "",
          "type": "uint256"
        }
      ],
      "name": "claims",
      "outputs": [
        {
          "internalType": "euint32",
          "name": "claimId",
          "type": "bytes32"
        },
        {
          "internalType": "euint32",
          "name": "claimAmount",
          "type": "bytes32"
        },
        {
          "internalType": "euint32",
          "name": "policyId",
          "type": "bytes32"
        },
        {
          "internalType": "bool",
          "name": "isApproved",
          "type": "bool"
        },
        {
          "internalType": "bool",
          "name": "isProcessed",
          "type": "bool"
        },
        {
          "internalType": "string",
          "name": "claimType",
          "type": "string"
        },
        {
          "internalType": "string",
          "name": "description",
          "type": "string"
        },
        {
          "internalType": "string",
          "name": "evidenceHash",
          "type": "string"
        },
        {
          "internalType": "address",
          "name": "claimant",
          "type": "address"
        },
        {
          "internalType": "address",
          "name": "adjuster",
          "type": "address"
        },
        {
          "internalType": "uint256",
          "name": "submissionDate",
          "type": "uint256"
        },
        {
          "internalType": "uint256",
          "name": "processingDate",
          "type": "uint256"
        }
      ],
      "stateMutability": "view",
      "type": "function"
    },
    {
      "inputs": [
        {
          "internalType": "uint256",
          "name": "settlementId",
          "type": "uint256"
        },
        {
          "internalType": "string",
          "name": "settlementHash",
          "type": "string"
        }
      ],
      "name": "completeSettlement",
      "outputs": [],
      "stateMutability": "nonpayable",
      "type": "function"
    },
    {
      "inputs": [
        {
          "internalType": "string",
          "name": "_policyType",
          "type": "string"
        },
        {
          "internalType": "string",
          "name": "_description",
          "type": "string"
        },
        {
          "internalType": "externalEuint32",
          "name": "_premiumAmount",
          "type": "bytes32"
        },
        {
          "internalType": "externalEuint32",
          "name": "_coverageAmount",
          "type": "bytes32"
        },
        {
          "internalType": "uint256",
          "name": "_duration",
          "type": "uint256"
        },
        {
          "internalType": "bytes",
          "name": "inputProof",
          "type": "bytes"
        }
      ],
      "name": "createPolicy",
      "outputs": [
        {
          "internalType": "uint256",
          "name": "",
          "type": "uint256"
        }
      ],
      "stateMutability": "nonpayable",
      "type": "function"
    },
    {
      "inputs": [
        {
          "internalType": "uint256",
          "name": "claimId",
          "type": "uint256"
        }
      ],
      "name": "getClaimEncryptedAmount",
      "outputs": [
        {
          "internalType": "euint32",
          "name": "",
          "type": "bytes32"
        }
      ],
      "stateMutability": "view",
      "type": "function"
    },
    {
      "inputs": [
        {
          "internalType": "uint256",
          "name": "claimId",
          "type": "uint256"
        }
      ],
      "name": "getClaimInfo",
      "outputs": [
        {
          "internalType": "euint32",
          "name": "claimAmount",
          "type": "bytes32"
        },
        {
          "internalType": "euint32",
          "name": "policyId",
          "type": "bytes32"
        },
        {
          "internalType": "bool",
          "name": "isApproved",
          "type": "bool"
        },
        {
          "internalType": "bool",
          "name": "isProcessed",
          "type": "bool"
        },
        {
          "internalType": "string",
          "name": "claimType",
          "type": "string"
        },
        {
          "internalType": "string",
          "name": "description",
          "type": "string"
        },
        {
          "internalType": "string",
          "name": "evidenceHash",
          "type": "string"
        },
        {
          "internalType": "address",
          "name": "claimant",
          "type": "address"
        },
        {
          "internalType": "address",
          "name": "claimAdjuster",
          "type": "address"
        },
        {
          "internalType": "uint256",
          "name": "submissionDate",
          "type": "uint256"
        },
        {
          "internalType": "uint256",
          "name": "processingDate",
          "type": "uint256"
        }
      ],
      "stateMutability": "view",
      "type": "function"
    },
    {
      "inputs": [
        {
          "internalType": "address",
          "name": "insurer",
          "type": "address"
        }
      ],
      "name": "getInsurerReputation",
      "outputs": [
        {
          "internalType": "euint32",
          "name": "",
          "type": "bytes32"
        }
      ],
      "stateMutability": "view",
      "type": "function"
    },
    {
      "inputs": [
        {
          "internalType": "uint256",
          "name": "policyId",
          "type": "uint256"
        }
      ],
      "name": "getPolicyInfo",
      "outputs": [
        {
          "internalType": "string",
          "name": "policyType",
          "type": "string"
        },
        {
          "internalType": "string",
          "name": "description",
          "type": "string"
        },
        {
          "internalType": "euint32",
          "name": "premiumAmount",
          "type": "bytes32"
        },
        {
          "internalType": "euint32",
          "name": "coverageAmount",
          "type": "bytes32"
        },
        {
          "internalType": "euint32",
          "name": "claimCount",
          "type": "bytes32"
        },
        {
          "internalType": "bool",
          "name": "isActive",
          "type": "bool"
        },
        {
          "internalType": "bool",
          "name": "isVerified",
          "type": "bool"
        },
        {
          "internalType": "address",
          "name": "policyholder",
          "type": "address"
        },
        {
          "internalType": "address",
          "name": "insurer",
          "type": "address"
        },
        {
          "internalType": "uint256",
          "name": "startDate",
          "type": "uint256"
        },
        {
          "internalType": "uint256",
          "name": "endDate",
          "type": "uint256"
        }
      ],
      "stateMutability": "view",
      "type": "function"
    },
    {
      "inputs": [
        {
          "internalType": "address",
          "name": "policyholder",
          "type": "address"
        }
      ],
      "name": "getPolicyholderReputation",
      "outputs": [
        {
          "internalType": "euint32",
          "name": "",
          "type": "bytes32"
        }
      ],
      "stateMutability": "view",
      "type": "function"
    },
    {
      "inputs": [
        {
          "internalType": "address",
          "name": "policyholder",
          "type": "address"
        }
      ],
      "name": "getRiskAssessment",
      "outputs": [
        {
          "internalType": "euint32",
          "name": "riskScore",
          "type": "bytes32"
        },
        {
          "internalType": "euint32",
          "name": "riskLevel",
          "type": "bytes32"
        },
        {
          "internalType": "bool",
          "name": "isVerified",
          "type": "bool"
        },
        {
          "internalType": "string",
          "name": "assessmentHash",
          "type": "string"
        },
        {
          "internalType": "address",
          "name": "assessor",
          "type": "address"
        },
        {
          "internalType": "uint256",
          "name": "assessmentDate",
          "type": "uint256"
        }
      ],
      "stateMutability": "view",
      "type": "function"
    },
    {
      "inputs": [
        {
          "internalType": "uint256",
          "name": "settlementId",
          "type": "uint256"
        }
      ],
      "name": "getSettlementInfo",
      "outputs": [
        {
          "internalType": "euint32",
          "name": "claimId",
          "type": "bytes32"
        },
        {
          "internalType": "euint32",
          "name": "settlementAmount",
          "type": "bytes32"
        },
        {
          "internalType": "bool",
          "name": "isCompleted",
          "type": "bool"
        },
        {
          "internalType": "string",
          "name": "settlementHash",
          "type": "string"
        },
        {
          "internalType": "address",
          "name": "beneficiary",
          "type": "address"
        },
        {
          "internalType": "uint256",
          "name": "settlementDate",
          "type": "uint256"
        }
      ],
      "stateMutability": "view",
      "type": "function"
    },
    {
      "inputs": [
        {
          "internalType": "uint256",
          "name": "claimId",
          "type": "uint256"
        }
      ],
      "name": "getSimpleClaimInfo",
      "outputs": [
        {
          "internalType": "uint256",
          "name": "",
          "type": "uint256"
        },
        {
          "internalType": "string",
          "name": "",
          "type": "string"
        },
        {
          "internalType": "string",
          "name": "",
          "type": "string"
        },
        {
          "internalType": "address",
          "name": "",
          "type": "address"
        },
        {
          "internalType": "uint256",
          "name": "",
          "type": "uint256"
        },
        {
          "internalType": "bool",
          "name": "",
          "type": "bool"
        }
      ],
      "stateMutability": "view",
      "type": "function"
    },
    {
      "inputs": [],
      "name": "getTotalSimpleClaims",
      "outputs": [
        {
          "internalType": "uint256",
          "name": "",
          "type": "uint256"
        }
      ],
      "stateMutability": "view",
      "type": "function"
    },
    {
      "inputs": [
        {
          "internalType": "address",
          "name": "user",
          "type": "address"
        }
      ],
      "name": "getUserClaims",
      "outputs": [
        {
          "internalType": "uint256[]",
          "name": "",
          "type": "uint256[]"
        }
      ],
      "stateMutability": "view",
      "type": "function"
    },
    {
      "inputs": [
        {
          "internalType": "address",
          "name": "",
          "type": "address"
        }
      ],
      "name": "insurerReputation",
      "outputs": [
        {
          "internalType": "euint32",
          "name": "",
          "type": "bytes32"
        }
      ],
      "stateMutability": "view",
      "type": "function"
    },
    {
      "inputs": [
        {
          "internalType": "uint256",
          "name": "claimId",
          "type": "uint256"
        }
      ],
      "name": "markClaimAsDecrypted",
      "outputs": [],
      "stateMutability": "nonpayable",
      "type": "function"
    },
    {
      "inputs": [],
      "name": "owner",
      "outputs": [
        {
          "internalType": "address",
          "name": "",
          "type": "address"
        }
      ],
      "stateMutability": "view",
      "type": "function"
    },
    {
      "inputs": [
        {
          "internalType": "uint256",
          "name": "policyId",
          "type": "uint256"
        }
      ],
      "name": "payPremium",
      "outputs": [],
      "stateMutability": "payable",
      "type": "function"
    },
    {
      "inputs": [
        {
          "internalType": "uint256",
          "name": "",
          "type": "uint256"
        }
      ],
      "name": "policies",
      "outputs": [
        {
          "internalType": "euint32",
          "name": "policyId",
          "type": "bytes32"
        },
        {
          "internalType": "euint32",
          "name": "premiumAmount",
          "type": "bytes32"
        },
        {
          "internalType": "euint32",
          "name": "coverageAmount",
          "type": "bytes32"
        },
        {
          "internalType": "euint32",
          "name": "claimLimit",
          "type": "bytes32"
        },
        {
          "internalType": "euint32",
          "name": "claimCount",
          "type": "bytes32"
        },
        {
          "internalType": "bool",
          "name": "isActive",
          "type": "bool"
        },
        {
          "internalType": "bool",
          "name": "isVerified",
          "type": "bool"
        },
        {
          "internalType": "string",
          "name": "policyType",
          "type": "string"
        },
        {
          "internalType": "string",
          "name": "description",
          "type": "string"
        },
        {
          "internalType": "address",
          "name": "policyholder",
          "type": "address"
        },
        {
          "internalType": "address",
          "name": "insurer",
          "type": "address"
        },
        {
          "internalType": "uint256",
          "name": "startDate",
          "type": "uint256"
        },
        {
          "internalType": "uint256",
          "name": "endDate",
          "type": "uint256"
        }
      ],
      "stateMutability": "view",
      "type": "function"
    },
    {
      "inputs": [],
      "name": "policyCounter",
      "outputs": [
        {
          "internalType": "uint256",
          "name": "",
          "type": "uint256"
        }
      ],
      "stateMutability": "view",
      "type": "function"
    },
    {
      "inputs": [
        {
          "internalType": "address",
          "name": "",
          "type": "address"
        }
      ],
      "name": "policyholderReputation",
      "outputs": [
        {
          "internalType": "euint32",
          "name": "",
          "type": "bytes32"
        }
      ],
      "stateMutability": "view",
      "type": "function"
    },
    {
      "inputs": [
        {
          "internalType": "uint256",
          "name": "claimId",
          "type": "uint256"
        },
        {
          "internalType": "bool",
          "name": "isApproved",
          "type": "bool"
        },
        {
          "internalType": "externalEuint32",
          "name": "settlementAmount",
          "type": "bytes32"
        },
        {
          "internalType": "bytes",
          "name": "inputProof",
          "type": "bytes"
        }
      ],
      "name": "processClaim",
      "outputs": [
        {
          "internalType": "uint256",
          "name": "",
          "type": "uint256"
        }
      ],
      "stateMutability": "nonpayable",
      "type": "function"
    },
    {
      "inputs": [],
      "name": "protocolId",
      "outputs": [
        {
          "internalType": "uint256",
          "name": "",
          "type": "uint256"
        }
      ],
      "stateMutability": "pure",
      "type": "function"
    },
    {
      "inputs": [
        {
          "internalType": "address",
          "name": "",
          "type": "address"
        }
      ],
      "name": "riskAssessments",
      "outputs": [
        {
          "internalType": "euint32",
          "name": "riskScore",
          "type": "bytes32"
        },
        {
          "internalType": "euint32",
          "name": "riskLevel",
          "type": "bytes32"
        },
        {
          "internalType": "bool",
          "name": "isVerified",
          "type": "bool"
        },
        {
          "internalType": "string",
          "name": "assessmentHash",
          "type": "string"
        },
        {
          "internalType": "address",
          "name": "assessor",
          "type": "address"
        },
        {
          "internalType": "uint256",
          "name": "assessmentDate",
          "type": "uint256"
        }
      ],
      "stateMutability": "view",
      "type": "function"
    },
    {
      "inputs": [],
      "name": "settlementCounter",
      "outputs": [
        {
          "internalType": "uint256",
          "name": "",
          "type": "uint256"
        }
      ],
      "stateMutability": "view",
      "type": "function"
    },
    {
      "inputs": [
        {
          "internalType": "uint256",
          "name": "",
          "type": "uint256"
        }
      ],
      "name": "settlements",
      "outputs": [
        {
          "internalType": "euint32",
          "name": "settlementId",
          "type": "bytes32"
        },
        {
          "internalType": "euint32",
          "name": "claimId",
          "type": "bytes32"
        },
        {
          "internalType": "euint32",
          "name": "settlementAmount",
          "type": "bytes32"
        },
        {
          "internalType": "bool",
          "name": "isCompleted",
          "type": "bool"
        },
        {
          "internalType": "string",
          "name": "settlementHash",
          "type": "string"
        },
        {
          "internalType": "address",
          "name": "beneficiary",
          "type": "address"
        },
        {
          "internalType": "uint256",
          "name": "settlementDate",
          "type": "uint256"
        }
      ],
      "stateMutability": "view",
      "type": "function"
    },
    {
      "inputs": [],
      "name": "simpleClaimCounter",
      "outputs": [
        {
          "internalType": "uint256",
          "name": "",
          "type": "uint256"
        }
      ],
      "stateMutability": "view",
      "type": "function"
    },
    {
      "inputs": [
        {
          "internalType": "uint256",
          "name": "",
          "type": "uint256"
        }
      ],
      "name": "simpleClaims",
      "outputs": [
        {
          "internalType": "uint256",
          "name": "claimId",
          "type": "uint256"
        },
        {
          "internalType": "euint32",
          "name": "encryptedAmount",
          "type": "bytes32"
        },
        {
          "internalType": "string",
          "name": "claimType",
          "type": "string"
        },
        {
          "internalType": "string",
          "name": "description",
          "type": "string"
        },
        {
          "internalType": "address",
          "name": "claimant",
          "type": "address"
        },
        {
          "internalType": "uint256",
          "name": "submissionDate",
          "type": "uint256"
        },
        {
          "internalType": "bool",
          "name": "isActive",
          "type": "bool"
        }
      ],
      "stateMutability": "view",
      "type": "function"
    },
    {
      "inputs": [
        {
          "internalType": "uint256",
          "name": "policyId",
          "type": "uint256"
        },
        {
          "internalType": "externalEuint32",
          "name": "claimAmount",
          "type": "bytes32"
        },
        {
          "internalType": "string",
          "name": "claimType",
          "type": "string"
        },
        {
          "internalType": "string",
          "name": "description",
          "type": "string"
        },
        {
          "internalType": "string",
          "name": "evidenceHash",
          "type": "string"
        },
        {
          "internalType": "bytes",
          "name": "inputProof",
          "type": "bytes"
        }
      ],
      "name": "submitClaim",
      "outputs": [
        {
          "internalType": "uint256",
          "name": "",
          "type": "uint256"
        }
      ],
      "stateMutability": "nonpayable",
      "type": "function"
    },
    {
      "inputs": [
        {
          "internalType": "string",
          "name": "claimType",
          "type": "string"
        },
        {
          "internalType": "string",
          "name": "description",
          "type": "string"
        },
        {
          "internalType": "externalEuint32",
          "name": "encryptedAmount",
          "type": "bytes32"
        },
        {
          "internalType": "bytes",
          "name": "inputProof",
          "type": "bytes"
        }
      ],
      "name": "submitSimpleClaim",
      "outputs": [
        {
          "internalType": "uint256",
          "name": "",
          "type": "uint256"
        }
      ],
      "stateMutability": "nonpayable",
      "type": "function"
    },
    {
      "inputs": [
        {
          "internalType": "address",
          "name": "user",
          "type": "address"
        },
        {
          "internalType": "externalEuint32",
          "name": "reputation",
          "type": "bytes32"
        },
        {
          "internalType": "bytes",
          "name": "inputProof",
          "type": "bytes"
        }
      ],
      "name": "updateReputation",
      "outputs": [],
      "stateMutability": "nonpayable",
      "type": "function"
    },
    {
      "inputs": [
        {
          "internalType": "address",
          "name": "",
          "type": "address"
        },
        {
          "internalType": "uint256",
          "name": "",
          "type": "uint256"
        }
      ],
      "name": "userClaims",
      "outputs": [
        {
          "internalType": "uint256",
          "name": "",
          "type": "uint256"
        }
      ],
      "stateMutability": "view",
      "type": "function"
    },
    {
      "inputs": [],
      "name": "verifier",
      "outputs": [
        {
          "internalType": "address",
          "name": "",
          "type": "address"
        }
      ],
      "stateMutability": "view",
      "type": "function"
    },
    {
      "inputs": [
        {
          "internalType": "uint256",
          "name": "policyId",
          "type": "uint256"
        },
        {
          "internalType": "bool",
          "name": "isVerified",
          "type": "bool"
        }
      ],
      "name": "verifyPolicy",
      "outputs": [],
      "stateMutability": "nonpayable",
      "type": "function"
    },
    {
      "inputs": [
        {
          "internalType": "uint256",
          "name": "settlementId",
          "type": "uint256"
        }
      ],
      "name": "withdrawSettlement",
      "outputs": [],
      "stateMutability": "nonpayable",
      "type": "function"
    }
  ],
  "bytecode": "0x60806040523480156200001157600080fd5b5060405162003f0c38038062003f0c83398101604081905262000034916200020b565b620001b1620000d560408051608081018252600080825260208201819052918101829052606081019190915250604080516080810182527350157cffd6bbfa2dece204a89ec419c23ef5755d815273cd3ab3bd6bcc0c0bf3e27912a92043e817b1cf69602082015273a02cda4ca3a71d7c46997716f4283aa851c2881291810191909152731364cbbf2cdf5032c47d8226a6f6fbd2afcdacac606082015290565b80517f9e7b61f58c47dc699ac88507c4f5bb9f121c03808c5676a8078fe583e464970080546001600160a01b03199081166001600160a01b039384161790915560208301517f9e7b61f58c47dc699ac88507c4f5bb9f121c03808c5676a8078fe583e46497018054831691841691909117905560408301517f9e7b61f58c47dc699ac88507c4f5bb9f121c03808c5676a8078fe583e46497028054831691841691909117905560608301517f9e7b61f58c47dc699ac88507c4f5bb9f121c03808c5676a8078fe583e46497038054909216921691909117905550565b600c80546001600160a01b03199081163317909155600d80546001600160a01b03948516908316179055600e805492909316911617905562000243565b80516001600160a01b03811681146200020657600080fd5b919050565b600080604083850312156200021f57600080fd5b6200022a83620001ee565b91506200023a60208401620001ee565b90509250929050565b613cb980620002536000396000f3fe60806040526004361061021a5760003560e01c806371892da811610123578063a888c2cd116100ab578063d3e894831161006f578063d3e89483146106ea578063d52c1bea14610723578063da1f12ab14610739578063da5687af1461074e578063db17bb411461078157600080fd5b8063a888c2cd1461061b578063ab6ad7fe14610653578063be98952314610673578063ca9748ea14610693578063d2070193146106b357600080fd5b80638b0cde62116100f25780638b0cde62146105555780638da5cb5b1461056a5780639588d85b1461058a5780639765f633146105c1578063a0104548146105ee57600080fd5b806371892da8146104aa5780637bcb4a64146104dc57806380e4f9c21461050957806384b971a51461053f57600080fd5b8063258cdc6d116101a65780633716afd2116101755780633716afd2146104215780634364b26e146104415780634efa8f17146104545780635278a5ea1461046a5780635eb476491461048a57600080fd5b8063258cdc6d1461038157806328335e74146103975780632b7ac3f3146103c95780632bb5edd31461040157600080fd5b80630f5d1b47116101ed5780630f5d1b47146102cb578063142834dd146102eb57806316d8950d1461030b57806319c976f71461032b57806323d336261461036157600080fd5b806306b301271461021f57806306fda44f1461024157806308df7dc8146102615780630a59d8721461029d575b600080fd5b34801561022b57600080fd5b5061023f61023a366004613124565b6107a1565b005b34801561024d57600080fd5b5061023f61025c366004613152565b6108a3565b34801561026d57600080fd5b5061028161027c366004613124565b610990565b60405161029497969594939291906131c4565b60405180910390f35b3480156102a957600080fd5b506102bd6102b83660046132fc565b610a65565b604051908152602001610294565b3480156102d757600080fd5b5061023f6102e63660046133bf565b610e0f565b3480156102f757600080fd5b5061023f610306366004613124565b611098565b34801561031757600080fd5b506102bd610326366004613124565b611180565b34801561033757600080fd5b506102bd610346366004613444565b6001600160a01b031660009081526005602052604090205490565b34801561036d57600080fd5b5061023f61037c36600461345f565b61126d565b34801561038d57600080fd5b506102bd600b5481565b3480156103a357600080fd5b506103b76103b2366004613124565b61141d565b604051610294969594939291906134a6565b3480156103d557600080fd5b50600d546103e9906001600160a01b031681565b6040516001600160a01b039091168152602001610294565b34801561040d57600080fd5b506102bd61041c3660046134fb565b611598565b34801561042d57600080fd5b506102bd61043c3660046135a2565b611953565b61023f61044f366004613124565b611b1b565b34801561046057600080fd5b506102bd60095481565b34801561047657600080fd5b506102bd61048536600461361d565b611c3a565b34801561049657600080fd5b5061023f6104a5366004613674565b611feb565b3480156104b657600080fd5b506104ca6104c5366004613124565b6121fe565b604051610294969594939291906136ce565b3480156104e857600080fd5b506104fc6104f7366004613444565b6122f1565b6040516102949190613713565b34801561051557600080fd5b506102bd610524366004613444565b6001600160a01b031660009081526004602052604090205490565b34801561054b57600080fd5b506102bd600a5481565b34801561056157600080fd5b50600b546102bd565b34801561057657600080fd5b50600c546103e9906001600160a01b031681565b34801561059657600080fd5b506105aa6105a5366004613124565b61235d565b6040516102949b9a99989796959493929190613757565b3480156105cd57600080fd5b506102bd6105dc366004613444565b60056020526000908152604090205481565b3480156105fa57600080fd5b506102bd610609366004613444565b60046020526000908152604090205481565b34801561062757600080fd5b5061063b610636366004613124565b612516565b6040516102949c9b9a999897969594939291906137d3565b34801561065f57600080fd5b506104ca61066e366004613444565b612720565b34801561067f57600080fd5b50600e546103e9906001600160a01b031681565b34801561069f57600080fd5b506102bd6106ae36600461386f565b612780565b3480156106bf57600080fd5b506106d36106ce366004613124565b6127b1565b6040516102949b9a99989796959493929190613899565b3480156106f657600080fd5b5061070a610705366004613124565b6129f3565b6040516102949d9c9b9a99989796959493929190613928565b34801561072f57600080fd5b506102bd60085481565b34801561074557600080fd5b506127116102bd565b34801561075a57600080fd5b5061076e610769366004613124565b612b7e565b60405161029497969594939291906139c5565b34801561078d57600080fd5b506104ca61079c366004613444565b612cd8565b6000818152600660205260409020600401546001600160a01b0316331461081b5760405162461bcd60e51b815260206004820152602360248201527f4f6e6c7920636c61696d616e742063616e206d61726b206173206465637279706044820152621d195960ea1b60648201526084015b60405180910390fd5b6000818152600660208190526040909120015460ff166108735760405162461bcd60e51b8152602060048201526013602482015272436c61696d206973206e6f742061637469766560681b6044820152606401610812565b604051339082907faa7324ada1ab84655c9ef0ae2f2a0f13f240ca11235d1f1d161dd08e83f4a37390600090a350565b600d546001600160a01b031633146109075760405162461bcd60e51b815260206004820152602160248201527f4f6e6c792076657269666965722063616e2076657269667920706f6c696369656044820152607360f81b6064820152608401610812565b6000828152602081905260409020600801546001600160a01b03166109665760405162461bcd60e51b8152602060048201526015602482015274141bdb1a58de48191bd95cc81b9bdd08195e1a5cdd605a1b6044820152606401610812565b60009182526020829052604090912060050180549115156101000261ff0019909216919091179055565b600260208190526000918252604090912080546001820154928201546003830154600484018054939594929360ff90921692916109cc90613a21565b80601f01602080910402602001604051908101604052809291908181526020018280546109f890613a21565b8015610a455780601f10610a1a57610100808354040283529160200191610a45565b820191906000526020600020905b815481529060010190602001808311610a2857829003601f168201915b50505050600583015460069093015491926001600160a01b031691905087565b600080885111610ab75760405162461bcd60e51b815260206004820152601b60248201527f506f6c69637920747970652063616e6e6f7420626520656d70747900000000006044820152606401610812565b60008411610b075760405162461bcd60e51b815260206004820152601960248201527f4475726174696f6e206d75737420626520706f736974697665000000000000006044820152606401610812565b6008805460009182610b1883613a71565b9190505590506000610b608886868080601f016020809104026020016040519081016040528093929190818152602001838380828437600092019190915250612da692505050565b90506000610ba48887878080601f016020809104026020016040519081016040528093929190818152602001838380828437600092019190915250612da692505050565b9050604051806101a00160405280610bbb85612dbd565b8152602001838152602001828152602001610bd6600a612dbd565b8152602001610be56000612dbd565b81526001602082015260006040820152606081018d9052608081018c90523360a08201523060c08201524260e0820181905261010090910190610c29908a90613a8a565b90526000848152602081815260409182902083518155908301516001820155908201516002820155606082015160038201556080820151600482015560a082015160058201805460c085015115156101000261ff00199315159390931661ffff199091161791909117905560e08201516006820190610ca89082613aee565b506101008201516007820190610cbe9082613aee565b506101208201516008820180546001600160a01b039283166001600160a01b031991821617909155610140840151600984018054919093169116179055610160820151600a82015561018090910151600b90910155600083815260208190526040902060010154610d2e90612dd0565b50600083815260208190526040902060020154610d4a90612dd0565b50600083815260208190526040902060040154610d6690612dd0565b50600083815260208190526040902060010154610d839033612de0565b50600083815260208190526040902060020154610da09033612de0565b50600083815260208190526040902060040154610dbd9033612de0565b50336001600160a01b0316837f21d0178f0cde2aed24022db30651dabafb4bbe431fb787fbc92113304d8e35498d604051610df89190613bae565b60405180910390a350909998505050505050505050565b600d546001600160a01b03163314610e695760405162461bcd60e51b815260206004820152601d60248201527f4f6e6c792076657269666965722063616e20617373657373207269736b0000006044820152606401610812565b6001600160a01b038516610ebf5760405162461bcd60e51b815260206004820152601c60248201527f496e76616c696420706f6c696379686f6c6465722061646472657373000000006044820152606401610812565b6000610f018584848080601f016020809104026020016040519081016040528093929190818152602001838380828437600092019190915250612da692505050565b90506000610f0f6002612dbd565b6040805160c08101825284815260208082018481526001838501818152606085018c81523360808701524260a08701526001600160a01b038f16600090815260039586905296909620855181559251918301919091555160028201805460ff19169115159190911790559251939450909290820190610f8e9082613aee565b5060808201516004820180546001600160a01b0319166001600160a01b0392831617905560a0909201516005909101558716600090815260036020526040902054610fd890612dd0565b506001600160a01b038716600090815260036020526040902060010154610ffe90612dd0565b506001600160a01b0387166000908152600360205260409020546110229088612de0565b506001600160a01b0387166000908152600360205260409020600101546110499088612de0565b506040805160008152600160208201526001600160a01b038916917f1ef7fd80e21f3c38933a6346a8c915f88db9aea8126a6b01825f1bdae1f785d9910160405180910390a250505050505050565b6000818152600260205260409020600501546001600160a01b031633146111015760405162461bcd60e51b815260206004820152601d60248201527f4f6e6c792062656e65666963696172792063616e2077697468647261770000006044820152606401610812565b60008181526002602052604090206003015460ff166111625760405162461bcd60e51b815260206004820152601c60248201527f536574746c656d656e74206d75737420626520636f6d706c65746564000000006044820152606401610812565b6000908152600260205260409020600301805460ff19166001179055565b6000818152600660205260408120600401546001600160a01b03166111de5760405162461bcd60e51b815260206004820152601460248201527310db185a5b48191bd95cc81b9bdd08195e1a5cdd60621b6044820152606401610812565b6000828152600660205260409020600401546001600160a01b031633146112575760405162461bcd60e51b815260206004820152602760248201527f4f6e6c7920636c61696d616e742063616e2061636365737320656e63727970746044820152666564206461746160c81b6064820152608401610812565b5060009081526006602052604090206001015490565b600e546001600160a01b031633146112d65760405162461bcd60e51b815260206004820152602660248201527f4f6e6c792061646a75737465722063616e20636f6d706c65746520736574746c604482015265656d656e747360d01b6064820152608401610812565b6000828152600260205260409020600501546001600160a01b031661133d5760405162461bcd60e51b815260206004820152601960248201527f536574746c656d656e7420646f6573206e6f74206578697374000000000000006044820152606401610812565b60008281526002602052604090206003015460ff161561139f5760405162461bcd60e51b815260206004820152601c60248201527f536574746c656d656e7420616c726561647920636f6d706c65746564000000006044820152606401610812565b600082815260026020526040902060038101805460ff191660011790556004016113c98282613aee565b506000828152600260205260408082204260068201556005015490516001600160a01b03909116919084907fefea8d85753e9071e1b815c2c617dd6757dca98eb83158c16af00672ee0b9932908390a45050565b6000818152600660208190526040822080546004820154600583015493830154600284018054606096879689968796879692959194919360038701936001600160a01b0390921692909160ff1690859061147690613a21565b80601f01602080910402602001604051908101604052809291908181526020018280546114a290613a21565b80156114ef5780601f106114c4576101008083540402835291602001916114ef565b820191906000526020600020905b8154815290600101906020018083116114d257829003601f168201915b5050505050945083805461150290613a21565b80601f016020809104026020016040519081016040528092919081815260200182805461152e90613a21565b801561157b5780601f106115505761010080835404028352916020019161157b565b820191906000526020600020905b81548152906001019060200180831161155e57829003601f168201915b505050505093509650965096509650965096505091939550919395565b6000878152602081905260408120600801546001600160a01b0316331461160d5760405162461bcd60e51b815260206004820152602360248201527f4f6e6c7920706f6c696379686f6c6465722063616e207375626d697420636c61604482015262696d7360e81b6064820152608401610812565b60008881526020819052604090206005015460ff166116665760405162461bcd60e51b8152602060048201526015602482015274506f6c696379206d7573742062652061637469766560581b6044820152606401610812565b6000888152602081905260409020600b01544211156116bc5760405162461bcd60e51b8152602060048201526012602482015271141bdb1a58de481a185cc8195e1c1a5c995960721b6044820152606401610812565b60098054600091826116cd83613a71565b91905055905060006117158986868080601f016020809104026020016040519081016040528093929190818152602001838380828437600092019190915250612da692505050565b905060405180610180016040528061172c84612dbd565b81526020018281526020016117408c612dbd565b815260006020808301829052604080840183905260608085018e905260808086018e905260a08087018e90523360c088015260e0870186905242610100808901919091526101209097018690528986526001808652958490208851815594880151958501959095559186015160028401558501516003830180549287015161ffff1990931691151561ff001916919091179115159094021790925582015160048201906117ed9082613aee565b5060c082015160058201906118029082613aee565b5060e082015160068201906118179082613aee565b506101008201516007820180546001600160a01b039283166001600160a01b031991821617909155610120840151600884018054919093169116179055610140820151600982015561016090910151600a909101556000828152600160208190526040909120015461188890612dd0565b506000828152600160205260409020600201546118a490612dd0565b50600082815260016020819052604090912001546118c29033612de0565b506000828152600160205260409020600201546118df9033612de0565b5060008a815260208190526040902060040154611905906119006001612dbd565b612df3565b60008b81526020819052604080822060040192909255905133918c9185917f9fe11e531030a058803617055e27f9f4768236e4322e13b9c4c09f4338e23a6891a45098975050505050505050565b600b80546000918291908261196783613a71565b91905055905060006119af8686868080601f016020809104026020016040519081016040528093929190818152602001838380828437600092019190915250612da692505050565b6040805160e08101825284815260208082018481528284018d8152606084018d90523360808501524260a0850152600160c0850181905260008981526006909452949092208351815590519381019390935551929350916002820190611a159082613aee565b5060608201516003820190611a2a9082613aee565b5060808201516004820180546001600160a01b0319166001600160a01b0390921691909117905560a0820151600582015560c0909101516006918201805460ff1916911515919091179055336000908152600760209081526040808320805460018181018355918552838520018790558684529390915290200154611aae90612dd0565b50600082815260066020526040902060010154611acb9033612de0565b50336001600160a01b0316827ff47cb144d57e1368191d1eb3128105958679a0866070b8ff2aa2c464ed8ed3818a604051611b069190613bae565b60405180910390a35090505b95945050505050565b6000818152602081905260409020600801546001600160a01b03163314611b8e5760405162461bcd60e51b815260206004820152602160248201527f4f6e6c7920706f6c696379686f6c6465722063616e20706179207072656d69756044820152606d60f81b6064820152608401610812565b60008181526020819052604090206005015460ff16611be75760405162461bcd60e51b8152602060048201526015602482015274506f6c696379206d7573742062652061637469766560581b6044820152606401610812565b60003411611c375760405162461bcd60e51b815260206004820152601f60248201527f5072656d69756d20616d6f756e74206d75737420626520706f736974697665006044820152606401610812565b50565b600e546000906001600160a01b03163314611c975760405162461bcd60e51b815260206004820181905260248201527f4f6e6c792061646a75737465722063616e2070726f6365737320636c61696d736044820152606401610812565b6000868152600160205260409020600701546001600160a01b0316611cf55760405162461bcd60e51b815260206004820152601460248201527310db185a5b48191bd95cc81b9bdd08195e1a5cdd60621b6044820152606401610812565b600086815260016020526040902060030154610100900460ff1615611d5c5760405162461bcd60e51b815260206004820152601760248201527f436c61696d20616c72656164792070726f6365737365640000000000000000006044820152606401610812565b600086815260016020526040812060038101805461ff0019891580159190911661ffff1990921691909117610100179091556008820180546001600160a01b0319163317905542600a90920191909155611fa457600a8054906000611dc083613a71565b9190505590506000611e088686868080601f016020809104026020016040519081016040528093929190818152602001838380828437600092019190915250612da692505050565b90506040518060e00160405280611e1e84612dbd565b8152602001611e2c8a612dbd565b8152602080820184905260006040808401829052805180840182528281526060808601919091528d83526001808552828420600701546001600160a01b031660808088019190915260a0909601849052888452600280865293839020875181559487015190850155908501519183019190915583015160038201805460ff1916911515919091179055908201516004820190611ec89082613aee565b5060a08201516005820180546001600160a01b0319166001600160a01b0390921691909117905560c09091015160069091015560008281526002602081905260409091200154611f1790612dd0565b50600082815260026020526040902060010154611f3390612dd0565b506000828152600260208181526040808420909201548b84526001909152912060070154611f6a91906001600160a01b0316612de0565b5060008281526002602090815260408083206001908101548c8552925290912060070154611fa191906001600160a01b0316612de0565b50505b6040805187151581526000602082015288917f2b9c0ffbed8895983b11e6bb3b18dc85a60900f9af24a06fa36a9a6eca895815910160405180910390a29695505050505050565b600d546001600160a01b031633146120515760405162461bcd60e51b815260206004820152602360248201527f4f6e6c792076657269666965722063616e20757064617465207265707574617460448201526234b7b760e91b6064820152608401610812565b6001600160a01b03841661209e5760405162461bcd60e51b8152602060048201526014602482015273496e76616c69642075736572206164647265737360601b6044820152606401610812565b60006120e08484848080601f016020809104026020016040519081016040528093929190818152602001838380828437600092019190915250612da692505050565b9050846001600160a01b031660008060016008546120fe9190613bc1565b81526020810191909152604001600020600801546001600160a01b03160361216e576001600160a01b038516600090815260046020526040902081905561214481612dd0565b506001600160a01b0385166000908152600460205260409020546121689086612de0565b506121b8565b6001600160a01b038516600090815260056020526040902081905561219281612dd0565b506001600160a01b0385166000908152600560205260409020546121b69086612de0565b505b604051600081526001600160a01b038616907fbc29a8e6655836a9c09ee2d874d0ec6df064e0b7d9d9dd0f097ad3f2874ed9869060200160405180910390a25050505050565b60008181526002602081905260408220600181015491810154600382015460058301546006840154600485018054889788976060978997889792969395919460ff9091169391926001600160a01b03169190839061225b90613a21565b80601f016020809104026020016040519081016040528092919081815260200182805461228790613a21565b80156122d45780601f106122a9576101008083540402835291602001916122d4565b820191906000526020600020905b8154815290600101906020018083116122b757829003601f168201915b505050505092509650965096509650965096505091939550919395565b6001600160a01b03811660009081526007602090815260409182902080548351818402810184019094528084526060939283018282801561235157602002820191906000526020600020905b81548152602001906001019080831161233d575b50505050509050919050565b6000818152602081905260408120600181015460028201546004830154600584015460088501546009860154600a870154600b88015460068901805460609b8c9b909a8b9a8b9a8b9a8b9a8b9a8b9a8b9a8b9a989960078b019897969560ff8082169661010090920416946001600160a01b039182169491169290918b906123e490613a21565b80601f016020809104026020016040519081016040528092919081815260200182805461241090613a21565b801561245d5780601f106124325761010080835404028352916020019161245d565b820191906000526020600020905b81548152906001019060200180831161244057829003601f168201915b50505050509a5089805461247090613a21565b80601f016020809104026020016040519081016040528092919081815260200182805461249c90613a21565b80156124e95780601f106124be576101008083540402835291602001916124e9565b820191906000526020600020905b8154815290600101906020018083116124cc57829003601f168201915b505050505099509b509b509b509b509b509b509b509b509b509b509b505091939597999b90929496989a50565b6001602081905260009182526040909120805491810154600282015460038301546004840180549394929360ff808416946101009094041692919061255a90613a21565b80601f016020809104026020016040519081016040528092919081815260200182805461258690613a21565b80156125d35780601f106125a8576101008083540402835291602001916125d3565b820191906000526020600020905b8154815290600101906020018083116125b657829003601f168201915b5050505050908060050180546125e890613a21565b80601f016020809104026020016040519081016040528092919081815260200182805461261490613a21565b80156126615780601f1061263657610100808354040283529160200191612661565b820191906000526020600020905b81548152906001019060200180831161264457829003601f168201915b50505050509080600601805461267690613a21565b80601f01602080910402602001604051908101604052809291908181526020018280546126a290613a21565b80156126ef5780601f106126c4576101008083540402835291602001916126ef565b820191906000526020600020905b8154815290600101906020018083116126d257829003601f168201915b50505050600783015460088401546009850154600a9095015493946001600160a01b0392831694929091169250908c565b6001600160a01b03808216600090815260036020819052604082208054600182015460028301546004840154600585015495850180549798899889986060988a98899891979096919560ff90911694909391169190839061225b90613a21565b6007602052816000526040600020818154811061279c57600080fd5b90600052602060002001600091509150505481565b600081815260016020819052604082209081015460028201546003830154600784015460088501546009860154600a8701546004880180548a998a998a996060998a998a998d998a998a998a9960ff8088169761010090041695919460058b019460068c01946001600160a01b039485169490921692909190879061283590613a21565b80601f016020809104026020016040519081016040528092919081815260200182805461286190613a21565b80156128ae5780601f10612883576101008083540402835291602001916128ae565b820191906000526020600020905b81548152906001019060200180831161289157829003601f168201915b505050505096508580546128c190613a21565b80601f01602080910402602001604051908101604052809291908181526020018280546128ed90613a21565b801561293a5780601f1061290f5761010080835404028352916020019161293a565b820191906000526020600020905b81548152906001019060200180831161291d57829003601f168201915b5050505050955084805461294d90613a21565b80601f016020809104026020016040519081016040528092919081815260200182805461297990613a21565b80156129c65780601f1061299b576101008083540402835291602001916129c6565b820191906000526020600020905b8154815290600101906020018083116129a957829003601f168201915b505050505094509b509b509b509b509b509b509b509b509b509b509b505091939597999b90929496989a50565b60006020819052908152604090208054600182015460028301546003840154600485015460058601546006870180549697959694959394929360ff808416946101009094041692909190612a4690613a21565b80601f0160208091040260200160405190810160405280929190818152602001828054612a7290613a21565b8015612abf5780601f10612a9457610100808354040283529160200191612abf565b820191906000526020600020905b815481529060010190602001808311612aa257829003601f168201915b505050505090806007018054612ad490613a21565b80601f0160208091040260200160405190810160405280929190818152602001828054612b0090613a21565b8015612b4d5780601f10612b2257610100808354040283529160200191612b4d565b820191906000526020600020905b815481529060010190602001808311612b3057829003601f168201915b5050505060088301546009840154600a850154600b9095015493946001600160a01b0392831694929091169250908d565b60066020526000908152604090208054600182015460028301805492939192612ba690613a21565b80601f0160208091040260200160405190810160405280929190818152602001828054612bd290613a21565b8015612c1f5780601f10612bf457610100808354040283529160200191612c1f565b820191906000526020600020905b815481529060010190602001808311612c0257829003601f168201915b505050505090806003018054612c3490613a21565b80601f0160208091040260200160405190810160405280929190818152602001828054612c6090613a21565b8015612cad5780601f10612c8257610100808354040283529160200191612cad565b820191906000526020600020905b815481529060010190602001808311612c9057829003601f168201915b505050506004830154600584015460069094015492936001600160a01b039091169290915060ff1687565b600360208190526000918252604090912080546001820154600283015493830180549294919360ff90921692612d0d90613a21565b80601f0160208091040260200160405190810160405280929190818152602001828054612d3990613a21565b8015612d865780601f10612d5b57610100808354040283529160200191612d86565b820191906000526020600020905b815481529060010190602001808311612d6957829003601f168201915b50505050600483015460059093015491926001600160a01b031691905086565b6000612db483836004612e25565b90505b92915050565b6000612db78263ffffffff166004612f3c565b6000612ddc8230612feb565b5090565b6000612dec8383612feb565b5090919050565b600082612e0757612e046000612dbd565b92505b81612e1957612e166000612dbd565b91505b612db483836000613068565b7f9e7b61f58c47dc699ac88507c4f5bb9f121c03808c5676a8078fe583e46497015460405163196d0b9b60e01b8152600091600080516020613c64833981519152916001600160a01b039091169063196d0b9b90612e8d908890339089908990600401613bf6565b6020604051808303816000875af1158015612eac573d6000803e3d6000fd5b505050506040513d601f19601f82011682018060405250810190612ed09190613c2f565b8154604051630f8e573b60e21b8152600481018390523360248201529193506001600160a01b031690633e395cec90604401600060405180830381600087803b158015612f1c57600080fd5b505af1158015612f30573d6000803e3d6000fd5b50505050509392505050565b7f9e7b61f58c47dc699ac88507c4f5bb9f121c03808c5676a8078fe583e464970154604051639cd07acb60e01b8152600091600080516020613c64833981519152916001600160a01b0390911690639cd07acb90612fa09087908790600401613c48565b6020604051808303816000875af1158015612fbf573d6000803e3d6000fd5b505050506040513d601f19601f82011682018060405250810190612fe39190613c2f565b949350505050565b6000600080516020613c648339815191528054604051635ca4b5b160e11b8152600481018690526001600160a01b03858116602483015292935091169063b9496b6290604401600060405180830381600087803b15801561304b57600080fd5b505af115801561305f573d6000803e3d6000fd5b50505050505050565b600080821561307c5750600160f81b613080565b5060005b6000600080516020613c64833981519152600181015460405163022f65e760e31b815260048101899052602481018890526001600160f81b0319851660448201529192506001600160a01b03169063117b2f38906064016020604051808303816000875af11580156130f6573d6000803e3d6000fd5b505050506040513d601f19601f8201168201806040525081019061311a9190613c2f565b9695505050505050565b60006020828403121561313657600080fd5b5035919050565b8035801515811461314d57600080fd5b919050565b6000806040838503121561316557600080fd5b823591506131756020840161313d565b90509250929050565b6000815180845260005b818110156131a457602081850181015186830182015201613188565b506000602082860101526020601f19601f83011685010191505092915050565b878152866020820152856040820152841515606082015260e0608082015260006131f160e083018661317e565b6001600160a01b039490941660a08301525060c0015295945050505050565b634e487b7160e01b600052604160045260246000fd5b600082601f83011261323757600080fd5b813567ffffffffffffffff8082111561325257613252613210565b604051601f8301601f19908116603f0116810190828211818310171561327a5761327a613210565b8160405283815286602085880101111561329357600080fd5b836020870160208301376000602085830101528094505050505092915050565b60008083601f8401126132c557600080fd5b50813567ffffffffffffffff8111156132dd57600080fd5b6020830191508360208285010111156132f557600080fd5b9250929050565b600080600080600080600060c0888a03121561331757600080fd5b873567ffffffffffffffff8082111561332f57600080fd5b61333b8b838c01613226565b985060208a013591508082111561335157600080fd5b61335d8b838c01613226565b975060408a0135965060608a0135955060808a0135945060a08a013591508082111561338857600080fd5b506133958a828b016132b3565b989b979a50959850939692959293505050565b80356001600160a01b038116811461314d57600080fd5b6000806000806000608086880312156133d757600080fd5b6133e0866133a8565b945060208601359350604086013567ffffffffffffffff8082111561340457600080fd5b61341089838a01613226565b9450606088013591508082111561342657600080fd5b50613433888289016132b3565b969995985093965092949392505050565b60006020828403121561345657600080fd5b612db4826133a8565b6000806040838503121561347257600080fd5b82359150602083013567ffffffffffffffff81111561349057600080fd5b61349c85828601613226565b9150509250929050565b86815260c0602082015260006134bf60c083018861317e565b82810360408401526134d1818861317e565b6001600160a01b0396909616606084015250506080810192909252151560a0909101529392505050565b600080600080600080600060c0888a03121561351657600080fd5b8735965060208801359550604088013567ffffffffffffffff8082111561353c57600080fd5b6135488b838c01613226565b965060608a013591508082111561355e57600080fd5b61356a8b838c01613226565b955060808a013591508082111561358057600080fd5b61358c8b838c01613226565b945060a08a013591508082111561338857600080fd5b6000806000806000608086880312156135ba57600080fd5b853567ffffffffffffffff808211156135d257600080fd5b6135de89838a01613226565b965060208801359150808211156135f457600080fd5b61360089838a01613226565b955060408801359450606088013591508082111561342657600080fd5b60008060008060006080868803121561363557600080fd5b853594506136456020870161313d565b935060408601359250606086013567ffffffffffffffff81111561366857600080fd5b613433888289016132b3565b6000806000806060858703121561368a57600080fd5b613693856133a8565b935060208501359250604085013567ffffffffffffffff8111156136b657600080fd5b6136c2878288016132b3565b95989497509550505050565b868152856020820152841515604082015260c0606082015260006136f560c083018661317e565b6001600160a01b039490941660808301525060a00152949350505050565b6020808252825182820181905260009190848201906040850190845b8181101561374b5783518352928401929184019160010161372f565b50909695505050505050565b600061016080835261376b8184018f61317e565b9050828103602084015261377f818e61317e565b604084019c909c5250506060810198909852608088019690965293151560a087015291151560c08601526001600160a01b0390811660e0860152166101008401526101208301526101409091015292915050565b60006101808e83528d60208401528c60408401528b151560608401528a151560808401528060a08401526138098184018b61317e565b905082810360c084015261381d818a61317e565b905082810360e0840152613831818961317e565b6001600160a01b03888116610100860152871661012085015291506138539050565b61014082019390935261016001529a9950505050505050505050565b6000806040838503121561388257600080fd5b61388b836133a8565b946020939093013593505050565b60006101608d83528c60208401528b151560408401528a151560608401528060808401526138c98184018b61317e565b905082810360a08401526138dd818a61317e565b905082810360c08401526138f1818961317e565b6001600160a01b0397881660e085015295909616610100830152506101208101929092526101409091015298975050505050505050565b60006101a08f83528e60208401528d60408401528c60608401528b60808401528a151560a084015289151560c08401528060e084015261396a8184018a61317e565b905082810361010084015261397f818961317e565b9150506139986101208301876001600160a01b03169052565b6001600160a01b03851661014083015261016082019390935261018001529b9a5050505050505050505050565b87815286602082015260e0604082015260006139e460e083018861317e565b82810360608401526139f6818861317e565b6001600160a01b03969096166080840152505060a0810192909252151560c090910152949350505050565b600181811c90821680613a3557607f821691505b602082108103613a5557634e487b7160e01b600052602260045260246000fd5b50919050565b634e487b7160e01b600052601160045260246000fd5b600060018201613a8357613a83613a5b565b5060010190565b80820180821115612db757612db7613a5b565b601f821115613ae9576000816000526020600020601f850160051c81016020861015613ac65750805b601f850160051c820191505b81811015613ae557828155600101613ad2565b5050505b505050565b815167ffffffffffffffff811115613b0857613b08613210565b613b1c81613b168454613a21565b84613a9d565b602080601f831160018114613b515760008415613b395750858301515b600019600386901b1c1916600185901b178555613ae5565b600085815260208120601f198616915b82811015613b8057888601518255948401946001909101908401613b61565b5085821015613b9e5787850151600019600388901b60f8161c191681555b5050505050600190811b01905550565b602081526000612db4602083018461317e565b81810381811115612db757612db7613a5b565b60548110613bf257634e487b7160e01b600052602160045260246000fd5b9052565b8481526001600160a01b0384166020820152608060408201819052600090613c209083018561317e565b9050611b126060830184613bd4565b600060208284031215613c4157600080fd5b5051919050565b82815260408101613c5c6020830184613bd4565b939250505056fe9e7b61f58c47dc699ac88507c4f5bb9f121c03808c5676a8078fe583e4649700a2646970667358221220e2d5e879e7c1548efd630e9a2dc2d143317470af8f7a7582dbd5cb88622a91d164736f6c63430008180033",
  "linkReferences": {},
  "deployedLinkReferences": {}
}