{
  "_format": "hh-sol-artifact-1",
  "contractName": "CipherPolicyHub",
  "sourceName": "contracts/CipherPolicyHub.sol",
  "abi": [
    {
      "inputs": [
        {
          "internalType": "address",
          "name": "_verifier",
          "type": "address"
        },
        {
          "internalType": "address",
          "name": "_adjuster",
          "type": "address"
        }
      ],
      "stateMutability": "nonpayable",
      "type": "constructor"
    },
    {
      "anonymous": false,
      "inputs": [
        {
          "indexed": true,
          "internalType": "uint256",
          "name": "claimId",
          "type": "uint256"
        },
        {
          "indexed": true,
          "internalType": "address",
          "name": "claimant",
          "type": "address"
        }
      ],
      "name": "ClaimDecrypted",
      "type": "event"
    },
    {
      "anonymous": false,
      "inputs": [
        {
          "indexed": true,
          "internalType": "uint256",
          "name": "claimId",
          "type": "uint256"
        },
        {
          "indexed": false,
          "internalType": "bool",
          "name": "isApproved",
          "type": "bool"
        },
        {
          "indexed": false,
          "internalType": "uint32",
          "name": "settlementAmount",
          "type": "uint32"
        }
      ],
      "name": "ClaimProcessed",
      "type": "event"
    },
    {
      "anonymous": false,
      "inputs": [
        {
          "indexed": true,
          "internalType": "uint256",
          "name": "claimId",
          "type": "uint256"
        },
        {
          "indexed": true,
          "internalType": "uint256",
          "name": "policyId",
          "type": "uint256"
        },
        {
          "indexed": true,
          "internalType": "address",
          "name": "claimant",
          "type": "address"
        }
      ],
      "name": "ClaimSubmitted",
      "type": "event"
    },
    {
      "anonymous": false,
      "inputs": [
        {
          "indexed": true,
          "internalType": "uint256",
          "name": "policyId",
          "type": "uint256"
        },
        {
          "indexed": true,
          "internalType": "address",
          "name": "policyholder",
          "type": "address"
        },
        {
          "indexed": false,
          "internalType": "string",
          "name": "policyType",
          "type": "string"
        }
      ],
      "name": "PolicyCreated",
      "type": "event"
    },
    {
      "anonymous": false,
      "inputs": [
        {
          "indexed": true,
          "internalType": "address",
          "name": "user",
          "type": "address"
        },
        {
          "indexed": false,
          "internalType": "uint32",
          "name": "reputation",
          "type": "uint32"
        }
      ],
      "name": "ReputationUpdated",
      "type": "event"
    },
    {
      "anonymous": false,
      "inputs": [
        {
          "indexed": true,
          "internalType": "address",
          "name": "policyholder",
          "type": "address"
        },
        {
          "indexed": false,
          "internalType": "uint32",
          "name": "riskScore",
          "type": "uint32"
        },
        {
          "indexed": false,
          "internalType": "bool",
          "name": "isVerified",
          "type": "bool"
        }
      ],
      "name": "RiskAssessed",
      "type": "event"
    },
    {
      "anonymous": false,
      "inputs": [
        {
          "indexed": true,
          "internalType": "uint256",
          "name": "settlementId",
          "type": "uint256"
        },
        {
          "indexed": true,
          "internalType": "uint256",
          "name": "claimId",
          "type": "uint256"
        },
        {
          "indexed": true,
          "internalType": "address",
          "name": "beneficiary",
          "type": "address"
        }
      ],
      "name": "SettlementCompleted",
      "type": "event"
    },
    {
      "anonymous": false,
      "inputs": [
        {
          "indexed": true,
          "internalType": "uint256",
          "name": "claimId",
          "type": "uint256"
        },
        {
          "indexed": true,
          "internalType": "address",
          "name": "claimant",
          "type": "address"
        },
        {
          "indexed": false,
          "internalType": "string",
          "name": "claimType",
          "type": "string"
        }
      ],
      "name": "SimpleClaimSubmitted",
      "type": "event"
    },
    {
      "inputs": [],
      "name": "adjuster",
      "outputs": [
        {
          "internalType": "address",
          "name": "",
          "type": "address"
        }
      ],
      "stateMutability": "view",
      "type": "function"
    },
    {
      "inputs": [
        {
          "internalType": "address",
          "name": "policyholder",
          "type": "address"
        },
        {
          "internalType": "externalEuint32",
          "name": "riskScore",
          "type": "bytes32"
        },
        {
          "internalType": "string",
          "name": "assessmentHash",
          "type": "string"
        },
        {
          "internalType": "bytes",
          "name": "inputProof",
          "type": "bytes"
        }
      ],
      "name": "assessRisk",
      "outputs": [],
      "stateMutability": "nonpayable",
      "type": "function"
    },
    {
      "inputs": [],
      "name": "claimCounter",
      "outputs": [
        {
          "internalType": "uint256",
          "name": "",
          "type": "uint256"
        }
      ],
      "stateMutability": "view",
      "type": "function"
    },
    {
      "inputs": [
        {
          "internalType": "uint256",
          "name": "",
          "type": "uint256"
        }
      ],
      "name": "claims",
      "outputs": [
        {
          "internalType": "euint32",
          "name": "claimId",
          "type": "bytes32"
        },
        {
          "internalType": "euint32",
          "name": "claimAmount",
          "type": "bytes32"
        },
        {
          "internalType": "euint32",
          "name": "policyId",
          "type": "bytes32"
        },
        {
          "internalType": "bool",
          "name": "isApproved",
          "type": "bool"
        },
        {
          "internalType": "bool",
          "name": "isProcessed",
          "type": "bool"
        },
        {
          "internalType": "string",
          "name": "claimType",
          "type": "string"
        },
        {
          "internalType": "string",
          "name": "description",
          "type": "string"
        },
        {
          "internalType": "string",
          "name": "evidenceHash",
          "type": "string"
        },
        {
          "internalType": "address",
          "name": "claimant",
          "type": "address"
        },
        {
          "internalType": "address",
          "name": "adjuster",
          "type": "address"
        },
        {
          "internalType": "uint256",
          "name": "submissionDate",
          "type": "uint256"
        },
        {
          "internalType": "uint256",
          "name": "processingDate",
          "type": "uint256"
        }
      ],
      "stateMutability": "view",
      "type": "function"
    },
    {
      "inputs": [
        {
          "internalType": "uint256",
          "name": "settlementId",
          "type": "uint256"
        },
        {
          "internalType": "string",
          "name": "settlementHash",
          "type": "string"
        }
      ],
      "name": "completeSettlement",
      "outputs": [],
      "stateMutability": "nonpayable",
      "type": "function"
    },
    {
      "inputs": [
        {
          "internalType": "string",
          "name": "_policyType",
          "type": "string"
        },
        {
          "internalType": "string",
          "name": "_description",
          "type": "string"
        },
        {
          "internalType": "externalEuint32",
          "name": "_premiumAmount",
          "type": "bytes32"
        },
        {
          "internalType": "externalEuint32",
          "name": "_coverageAmount",
          "type": "bytes32"
        },
        {
          "internalType": "uint256",
          "name": "_duration",
          "type": "uint256"
        },
        {
          "internalType": "bytes",
          "name": "inputProof",
          "type": "bytes"
        }
      ],
      "name": "createPolicy",
      "outputs": [
        {
          "internalType": "uint256",
          "name": "",
          "type": "uint256"
        }
      ],
      "stateMutability": "nonpayable",
      "type": "function"
    },
    {
      "inputs": [
        {
          "internalType": "address",
          "name": "_policyholder",
          "type": "address"
        },
        {
          "internalType": "string",
          "name": "_policyType",
          "type": "string"
        },
        {
          "internalType": "string",
          "name": "_description",
          "type": "string"
        },
        {
          "internalType": "uint256",
          "name": "_premiumAmount",
          "type": "uint256"
        },
        {
          "internalType": "uint256",
          "name": "_coverageAmount",
          "type": "uint256"
        },
        {
          "internalType": "uint256",
          "name": "_duration",
          "type": "uint256"
        }
      ],
      "name": "createPolicyForUser",
      "outputs": [
        {
          "internalType": "uint256",
          "name": "",
          "type": "uint256"
        }
      ],
      "stateMutability": "nonpayable",
      "type": "function"
    },
    {
      "inputs": [
        {
          "internalType": "string",
          "name": "_policyType",
          "type": "string"
        },
        {
          "internalType": "string",
          "name": "_description",
          "type": "string"
        },
        {
          "internalType": "uint256",
          "name": "_premiumAmount",
          "type": "uint256"
        },
        {
          "internalType": "uint256",
          "name": "_coverageAmount",
          "type": "uint256"
        },
        {
          "internalType": "uint256",
          "name": "_duration",
          "type": "uint256"
        }
      ],
      "name": "createSimplePolicy",
      "outputs": [
        {
          "internalType": "uint256",
          "name": "",
          "type": "uint256"
        }
      ],
      "stateMutability": "nonpayable",
      "type": "function"
    },
    {
      "inputs": [
        {
          "internalType": "uint256",
          "name": "claimId",
          "type": "uint256"
        }
      ],
      "name": "getClaimEncryptedAmount",
      "outputs": [
        {
          "internalType": "euint32",
          "name": "",
          "type": "bytes32"
        }
      ],
      "stateMutability": "view",
      "type": "function"
    },
    {
      "inputs": [
        {
          "internalType": "uint256",
          "name": "claimId",
          "type": "uint256"
        }
      ],
      "name": "getClaimEncryptedData",
      "outputs": [
        {
          "internalType": "euint8",
          "name": "",
          "type": "bytes32"
        },
        {
          "internalType": "euint32",
          "name": "",
          "type": "bytes32"
        },
        {
          "internalType": "euint32",
          "name": "",
          "type": "bytes32"
        },
        {
          "internalType": "euint32",
          "name": "",
          "type": "bytes32"
        },
        {
          "internalType": "euint32",
          "name": "",
          "type": "bytes32"
        }
      ],
      "stateMutability": "view",
      "type": "function"
    },
    {
      "inputs": [
        {
          "internalType": "uint256",
          "name": "claimId",
          "type": "uint256"
        }
      ],
      "name": "getClaimInfo",
      "outputs": [
        {
          "internalType": "euint32",
          "name": "claimAmount",
          "type": "bytes32"
        },
        {
          "internalType": "euint32",
          "name": "policyId",
          "type": "bytes32"
        },
        {
          "internalType": "bool",
          "name": "isApproved",
          "type": "bool"
        },
        {
          "internalType": "bool",
          "name": "isProcessed",
          "type": "bool"
        },
        {
          "internalType": "string",
          "name": "claimType",
          "type": "string"
        },
        {
          "internalType": "string",
          "name": "description",
          "type": "string"
        },
        {
          "internalType": "string",
          "name": "evidenceHash",
          "type": "string"
        },
        {
          "internalType": "address",
          "name": "claimant",
          "type": "address"
        },
        {
          "internalType": "address",
          "name": "claimAdjuster",
          "type": "address"
        },
        {
          "internalType": "uint256",
          "name": "submissionDate",
          "type": "uint256"
        },
        {
          "internalType": "uint256",
          "name": "processingDate",
          "type": "uint256"
        }
      ],
      "stateMutability": "view",
      "type": "function"
    },
    {
      "inputs": [
        {
          "internalType": "address",
          "name": "insurer",
          "type": "address"
        }
      ],
      "name": "getInsurerReputation",
      "outputs": [
        {
          "internalType": "euint32",
          "name": "",
          "type": "bytes32"
        }
      ],
      "stateMutability": "view",
      "type": "function"
    },
    {
      "inputs": [
        {
          "internalType": "uint256",
          "name": "policyId",
          "type": "uint256"
        }
      ],
      "name": "getPolicyInfo",
      "outputs": [
        {
          "internalType": "string",
          "name": "policyType",
          "type": "string"
        },
        {
          "internalType": "string",
          "name": "description",
          "type": "string"
        },
        {
          "internalType": "euint32",
          "name": "premiumAmount",
          "type": "bytes32"
        },
        {
          "internalType": "euint32",
          "name": "coverageAmount",
          "type": "bytes32"
        },
        {
          "internalType": "euint32",
          "name": "claimCount",
          "type": "bytes32"
        },
        {
          "internalType": "bool",
          "name": "isActive",
          "type": "bool"
        },
        {
          "internalType": "bool",
          "name": "isVerified",
          "type": "bool"
        },
        {
          "internalType": "address",
          "name": "policyholder",
          "type": "address"
        },
        {
          "internalType": "address",
          "name": "insurer",
          "type": "address"
        },
        {
          "internalType": "uint256",
          "name": "startDate",
          "type": "uint256"
        },
        {
          "internalType": "uint256",
          "name": "endDate",
          "type": "uint256"
        }
      ],
      "stateMutability": "view",
      "type": "function"
    },
    {
      "inputs": [
        {
          "internalType": "address",
          "name": "policyholder",
          "type": "address"
        }
      ],
      "name": "getPolicyholderReputation",
      "outputs": [
        {
          "internalType": "euint32",
          "name": "",
          "type": "bytes32"
        }
      ],
      "stateMutability": "view",
      "type": "function"
    },
    {
      "inputs": [
        {
          "internalType": "address",
          "name": "policyholder",
          "type": "address"
        }
      ],
      "name": "getRiskAssessment",
      "outputs": [
        {
          "internalType": "euint32",
          "name": "riskScore",
          "type": "bytes32"
        },
        {
          "internalType": "euint32",
          "name": "riskLevel",
          "type": "bytes32"
        },
        {
          "internalType": "bool",
          "name": "isVerified",
          "type": "bool"
        },
        {
          "internalType": "string",
          "name": "assessmentHash",
          "type": "string"
        },
        {
          "internalType": "address",
          "name": "assessor",
          "type": "address"
        },
        {
          "internalType": "uint256",
          "name": "assessmentDate",
          "type": "uint256"
        }
      ],
      "stateMutability": "view",
      "type": "function"
    },
    {
      "inputs": [
        {
          "internalType": "uint256",
          "name": "settlementId",
          "type": "uint256"
        }
      ],
      "name": "getSettlementInfo",
      "outputs": [
        {
          "internalType": "euint32",
          "name": "claimId",
          "type": "bytes32"
        },
        {
          "internalType": "euint32",
          "name": "settlementAmount",
          "type": "bytes32"
        },
        {
          "internalType": "bool",
          "name": "isCompleted",
          "type": "bool"
        },
        {
          "internalType": "string",
          "name": "settlementHash",
          "type": "string"
        },
        {
          "internalType": "address",
          "name": "beneficiary",
          "type": "address"
        },
        {
          "internalType": "uint256",
          "name": "settlementDate",
          "type": "uint256"
        }
      ],
      "stateMutability": "view",
      "type": "function"
    },
    {
      "inputs": [
        {
          "internalType": "uint256",
          "name": "claimId",
          "type": "uint256"
        }
      ],
      "name": "getSimpleClaimInfo",
      "outputs": [
        {
          "internalType": "uint256",
          "name": "",
          "type": "uint256"
        },
        {
          "internalType": "address",
          "name": "",
          "type": "address"
        },
        {
          "internalType": "uint256",
          "name": "",
          "type": "uint256"
        },
        {
          "internalType": "bool",
          "name": "",
          "type": "bool"
        }
      ],
      "stateMutability": "view",
      "type": "function"
    },
    {
      "inputs": [],
      "name": "getTotalSimpleClaims",
      "outputs": [
        {
          "internalType": "uint256",
          "name": "",
          "type": "uint256"
        }
      ],
      "stateMutability": "view",
      "type": "function"
    },
    {
      "inputs": [
        {
          "internalType": "address",
          "name": "user",
          "type": "address"
        }
      ],
      "name": "getUserClaims",
      "outputs": [
        {
          "internalType": "uint256[]",
          "name": "",
          "type": "uint256[]"
        }
      ],
      "stateMutability": "view",
      "type": "function"
    },
    {
      "inputs": [
        {
          "internalType": "address",
          "name": "",
          "type": "address"
        }
      ],
      "name": "insurerReputation",
      "outputs": [
        {
          "internalType": "euint32",
          "name": "",
          "type": "bytes32"
        }
      ],
      "stateMutability": "view",
      "type": "function"
    },
    {
      "inputs": [
        {
          "internalType": "uint256",
          "name": "claimId",
          "type": "uint256"
        }
      ],
      "name": "markClaimAsDecrypted",
      "outputs": [],
      "stateMutability": "nonpayable",
      "type": "function"
    },
    {
      "inputs": [],
      "name": "owner",
      "outputs": [
        {
          "internalType": "address",
          "name": "",
          "type": "address"
        }
      ],
      "stateMutability": "view",
      "type": "function"
    },
    {
      "inputs": [
        {
          "internalType": "uint256",
          "name": "policyId",
          "type": "uint256"
        }
      ],
      "name": "payPremium",
      "outputs": [],
      "stateMutability": "payable",
      "type": "function"
    },
    {
      "inputs": [
        {
          "internalType": "uint256",
          "name": "",
          "type": "uint256"
        }
      ],
      "name": "policies",
      "outputs": [
        {
          "internalType": "euint32",
          "name": "policyId",
          "type": "bytes32"
        },
        {
          "internalType": "euint32",
          "name": "premiumAmount",
          "type": "bytes32"
        },
        {
          "internalType": "euint32",
          "name": "coverageAmount",
          "type": "bytes32"
        },
        {
          "internalType": "euint32",
          "name": "claimLimit",
          "type": "bytes32"
        },
        {
          "internalType": "euint32",
          "name": "claimCount",
          "type": "bytes32"
        },
        {
          "internalType": "bool",
          "name": "isActive",
          "type": "bool"
        },
        {
          "internalType": "bool",
          "name": "isVerified",
          "type": "bool"
        },
        {
          "internalType": "string",
          "name": "policyType",
          "type": "string"
        },
        {
          "internalType": "string",
          "name": "description",
          "type": "string"
        },
        {
          "internalType": "address",
          "name": "policyholder",
          "type": "address"
        },
        {
          "internalType": "address",
          "name": "insurer",
          "type": "address"
        },
        {
          "internalType": "uint256",
          "name": "startDate",
          "type": "uint256"
        },
        {
          "internalType": "uint256",
          "name": "endDate",
          "type": "uint256"
        }
      ],
      "stateMutability": "view",
      "type": "function"
    },
    {
      "inputs": [],
      "name": "policyCounter",
      "outputs": [
        {
          "internalType": "uint256",
          "name": "",
          "type": "uint256"
        }
      ],
      "stateMutability": "view",
      "type": "function"
    },
    {
      "inputs": [
        {
          "internalType": "address",
          "name": "",
          "type": "address"
        }
      ],
      "name": "policyholderReputation",
      "outputs": [
        {
          "internalType": "euint32",
          "name": "",
          "type": "bytes32"
        }
      ],
      "stateMutability": "view",
      "type": "function"
    },
    {
      "inputs": [
        {
          "internalType": "uint256",
          "name": "claimId",
          "type": "uint256"
        },
        {
          "internalType": "bool",
          "name": "isApproved",
          "type": "bool"
        },
        {
          "internalType": "externalEuint32",
          "name": "settlementAmount",
          "type": "bytes32"
        },
        {
          "internalType": "bytes",
          "name": "inputProof",
          "type": "bytes"
        }
      ],
      "name": "processClaim",
      "outputs": [
        {
          "internalType": "uint256",
          "name": "",
          "type": "uint256"
        }
      ],
      "stateMutability": "nonpayable",
      "type": "function"
    },
    {
      "inputs": [],
      "name": "protocolId",
      "outputs": [
        {
          "internalType": "uint256",
          "name": "",
          "type": "uint256"
        }
      ],
      "stateMutability": "pure",
      "type": "function"
    },
    {
      "inputs": [
        {
          "internalType": "address",
          "name": "",
          "type": "address"
        }
      ],
      "name": "riskAssessments",
      "outputs": [
        {
          "internalType": "euint32",
          "name": "riskScore",
          "type": "bytes32"
        },
        {
          "internalType": "euint32",
          "name": "riskLevel",
          "type": "bytes32"
        },
        {
          "internalType": "bool",
          "name": "isVerified",
          "type": "bool"
        },
        {
          "internalType": "string",
          "name": "assessmentHash",
          "type": "string"
        },
        {
          "internalType": "address",
          "name": "assessor",
          "type": "address"
        },
        {
          "internalType": "uint256",
          "name": "assessmentDate",
          "type": "uint256"
        }
      ],
      "stateMutability": "view",
      "type": "function"
    },
    {
      "inputs": [],
      "name": "settlementCounter",
      "outputs": [
        {
          "internalType": "uint256",
          "name": "",
          "type": "uint256"
        }
      ],
      "stateMutability": "view",
      "type": "function"
    },
    {
      "inputs": [
        {
          "internalType": "uint256",
          "name": "",
          "type": "uint256"
        }
      ],
      "name": "settlements",
      "outputs": [
        {
          "internalType": "euint32",
          "name": "settlementId",
          "type": "bytes32"
        },
        {
          "internalType": "euint32",
          "name": "claimId",
          "type": "bytes32"
        },
        {
          "internalType": "euint32",
          "name": "settlementAmount",
          "type": "bytes32"
        },
        {
          "internalType": "bool",
          "name": "isCompleted",
          "type": "bool"
        },
        {
          "internalType": "string",
          "name": "settlementHash",
          "type": "string"
        },
        {
          "internalType": "address",
          "name": "beneficiary",
          "type": "address"
        },
        {
          "internalType": "uint256",
          "name": "settlementDate",
          "type": "uint256"
        }
      ],
      "stateMutability": "view",
      "type": "function"
    },
    {
      "inputs": [],
      "name": "simpleClaimCounter",
      "outputs": [
        {
          "internalType": "uint256",
          "name": "",
          "type": "uint256"
        }
      ],
      "stateMutability": "view",
      "type": "function"
    },
    {
      "inputs": [
        {
          "internalType": "uint256",
          "name": "",
          "type": "uint256"
        }
      ],
      "name": "simpleClaims",
      "outputs": [
        {
          "internalType": "uint256",
          "name": "claimId",
          "type": "uint256"
        },
        {
          "internalType": "euint8",
          "name": "encryptedClaimType",
          "type": "bytes32"
        },
        {
          "internalType": "euint32",
          "name": "encryptedAmount",
          "type": "bytes32"
        },
        {
          "internalType": "euint32",
          "name": "encryptedPolicyNumber",
          "type": "bytes32"
        },
        {
          "internalType": "euint32",
          "name": "encryptedContactInfo",
          "type": "bytes32"
        },
        {
          "internalType": "euint32",
          "name": "encryptedDescription",
          "type": "bytes32"
        },
        {
          "internalType": "address",
          "name": "claimant",
          "type": "address"
        },
        {
          "internalType": "uint256",
          "name": "submissionDate",
          "type": "uint256"
        },
        {
          "internalType": "bool",
          "name": "isActive",
          "type": "bool"
        }
      ],
      "stateMutability": "view",
      "type": "function"
    },
    {
      "inputs": [
        {
          "internalType": "uint256",
          "name": "policyId",
          "type": "uint256"
        },
        {
          "internalType": "externalEuint32",
          "name": "claimAmount",
          "type": "bytes32"
        },
        {
          "internalType": "string",
          "name": "claimType",
          "type": "string"
        },
        {
          "internalType": "string",
          "name": "description",
          "type": "string"
        },
        {
          "internalType": "string",
          "name": "evidenceHash",
          "type": "string"
        },
        {
          "internalType": "bytes",
          "name": "inputProof",
          "type": "bytes"
        }
      ],
      "name": "submitClaim",
      "outputs": [
        {
          "internalType": "uint256",
          "name": "",
          "type": "uint256"
        }
      ],
      "stateMutability": "nonpayable",
      "type": "function"
    },
    {
      "inputs": [
        {
          "internalType": "externalEuint8",
          "name": "claimTypeEncrypted",
          "type": "bytes32"
        },
        {
          "internalType": "externalEuint32",
          "name": "claimAmountEncrypted",
          "type": "bytes32"
        },
        {
          "internalType": "externalEuint32",
          "name": "policyNumberEncrypted",
          "type": "bytes32"
        },
        {
          "internalType": "externalEuint32",
          "name": "contactInfoEncrypted",
          "type": "bytes32"
        },
        {
          "internalType": "externalEuint32",
          "name": "descriptionEncrypted",
          "type": "bytes32"
        },
        {
          "internalType": "bytes",
          "name": "inputProof",
          "type": "bytes"
        }
      ],
      "name": "submitSimpleClaim",
      "outputs": [
        {
          "internalType": "uint256",
          "name": "",
          "type": "uint256"
        }
      ],
      "stateMutability": "nonpayable",
      "type": "function"
    },
    {
      "inputs": [
        {
          "internalType": "address",
          "name": "user",
          "type": "address"
        },
        {
          "internalType": "externalEuint32",
          "name": "reputation",
          "type": "bytes32"
        },
        {
          "internalType": "bytes",
          "name": "inputProof",
          "type": "bytes"
        }
      ],
      "name": "updateReputation",
      "outputs": [],
      "stateMutability": "nonpayable",
      "type": "function"
    },
    {
      "inputs": [
        {
          "internalType": "address",
          "name": "",
          "type": "address"
        },
        {
          "internalType": "uint256",
          "name": "",
          "type": "uint256"
        }
      ],
      "name": "userClaims",
      "outputs": [
        {
          "internalType": "uint256",
          "name": "",
          "type": "uint256"
        }
      ],
      "stateMutability": "view",
      "type": "function"
    },
    {
      "inputs": [],
      "name": "verifier",
      "outputs": [
        {
          "internalType": "address",
          "name": "",
          "type": "address"
        }
      ],
      "stateMutability": "view",
      "type": "function"
    },
    {
      "inputs": [
        {
          "internalType": "uint256",
          "name": "policyId",
          "type": "uint256"
        },
        {
          "internalType": "bool",
          "name": "isVerified",
          "type": "bool"
        }
      ],
      "name": "verifyPolicy",
      "outputs": [],
      "stateMutability": "nonpayable",
      "type": "function"
    },
    {
      "inputs": [
        {
          "internalType": "uint256",
          "name": "settlementId",
          "type": "uint256"
        }
      ],
      "name": "withdrawSettlement",
      "outputs": [],
      "stateMutability": "nonpayable",
      "type": "function"
    }
  ],
  "bytecode": "0x60806040523480156200001157600080fd5b506040516200479e3803806200479e83398101604081905262000034916200020b565b620001b1620000d5604080516080810182526000808252602082018190529181018290526060810191909152506040805160808101825273687820221192c5b662b25367f70076a37bc79b6c815273848b0066793bcc60346da1f49049357399b8d595602082015273a02cda4ca3a71d7c46997716f4283aa851c2881291810191909152731364cbbf2cdf5032c47d8226a6f6fbd2afcdacac606082015290565b80517f9e7b61f58c47dc699ac88507c4f5bb9f121c03808c5676a8078fe583e464970080546001600160a01b03199081166001600160a01b039384161790915560208301517f9e7b61f58c47dc699ac88507c4f5bb9f121c03808c5676a8078fe583e46497018054831691841691909117905560408301517f9e7b61f58c47dc699ac88507c4f5bb9f121c03808c5676a8078fe583e46497028054831691841691909117905560608301517f9e7b61f58c47dc699ac88507c4f5bb9f121c03808c5676a8078fe583e46497038054909216921691909117905550565b600c80546001600160a01b03199081163317909155600d80546001600160a01b03948516908316179055600e805492909316911617905562000243565b80516001600160a01b03811681146200020657600080fd5b919050565b600080604083850312156200021f57600080fd5b6200022a83620001ee565b91506200023a60208401620001ee565b90509250929050565b61454b80620002536000396000f3fe60806040526004361061023b5760003560e01c806380e4f9c21161012e578063ad9cf181116100ab578063d3e894831161006f578063d3e89483146107dc578063d52c1bea14610815578063da1f12ab1461082b578063da5687af14610840578063db17bb411461090457600080fd5b8063ad9cf181146106fd578063b1d4bcca1461071d578063be98952314610765578063ca9748ea14610785578063d2070193146107a557600080fd5b80639765f633116100f25780639765f6331461062b57806397b7c29714610658578063a010454814610678578063a888c2cd146106a5578063ab6ad7fe146106dd57600080fd5b806380e4f9c21461057357806384b971a5146105a95780638b0cde62146105bf5780638da5cb5b146105d45780639588d85b146105f457600080fd5b806328335e74116101bc5780635278a5ea116101805780635278a5ea146104b45780635eb47649146104d457806371892da8146104f45780637bcb4a64146105265780637d69301b1461055357600080fd5b806328335e74146103b85780632b7ac3f3146104335780632bb5edd31461046b5780634364b26e1461048b5780634efa8f171461049e57600080fd5b8063142834dd11610203578063142834dd1461030c57806316d8950d1461032c57806319c976f71461034c57806323d3362614610382578063258cdc6d146103a257600080fd5b806306b301271461024057806306fda44f1461026257806308df7dc8146102825780630a59d872146102be5780630f5d1b47146102ec575b600080fd5b34801561024c57600080fd5b5061026061025b366004613858565b610924565b005b34801561026e57600080fd5b5061026061027d366004613886565b610a26565b34801561028e57600080fd5b506102a261029d366004613858565b610b13565b6040516102b597969594939291906138f8565b60405180910390f35b3480156102ca57600080fd5b506102de6102d9366004613a30565b610be8565b6040519081526020016102b5565b3480156102f857600080fd5b50610260610307366004613af3565b610f32565b34801561031857600080fd5b50610260610327366004613858565b6111bb565b34801561033857600080fd5b506102de610347366004613858565b6112a3565b34801561035857600080fd5b506102de610367366004613b78565b6001600160a01b031660009081526005602052604090205490565b34801561038e57600080fd5b5061026061039d366004613b93565b61132a565b3480156103ae57600080fd5b506102de600b5481565b3480156103c457600080fd5b506104096103d3366004613858565b6000908152600660208190526040909120805491810154600782015460089092015492936001600160a01b039091169260ff1690565b604080519485526001600160a01b03909316602085015291830152151560608201526080016102b5565b34801561043f57600080fd5b50600d54610453906001600160a01b031681565b6040516001600160a01b0390911681526020016102b5565b34801561047757600080fd5b506102de610486366004613bda565b6114da565b610260610499366004613858565b611895565b3480156104aa57600080fd5b506102de60095481565b3480156104c057600080fd5b506102de6104cf366004613c81565b611984565b3480156104e057600080fd5b506102606104ef366004613cd8565b611d10565b34801561050057600080fd5b5061051461050f366004613858565b611f23565b6040516102b596959493929190613d32565b34801561053257600080fd5b50610546610541366004613b78565b612016565b6040516102b59190613d77565b34801561055f57600080fd5b506102de61056e366004613dbb565b612082565b34801561057f57600080fd5b506102de61058e366004613b78565b6001600160a01b031660009081526004602052604090205490565b3480156105b557600080fd5b506102de600a5481565b3480156105cb57600080fd5b50600b546102de565b3480156105e057600080fd5b50600c54610453906001600160a01b031681565b34801561060057600080fd5b5061061461060f366004613858565b612386565b6040516102b59b9a99989796959493929190613e3a565b34801561063757600080fd5b506102de610646366004613b78565b60056020526000908152604090205481565b34801561066457600080fd5b506102de610673366004613eb6565b61253f565b34801561068457600080fd5b506102de610693366004613b78565b60046020526000908152604090205481565b3480156106b157600080fd5b506106c56106c0366004613858565b612980565b6040516102b59c9b9a99989796959493929190613f17565b3480156106e957600080fd5b506105146106f8366004613b78565b612b8a565b34801561070957600080fd5b506102de610718366004613fb3565b612bea565b34801561072957600080fd5b5061073d610738366004613858565b612f54565b604080519586526020860194909452928401919091526060830152608082015260a0016102b5565b34801561077157600080fd5b50600e54610453906001600160a01b031681565b34801561079157600080fd5b506102de6107a0366004614043565b613004565b3480156107b157600080fd5b506107c56107c0366004613858565b613035565b6040516102b59b9a9998979695949392919061406d565b3480156107e857600080fd5b506107fc6107f7366004613858565b613277565b6040516102b59d9c9b9a999897969594939291906140fc565b34801561082157600080fd5b506102de60085481565b34801561083757600080fd5b506127116102de565b34801561084c57600080fd5b506108b561085b366004613858565b60066020819052600091825260409091208054600182015460028301546003840154600485015460058601549686015460078701546008909701549597949693959294919391926001600160a01b03909116919060ff1689565b60408051998a5260208a0198909852968801959095526060870193909352608086019190915260a08501526001600160a01b031660c084015260e08301521515610100820152610120016102b5565b34801561091057600080fd5b5061051461091f366004613b78565b613402565b600081815260066020819052604090912001546001600160a01b0316331461099f5760405162461bcd60e51b815260206004820152602360248201527f4f6e6c7920636c61696d616e742063616e206d61726b206173206465637279706044820152621d195960ea1b60648201526084015b60405180910390fd5b60008181526006602052604090206008015460ff166109f65760405162461bcd60e51b8152602060048201526013602482015272436c61696d206973206e6f742061637469766560681b6044820152606401610996565b604051339082907faa7324ada1ab84655c9ef0ae2f2a0f13f240ca11235d1f1d161dd08e83f4a37390600090a350565b600d546001600160a01b03163314610a8a5760405162461bcd60e51b815260206004820152602160248201527f4f6e6c792076657269666965722063616e2076657269667920706f6c696369656044820152607360f81b6064820152608401610996565b6000828152602081905260409020600801546001600160a01b0316610ae95760405162461bcd60e51b8152602060048201526015602482015274141bdb1a58de48191bd95cc81b9bdd08195e1a5cdd605a1b6044820152606401610996565b60009182526020829052604090912060050180549115156101000261ff0019909216919091179055565b600260208190526000918252604090912080546001820154928201546003830154600484018054939594929360ff9092169291610b4f90614199565b80601f0160208091040260200160405190810160405280929190818152602001828054610b7b90614199565b8015610bc85780601f10610b9d57610100808354040283529160200191610bc8565b820191906000526020600020905b815481529060010190602001808311610bab57829003601f168201915b50505050600583015460069093015491926001600160a01b031691905087565b600080885111610c0a5760405162461bcd60e51b8152600401610996906141d3565b60008411610c2a5760405162461bcd60e51b81526004016109969061420a565b6008805460009182610c3b83614257565b9190505590506000610c838886868080601f0160208091040260200160405190810160405280939291908181526020018383808284376000920191909152506134d092505050565b90506000610cc78887878080601f0160208091040260200160405190810160405280939291908181526020018383808284376000920191909152506134d092505050565b9050604051806101a00160405280610cde856134e7565b8152602001838152602001828152602001610cf9600a6134e7565b8152602001610d0860006134e7565b81526001602082015260006040820152606081018d9052608081018c90523360a08201523060c08201524260e0820181905261010090910190610d4c908a90614270565b90526000848152602081815260409182902083518155908301516001820155908201516002820155606082015160038201556080820151600482015560a082015160058201805460c085015115156101000261ff00199315159390931661ffff199091161791909117905560e08201516006820190610dcb90826142d4565b506101008201516007820190610de190826142d4565b506101208201516008820180546001600160a01b039283166001600160a01b031991821617909155610140840151600984018054919093169116179055610160820151600a82015561018090910151600b90910155600083815260208190526040902060010154610e51906134fa565b50600083815260208190526040902060020154610e6d906134fa565b50600083815260208190526040902060040154610e89906134fa565b50600083815260208190526040902060010154610ea6903361350a565b50600083815260208190526040902060020154610ec3903361350a565b50600083815260208190526040902060040154610ee0903361350a565b50336001600160a01b0316837f21d0178f0cde2aed24022db30651dabafb4bbe431fb787fbc92113304d8e35498d604051610f1b9190614394565b60405180910390a350909998505050505050505050565b600d546001600160a01b03163314610f8c5760405162461bcd60e51b815260206004820152601d60248201527f4f6e6c792076657269666965722063616e20617373657373207269736b0000006044820152606401610996565b6001600160a01b038516610fe25760405162461bcd60e51b815260206004820152601c60248201527f496e76616c696420706f6c696379686f6c6465722061646472657373000000006044820152606401610996565b60006110248584848080601f0160208091040260200160405190810160405280939291908181526020018383808284376000920191909152506134d092505050565b9050600061103260026134e7565b6040805160c08101825284815260208082018481526001838501818152606085018c81523360808701524260a08701526001600160a01b038f16600090815260039586905296909620855181559251918301919091555160028201805460ff191691151591909117905592519394509092908201906110b190826142d4565b5060808201516004820180546001600160a01b0319166001600160a01b0392831617905560a09092015160059091015587166000908152600360205260409020546110fb906134fa565b506001600160a01b038716600090815260036020526040902060010154611121906134fa565b506001600160a01b038716600090815260036020526040902054611145908861350a565b506001600160a01b03871660009081526003602052604090206001015461116c908861350a565b506040805160008152600160208201526001600160a01b038916917f1ef7fd80e21f3c38933a6346a8c915f88db9aea8126a6b01825f1bdae1f785d9910160405180910390a250505050505050565b6000818152600260205260409020600501546001600160a01b031633146112245760405162461bcd60e51b815260206004820152601d60248201527f4f6e6c792062656e65666963696172792063616e2077697468647261770000006044820152606401610996565b60008181526002602052604090206003015460ff166112855760405162461bcd60e51b815260206004820152601c60248201527f536574746c656d656e74206d75737420626520636f6d706c65746564000000006044820152606401610996565b6000908152600260205260409020600301805460ff19166001179055565b6000818152600660208190526040822001546001600160a01b03166112da5760405162461bcd60e51b8152600401610996906143a7565b600082815260066020819052604090912001546001600160a01b031633146113145760405162461bcd60e51b8152600401610996906143d5565b5060009081526006602052604090206002015490565b600e546001600160a01b031633146113935760405162461bcd60e51b815260206004820152602660248201527f4f6e6c792061646a75737465722063616e20636f6d706c65746520736574746c604482015265656d656e747360d01b6064820152608401610996565b6000828152600260205260409020600501546001600160a01b03166113fa5760405162461bcd60e51b815260206004820152601960248201527f536574746c656d656e7420646f6573206e6f74206578697374000000000000006044820152606401610996565b60008281526002602052604090206003015460ff161561145c5760405162461bcd60e51b815260206004820152601c60248201527f536574746c656d656e7420616c726561647920636f6d706c65746564000000006044820152606401610996565b600082815260026020526040902060038101805460ff1916600117905560040161148682826142d4565b506000828152600260205260408082204260068201556005015490516001600160a01b03909116919084907fefea8d85753e9071e1b815c2c617dd6757dca98eb83158c16af00672ee0b9932908390a45050565b6000878152602081905260408120600801546001600160a01b0316331461154f5760405162461bcd60e51b815260206004820152602360248201527f4f6e6c7920706f6c696379686f6c6465722063616e207375626d697420636c61604482015262696d7360e81b6064820152608401610996565b60008881526020819052604090206005015460ff166115a85760405162461bcd60e51b8152602060048201526015602482015274506f6c696379206d7573742062652061637469766560581b6044820152606401610996565b6000888152602081905260409020600b01544211156115fe5760405162461bcd60e51b8152602060048201526012602482015271141bdb1a58de481a185cc8195e1c1a5c995960721b6044820152606401610996565b600980546000918261160f83614257565b91905055905060006116578986868080601f0160208091040260200160405190810160405280939291908181526020018383808284376000920191909152506134d092505050565b905060405180610180016040528061166e846134e7565b81526020018281526020016116828c6134e7565b815260006020808301829052604080840183905260608085018e905260808086018e905260a08087018e90523360c088015260e0870186905242610100808901919091526101209097018690528986526001808652958490208851815594880151958501959095559186015160028401558501516003830180549287015161ffff1990931691151561ff0019169190911791151590940217909255820151600482019061172f90826142d4565b5060c0820151600582019061174490826142d4565b5060e0820151600682019061175990826142d4565b506101008201516007820180546001600160a01b039283166001600160a01b031991821617909155610120840151600884018054919093169116179055610140820151600982015561016090910151600a90910155600082815260016020819052604090912001546117ca906134fa565b506000828152600160205260409020600201546117e6906134fa565b5060008281526001602081905260409091200154611804903361350a565b50600082815260016020526040902060020154611821903361350a565b5060008a8152602081905260409020600401546118479061184260016134e7565b61351d565b60008b81526020819052604080822060040192909255905133918c9185917f9fe11e531030a058803617055e27f9f4768236e4322e13b9c4c09f4338e23a6891a45098975050505050505050565b6000818152602081905260409020600801546001600160a01b031633146119085760405162461bcd60e51b815260206004820152602160248201527f4f6e6c7920706f6c696379686f6c6465722063616e20706179207072656d69756044820152606d60f81b6064820152608401610996565b60008181526020819052604090206005015460ff166119615760405162461bcd60e51b8152602060048201526015602482015274506f6c696379206d7573742062652061637469766560581b6044820152606401610996565b600034116119815760405162461bcd60e51b81526004016109969061441c565b50565b600e546000906001600160a01b031633146119e15760405162461bcd60e51b815260206004820181905260248201527f4f6e6c792061646a75737465722063616e2070726f6365737320636c61696d736044820152606401610996565b6000868152600160205260409020600701546001600160a01b0316611a185760405162461bcd60e51b8152600401610996906143a7565b600086815260016020526040902060030154610100900460ff1615611a7f5760405162461bcd60e51b815260206004820152601760248201527f436c61696d20616c72656164792070726f6365737365640000000000000000006044820152606401610996565b600086815260016020526040812060038101805461ff0019891580159190911661ffff1990921691909117610100179091556008820180546001600160a01b0319163317905542600a90920191909155611cc757600a8054906000611ae383614257565b9190505590506000611b2b8686868080601f0160208091040260200160405190810160405280939291908181526020018383808284376000920191909152506134d092505050565b90506040518060e00160405280611b41846134e7565b8152602001611b4f8a6134e7565b8152602080820184905260006040808401829052805180840182528281526060808601919091528d83526001808552828420600701546001600160a01b031660808088019190915260a0909601849052888452600280865293839020875181559487015190850155908501519183019190915583015160038201805460ff1916911515919091179055908201516004820190611beb90826142d4565b5060a08201516005820180546001600160a01b0319166001600160a01b0390921691909117905560c09091015160069091015560008281526002602081905260409091200154611c3a906134fa565b50600082815260026020526040902060010154611c56906134fa565b506000828152600260208181526040808420909201548b84526001909152912060070154611c8d91906001600160a01b031661350a565b5060008281526002602090815260408083206001908101548c8552925290912060070154611cc491906001600160a01b031661350a565b50505b6040805187151581526000602082015288917f2b9c0ffbed8895983b11e6bb3b18dc85a60900f9af24a06fa36a9a6eca895815910160405180910390a290505b95945050505050565b600d546001600160a01b03163314611d765760405162461bcd60e51b815260206004820152602360248201527f4f6e6c792076657269666965722063616e20757064617465207265707574617460448201526234b7b760e91b6064820152608401610996565b6001600160a01b038416611dc35760405162461bcd60e51b8152602060048201526014602482015273496e76616c69642075736572206164647265737360601b6044820152606401610996565b6000611e058484848080601f0160208091040260200160405190810160405280939291908181526020018383808284376000920191909152506134d092505050565b9050846001600160a01b03166000806001600854611e239190614453565b81526020810191909152604001600020600801546001600160a01b031603611e93576001600160a01b0385166000908152600460205260409020819055611e69816134fa565b506001600160a01b038516600090815260046020526040902054611e8d908661350a565b50611edd565b6001600160a01b0385166000908152600560205260409020819055611eb7816134fa565b506001600160a01b038516600090815260056020526040902054611edb908661350a565b505b604051600081526001600160a01b038616907fbc29a8e6655836a9c09ee2d874d0ec6df064e0b7d9d9dd0f097ad3f2874ed9869060200160405180910390a25050505050565b60008181526002602081905260408220600181015491810154600382015460058301546006840154600485018054889788976060978997889792969395919460ff9091169391926001600160a01b031691908390611f8090614199565b80601f0160208091040260200160405190810160405280929190818152602001828054611fac90614199565b8015611ff95780601f10611fce57610100808354040283529160200191611ff9565b820191906000526020600020905b815481529060010190602001808311611fdc57829003601f168201915b505050505092509650965096509650965096505091939550919395565b6001600160a01b03811660009081526007602090815260409182902080548351818402810184019094528084526060939283018282801561207657602002820191906000526020600020905b815481526020019060010190808311612062575b50505050509050919050565b6000808651116120a45760405162461bcd60e51b8152600401610996906141d3565b600082116120c45760405162461bcd60e51b81526004016109969061420a565b600084116120e45760405162461bcd60e51b81526004016109969061441c565b600083116121345760405162461bcd60e51b815260206004820181905260248201527f436f76657261676520616d6f756e74206d75737420626520706f7369746976656044820152606401610996565b600880546000918261214583614257565b919050559050604051806101a00160405280612160836134e7565b815260200161216e876134e7565b815260200161217c866134e7565b815260200161218b600a6134e7565b815260200161219a60006134e7565b8152600160208201819052604082015260608101899052608081018890523360a08201523060c08201524260e08201819052610100909101906121de908690614270565b90526000828152602081815260409182902083518155908301516001820155908201516002820155606082015160038201556080820151600482015560a082015160058201805460c085015115156101000261ff00199315159390931661ffff199091161791909117905560e0820151600682019061225d90826142d4565b50610100820151600782019061227390826142d4565b506101208201516008820180546001600160a01b039283166001600160a01b031991821617909155610140840151600984018054919093169116179055610160820151600a82015561018090910151600b909101556000818152602081905260409020600101546122e3906134fa565b50600081815260208190526040902060010154612300903361350a565b5060008181526020819052604090206002015461231c906134fa565b50600081815260208190526040902060020154612339903361350a565b50336001600160a01b0316817f21d0178f0cde2aed24022db30651dabafb4bbe431fb787fbc92113304d8e3549896040516123749190614394565b60405180910390a39695505050505050565b6000818152602081905260408120600181015460028201546004830154600584015460088501546009860154600a870154600b88015460068901805460609b8c9b909a8b9a8b9a8b9a8b9a8b9a8b9a8b9a8b9a989960078b019897969560ff8082169661010090920416946001600160a01b039182169491169290918b9061240d90614199565b80601f016020809104026020016040519081016040528092919081815260200182805461243990614199565b80156124865780601f1061245b57610100808354040283529160200191612486565b820191906000526020600020905b81548152906001019060200180831161246957829003601f168201915b50505050509a5089805461249990614199565b80601f01602080910402602001604051908101604052809291908181526020018280546124c590614199565b80156125125780601f106124e757610100808354040283529160200191612512565b820191906000526020600020905b8154815290600101906020018083116124f557829003601f168201915b505050505099509b509b509b509b509b509b509b509b509b509b509b505091939597999b90929496989a50565b600b80546000918291908261255383614257565b919050559050600061259b8a86868080601f01602080910402602001604051908101604052809392919081815260200183838082843760009201919091525061354f92505050565b905060006125df8a87878080601f0160208091040260200160405190810160405280939291908181526020018383808284376000920191909152506134d092505050565b905060006126238a88888080601f0160208091040260200160405190810160405280939291908181526020018383808284376000920191909152506134d092505050565b905060006126678a89898080601f0160208091040260200160405190810160405280939291908181526020018383808284376000920191909152506134d092505050565b905060006126ab8a8a8a8080601f0160208091040260200160405190810160405280939291908181526020018383808284376000920191909152506134d092505050565b9050604051806101200160405280878152602001868152602001858152602001848152602001838152602001828152602001336001600160a01b031681526020014281526020016001151581525060066000888152602001908152602001600020600082015181600001556020820151816001015560408201518160020155606082015181600301556080820151816004015560a0820151816005015560c08201518160060160006101000a8154816001600160a01b0302191690836001600160a01b0316021790555060e082015181600701556101008201518160080160006101000a81548160ff02191690831515021790555090505060076000336001600160a01b03166001600160a01b0316815260200190815260200160002086908060018154018082558091505060019003906000526020600020016000909190919091505561280e60066000888152602001908152602001600020600201546134fa565b5060008681526006602052604090206002015461282b903361350a565b50600086815260066020526040902060010154612847906134fa565b50600086815260066020526040902060010154612864903361350a565b50600086815260066020526040902060030154612880906134fa565b5060008681526006602052604090206003015461289d903361350a565b506000868152600660205260409020600401546128b9906134fa565b506000868152600660205260409020600401546128d6903361350a565b506000868152600660205260409020600501546128f2906134fa565b5060008681526006602052604090206005015461290f903361350a565b50336001600160a01b0316867ff47cb144d57e1368191d1eb3128105958679a0866070b8ff2aa2c464ed8ed38160405161296690602080825260099082015268195b98dc9e5c1d195960ba1b604082015260600190565b60405180910390a350939c9b505050505050505050505050565b6001602081905260009182526040909120805491810154600282015460038301546004840180549394929360ff80841694610100909404169291906129c490614199565b80601f01602080910402602001604051908101604052809291908181526020018280546129f090614199565b8015612a3d5780601f10612a1257610100808354040283529160200191612a3d565b820191906000526020600020905b815481529060010190602001808311612a2057829003601f168201915b505050505090806005018054612a5290614199565b80601f0160208091040260200160405190810160405280929190818152602001828054612a7e90614199565b8015612acb5780601f10612aa057610100808354040283529160200191612acb565b820191906000526020600020905b815481529060010190602001808311612aae57829003601f168201915b505050505090806006018054612ae090614199565b80601f0160208091040260200160405190810160405280929190818152602001828054612b0c90614199565b8015612b595780601f10612b2e57610100808354040283529160200191612b59565b820191906000526020600020905b815481529060010190602001808311612b3c57829003601f168201915b50505050600783015460088401546009850154600a9095015493946001600160a01b0392831694929091169250908c565b6001600160a01b03808216600090815260036020819052604082208054600182015460028301546004840154600585015495850180549798899889986060988a98899891979096919560ff909116949093911691908390611f8090614199565b600080865111612c0c5760405162461bcd60e51b8152600401610996906141d3565b60008211612c2c5760405162461bcd60e51b81526004016109969061420a565b60008411612c4c5760405162461bcd60e51b81526004016109969061441c565b60008311612c9c5760405162461bcd60e51b815260206004820181905260248201527f436f76657261676520616d6f756e74206d75737420626520706f7369746976656044820152606401610996565b6001600160a01b038716612cf25760405162461bcd60e51b815260206004820152601c60248201527f496e76616c696420706f6c696379686f6c6465722061646472657373000000006044820152606401610996565b6008805460009182612d0383614257565b919050559050604051806101a00160405280612d1e836134e7565b8152602001612d2c876134e7565b8152602001612d3a866134e7565b8152602001612d49600a6134e7565b8152602001612d5860006134e7565b8152602001600115158152602001600115158152602001888152602001878152602001896001600160a01b03168152602001306001600160a01b031681526020014281526020018442612dab9190614270565b90526000828152602081815260409182902083518155908301516001820155908201516002820155606082015160038201556080820151600482015560a082015160058201805460c085015115156101000261ff00199315159390931661ffff199091161791909117905560e08201516006820190612e2a90826142d4565b506101008201516007820190612e4090826142d4565b506101208201516008820180546001600160a01b039283166001600160a01b031991821617909155610140840151600984018054919093169116179055610160820151600a82015561018090910151600b90910155600081815260208190526040902060010154612eb0906134fa565b50600081815260208190526040902060010154612ecd908961350a565b50600081815260208190526040902060020154612ee9906134fa565b50600081815260208190526040902060020154612f06908961350a565b50876001600160a01b0316817f21d0178f0cde2aed24022db30651dabafb4bbe431fb787fbc92113304d8e354989604051612f419190614394565b60405180910390a3979650505050505050565b60008181526006602081905260408220015481908190819081906001600160a01b0316612f935760405162461bcd60e51b8152600401610996906143a7565b600086815260066020819052604090912001546001600160a01b03163314612fcd5760405162461bcd60e51b8152600401610996906143d5565b5050506000928352505060066020526040902060018101546002820154600383015460048401546005909401549294919390929091565b6007602052816000526040600020818154811061302057600080fd5b90600052602060002001600091509150505481565b600081815260016020819052604082209081015460028201546003830154600784015460088501546009860154600a8701546004880180548a998a998a996060998a998a998d998a998a998a9960ff8088169761010090041695919460058b019460068c01946001600160a01b03948516949092169290919087906130b990614199565b80601f01602080910402602001604051908101604052809291908181526020018280546130e590614199565b80156131325780601f1061310757610100808354040283529160200191613132565b820191906000526020600020905b81548152906001019060200180831161311557829003601f168201915b5050505050965085805461314590614199565b80601f016020809104026020016040519081016040528092919081815260200182805461317190614199565b80156131be5780601f10613193576101008083540402835291602001916131be565b820191906000526020600020905b8154815290600101906020018083116131a157829003601f168201915b505050505095508480546131d190614199565b80601f01602080910402602001604051908101604052809291908181526020018280546131fd90614199565b801561324a5780601f1061321f5761010080835404028352916020019161324a565b820191906000526020600020905b81548152906001019060200180831161322d57829003601f168201915b505050505094509b509b509b509b509b509b509b509b509b509b509b505091939597999b90929496989a50565b60006020819052908152604090208054600182015460028301546003840154600485015460058601546006870180549697959694959394929360ff8084169461010090940416929091906132ca90614199565b80601f01602080910402602001604051908101604052809291908181526020018280546132f690614199565b80156133435780601f1061331857610100808354040283529160200191613343565b820191906000526020600020905b81548152906001019060200180831161332657829003601f168201915b50505050509080600701805461335890614199565b80601f016020809104026020016040519081016040528092919081815260200182805461338490614199565b80156133d15780601f106133a6576101008083540402835291602001916133d1565b820191906000526020600020905b8154815290600101906020018083116133b457829003601f168201915b5050505060088301546009840154600a850154600b9095015493946001600160a01b0392831694929091169250908d565b600360208190526000918252604090912080546001820154600283015493830180549294919360ff9092169261343790614199565b80601f016020809104026020016040519081016040528092919081815260200182805461346390614199565b80156134b05780601f10613485576101008083540402835291602001916134b0565b820191906000526020600020905b81548152906001019060200180831161349357829003601f168201915b50505050600483015460059093015491926001600160a01b031691905086565b60006134de83836004613559565b90505b92915050565b60006134e18263ffffffff166004613670565b6000613506823061371f565b5090565b6000613516838361371f565b5090919050565b6000826135315761352e60006134e7565b92505b816135435761354060006134e7565b91505b6134de8383600061379c565b60006134de838360025b7f9e7b61f58c47dc699ac88507c4f5bb9f121c03808c5676a8078fe583e46497015460405163196d0b9b60e01b81526000916000805160206144f6833981519152916001600160a01b039091169063196d0b9b906135c1908890339089908990600401614488565b6020604051808303816000875af11580156135e0573d6000803e3d6000fd5b505050506040513d601f19601f8201168201806040525081019061360491906144c1565b8154604051630f8e573b60e21b8152600481018390523360248201529193506001600160a01b031690633e395cec90604401600060405180830381600087803b15801561365057600080fd5b505af1158015613664573d6000803e3d6000fd5b50505050509392505050565b7f9e7b61f58c47dc699ac88507c4f5bb9f121c03808c5676a8078fe583e464970154604051639cd07acb60e01b81526000916000805160206144f6833981519152916001600160a01b0390911690639cd07acb906136d490879087906004016144da565b6020604051808303816000875af11580156136f3573d6000803e3d6000fd5b505050506040513d601f19601f8201168201806040525081019061371791906144c1565b949350505050565b60006000805160206144f68339815191528054604051635ca4b5b160e11b8152600481018690526001600160a01b03858116602483015292935091169063b9496b6290604401600060405180830381600087803b15801561377f57600080fd5b505af1158015613793573d6000803e3d6000fd5b50505050505050565b60008082156137b05750600160f81b6137b4565b5060005b60006000805160206144f6833981519152600181015460405163022f65e760e31b815260048101899052602481018890526001600160f81b0319851660448201529192506001600160a01b03169063117b2f38906064016020604051808303816000875af115801561382a573d6000803e3d6000fd5b505050506040513d601f19601f8201168201806040525081019061384e91906144c1565b9695505050505050565b60006020828403121561386a57600080fd5b5035919050565b8035801515811461388157600080fd5b919050565b6000806040838503121561389957600080fd5b823591506138a960208401613871565b90509250929050565b6000815180845260005b818110156138d8576020818501810151868301820152016138bc565b506000602082860101526020601f19601f83011685010191505092915050565b878152866020820152856040820152841515606082015260e06080820152600061392560e08301866138b2565b6001600160a01b039490941660a08301525060c0015295945050505050565b634e487b7160e01b600052604160045260246000fd5b600082601f83011261396b57600080fd5b813567ffffffffffffffff8082111561398657613986613944565b604051601f8301601f19908116603f011681019082821181831017156139ae576139ae613944565b816040528381528660208588010111156139c757600080fd5b836020870160208301376000602085830101528094505050505092915050565b60008083601f8401126139f957600080fd5b50813567ffffffffffffffff811115613a1157600080fd5b602083019150836020828501011115613a2957600080fd5b9250929050565b600080600080600080600060c0888a031215613a4b57600080fd5b873567ffffffffffffffff80821115613a6357600080fd5b613a6f8b838c0161395a565b985060208a0135915080821115613a8557600080fd5b613a918b838c0161395a565b975060408a0135965060608a0135955060808a0135945060a08a0135915080821115613abc57600080fd5b50613ac98a828b016139e7565b989b979a50959850939692959293505050565b80356001600160a01b038116811461388157600080fd5b600080600080600060808688031215613b0b57600080fd5b613b1486613adc565b945060208601359350604086013567ffffffffffffffff80821115613b3857600080fd5b613b4489838a0161395a565b94506060880135915080821115613b5a57600080fd5b50613b67888289016139e7565b969995985093965092949392505050565b600060208284031215613b8a57600080fd5b6134de82613adc565b60008060408385031215613ba657600080fd5b82359150602083013567ffffffffffffffff811115613bc457600080fd5b613bd08582860161395a565b9150509250929050565b600080600080600080600060c0888a031215613bf557600080fd5b8735965060208801359550604088013567ffffffffffffffff80821115613c1b57600080fd5b613c278b838c0161395a565b965060608a0135915080821115613c3d57600080fd5b613c498b838c0161395a565b955060808a0135915080821115613c5f57600080fd5b613c6b8b838c0161395a565b945060a08a0135915080821115613abc57600080fd5b600080600080600060808688031215613c9957600080fd5b85359450613ca960208701613871565b935060408601359250606086013567ffffffffffffffff811115613ccc57600080fd5b613b67888289016139e7565b60008060008060608587031215613cee57600080fd5b613cf785613adc565b935060208501359250604085013567ffffffffffffffff811115613d1a57600080fd5b613d26878288016139e7565b95989497509550505050565b868152856020820152841515604082015260c060608201526000613d5960c08301866138b2565b6001600160a01b039490941660808301525060a00152949350505050565b6020808252825182820181905260009190848201906040850190845b81811015613daf57835183529284019291840191600101613d93565b50909695505050505050565b600080600080600060a08688031215613dd357600080fd5b853567ffffffffffffffff80821115613deb57600080fd5b613df789838a0161395a565b96506020880135915080821115613e0d57600080fd5b50613e1a8882890161395a565b959895975050505060408401359360608101359360809091013592509050565b6000610160808352613e4e8184018f6138b2565b90508281036020840152613e62818e6138b2565b604084019c909c5250506060810198909852608088019690965293151560a087015291151560c08601526001600160a01b0390811660e0860152166101008401526101208301526101409091015292915050565b600080600080600080600060c0888a031215613ed157600080fd5b873596506020880135955060408801359450606088013593506080880135925060a088013567ffffffffffffffff811115613f0b57600080fd5b613ac98a828b016139e7565b60006101808e83528d60208401528c60408401528b151560608401528a151560808401528060a0840152613f4d8184018b6138b2565b905082810360c0840152613f61818a6138b2565b905082810360e0840152613f7581896138b2565b6001600160a01b0388811661010086015287166101208501529150613f979050565b61014082019390935261016001529a9950505050505050505050565b60008060008060008060c08789031215613fcc57600080fd5b613fd587613adc565b9550602087013567ffffffffffffffff80821115613ff257600080fd5b613ffe8a838b0161395a565b9650604089013591508082111561401457600080fd5b5061402189828a0161395a565b945050606087013592506080870135915060a087013590509295509295509295565b6000806040838503121561405657600080fd5b61405f83613adc565b946020939093013593505050565b60006101608d83528c60208401528b151560408401528a1515606084015280608084015261409d8184018b6138b2565b905082810360a08401526140b1818a6138b2565b905082810360c08401526140c581896138b2565b6001600160a01b0397881660e085015295909616610100830152506101208101929092526101409091015298975050505050505050565b60006101a08f83528e60208401528d60408401528c60608401528b60808401528a151560a084015289151560c08401528060e084015261413e8184018a6138b2565b905082810361010084015261415381896138b2565b91505061416c6101208301876001600160a01b03169052565b6001600160a01b03851661014083015261016082019390935261018001529b9a5050505050505050505050565b600181811c908216806141ad57607f821691505b6020821081036141cd57634e487b7160e01b600052602260045260246000fd5b50919050565b6020808252601b908201527f506f6c69637920747970652063616e6e6f7420626520656d7074790000000000604082015260600190565b60208082526019908201527f4475726174696f6e206d75737420626520706f73697469766500000000000000604082015260600190565b634e487b7160e01b600052601160045260246000fd5b60006001820161426957614269614241565b5060010190565b808201808211156134e1576134e1614241565b601f8211156142cf576000816000526020600020601f850160051c810160208610156142ac5750805b601f850160051c820191505b818110156142cb578281556001016142b8565b5050505b505050565b815167ffffffffffffffff8111156142ee576142ee613944565b614302816142fc8454614199565b84614283565b602080601f831160018114614337576000841561431f5750858301515b600019600386901b1c1916600185901b1785556142cb565b600085815260208120601f198616915b8281101561436657888601518255948401946001909101908401614347565b50858210156143845787850151600019600388901b60f8161c191681555b5050505050600190811b01905550565b6020815260006134de60208301846138b2565b60208082526014908201527310db185a5b48191bd95cc81b9bdd08195e1a5cdd60621b604082015260600190565b60208082526027908201527f4f6e6c7920636c61696d616e742063616e2061636365737320656e63727970746040820152666564206461746160c81b606082015260800190565b6020808252601f908201527f5072656d69756d20616d6f756e74206d75737420626520706f73697469766500604082015260600190565b818103818111156134e1576134e1614241565b6054811061448457634e487b7160e01b600052602160045260246000fd5b9052565b8481526001600160a01b03841660208201526080604082018190526000906144b2908301856138b2565b9050611d076060830184614466565b6000602082840312156144d357600080fd5b5051919050565b828152604081016144ee6020830184614466565b939250505056fe9e7b61f58c47dc699ac88507c4f5bb9f121c03808c5676a8078fe583e4649700a26469706673582212205e121fed2b413e77c04083d611ac5ed7afaf53d63b9ed1d4a240d32aa7a0a05264736f6c63430008180033",
  "linkReferences": {},
  "deployedLinkReferences": {}
}