{
  "_format": "hh-sol-artifact-1",
  "contractName": "CipherPolicyHub",
  "sourceName": "contracts/CipherPolicyHub.sol",
  "abi": [
    {
      "inputs": [
        {
          "internalType": "address",
          "name": "_verifier",
          "type": "address"
        },
        {
          "internalType": "address",
          "name": "_adjuster",
          "type": "address"
        }
      ],
      "stateMutability": "nonpayable",
      "type": "constructor"
    },
    {
      "anonymous": false,
      "inputs": [
        {
          "indexed": true,
          "internalType": "uint256",
          "name": "claimId",
          "type": "uint256"
        },
        {
          "indexed": true,
          "internalType": "address",
          "name": "claimant",
          "type": "address"
        }
      ],
      "name": "ClaimDecrypted",
      "type": "event"
    },
    {
      "anonymous": false,
      "inputs": [
        {
          "indexed": true,
          "internalType": "uint256",
          "name": "claimId",
          "type": "uint256"
        },
        {
          "indexed": false,
          "internalType": "bool",
          "name": "isApproved",
          "type": "bool"
        },
        {
          "indexed": false,
          "internalType": "uint32",
          "name": "settlementAmount",
          "type": "uint32"
        }
      ],
      "name": "ClaimProcessed",
      "type": "event"
    },
    {
      "anonymous": false,
      "inputs": [
        {
          "indexed": true,
          "internalType": "uint256",
          "name": "claimId",
          "type": "uint256"
        },
        {
          "indexed": true,
          "internalType": "uint256",
          "name": "policyId",
          "type": "uint256"
        },
        {
          "indexed": true,
          "internalType": "address",
          "name": "claimant",
          "type": "address"
        }
      ],
      "name": "ClaimSubmitted",
      "type": "event"
    },
    {
      "anonymous": false,
      "inputs": [
        {
          "indexed": true,
          "internalType": "uint256",
          "name": "policyId",
          "type": "uint256"
        },
        {
          "indexed": true,
          "internalType": "address",
          "name": "policyholder",
          "type": "address"
        },
        {
          "indexed": false,
          "internalType": "string",
          "name": "policyType",
          "type": "string"
        }
      ],
      "name": "PolicyCreated",
      "type": "event"
    },
    {
      "anonymous": false,
      "inputs": [
        {
          "indexed": true,
          "internalType": "address",
          "name": "user",
          "type": "address"
        },
        {
          "indexed": false,
          "internalType": "uint32",
          "name": "reputation",
          "type": "uint32"
        }
      ],
      "name": "ReputationUpdated",
      "type": "event"
    },
    {
      "anonymous": false,
      "inputs": [
        {
          "indexed": true,
          "internalType": "address",
          "name": "policyholder",
          "type": "address"
        },
        {
          "indexed": false,
          "internalType": "uint32",
          "name": "riskScore",
          "type": "uint32"
        },
        {
          "indexed": false,
          "internalType": "bool",
          "name": "isVerified",
          "type": "bool"
        }
      ],
      "name": "RiskAssessed",
      "type": "event"
    },
    {
      "anonymous": false,
      "inputs": [
        {
          "indexed": true,
          "internalType": "uint256",
          "name": "settlementId",
          "type": "uint256"
        },
        {
          "indexed": true,
          "internalType": "uint256",
          "name": "claimId",
          "type": "uint256"
        },
        {
          "indexed": true,
          "internalType": "address",
          "name": "beneficiary",
          "type": "address"
        }
      ],
      "name": "SettlementCompleted",
      "type": "event"
    },
    {
      "anonymous": false,
      "inputs": [
        {
          "indexed": true,
          "internalType": "uint256",
          "name": "claimId",
          "type": "uint256"
        },
        {
          "indexed": true,
          "internalType": "address",
          "name": "claimant",
          "type": "address"
        },
        {
          "indexed": false,
          "internalType": "string",
          "name": "claimType",
          "type": "string"
        }
      ],
      "name": "SimpleClaimSubmitted",
      "type": "event"
    },
    {
      "inputs": [],
      "name": "adjuster",
      "outputs": [
        {
          "internalType": "address",
          "name": "",
          "type": "address"
        }
      ],
      "stateMutability": "view",
      "type": "function"
    },
    {
      "inputs": [
        {
          "internalType": "address",
          "name": "policyholder",
          "type": "address"
        },
        {
          "internalType": "externalEuint32",
          "name": "riskScore",
          "type": "bytes32"
        },
        {
          "internalType": "string",
          "name": "assessmentHash",
          "type": "string"
        },
        {
          "internalType": "bytes",
          "name": "inputProof",
          "type": "bytes"
        }
      ],
      "name": "assessRisk",
      "outputs": [],
      "stateMutability": "nonpayable",
      "type": "function"
    },
    {
      "inputs": [],
      "name": "claimCounter",
      "outputs": [
        {
          "internalType": "uint256",
          "name": "",
          "type": "uint256"
        }
      ],
      "stateMutability": "view",
      "type": "function"
    },
    {
      "inputs": [
        {
          "internalType": "uint256",
          "name": "",
          "type": "uint256"
        }
      ],
      "name": "claims",
      "outputs": [
        {
          "internalType": "euint32",
          "name": "claimId",
          "type": "bytes32"
        },
        {
          "internalType": "euint32",
          "name": "claimAmount",
          "type": "bytes32"
        },
        {
          "internalType": "euint32",
          "name": "policyId",
          "type": "bytes32"
        },
        {
          "internalType": "bool",
          "name": "isApproved",
          "type": "bool"
        },
        {
          "internalType": "bool",
          "name": "isProcessed",
          "type": "bool"
        },
        {
          "internalType": "string",
          "name": "claimType",
          "type": "string"
        },
        {
          "internalType": "string",
          "name": "description",
          "type": "string"
        },
        {
          "internalType": "string",
          "name": "evidenceHash",
          "type": "string"
        },
        {
          "internalType": "address",
          "name": "claimant",
          "type": "address"
        },
        {
          "internalType": "address",
          "name": "adjuster",
          "type": "address"
        },
        {
          "internalType": "uint256",
          "name": "submissionDate",
          "type": "uint256"
        },
        {
          "internalType": "uint256",
          "name": "processingDate",
          "type": "uint256"
        }
      ],
      "stateMutability": "view",
      "type": "function"
    },
    {
      "inputs": [
        {
          "internalType": "uint256",
          "name": "settlementId",
          "type": "uint256"
        },
        {
          "internalType": "string",
          "name": "settlementHash",
          "type": "string"
        }
      ],
      "name": "completeSettlement",
      "outputs": [],
      "stateMutability": "nonpayable",
      "type": "function"
    },
    {
      "inputs": [
        {
          "internalType": "string",
          "name": "_policyType",
          "type": "string"
        },
        {
          "internalType": "string",
          "name": "_description",
          "type": "string"
        },
        {
          "internalType": "externalEuint32",
          "name": "_premiumAmount",
          "type": "bytes32"
        },
        {
          "internalType": "externalEuint32",
          "name": "_coverageAmount",
          "type": "bytes32"
        },
        {
          "internalType": "uint256",
          "name": "_duration",
          "type": "uint256"
        },
        {
          "internalType": "bytes",
          "name": "inputProof",
          "type": "bytes"
        }
      ],
      "name": "createPolicy",
      "outputs": [
        {
          "internalType": "uint256",
          "name": "",
          "type": "uint256"
        }
      ],
      "stateMutability": "nonpayable",
      "type": "function"
    },
    {
      "inputs": [
        {
          "internalType": "uint256",
          "name": "claimId",
          "type": "uint256"
        }
      ],
      "name": "getClaimEncryptedAmount",
      "outputs": [
        {
          "internalType": "euint32",
          "name": "",
          "type": "bytes32"
        }
      ],
      "stateMutability": "view",
      "type": "function"
    },
    {
      "inputs": [
        {
          "internalType": "uint256",
          "name": "claimId",
          "type": "uint256"
        }
      ],
      "name": "getClaimEncryptedData",
      "outputs": [
        {
          "internalType": "euint8",
          "name": "",
          "type": "bytes32"
        },
        {
          "internalType": "euint32",
          "name": "",
          "type": "bytes32"
        },
        {
          "internalType": "euint32",
          "name": "",
          "type": "bytes32"
        },
        {
          "internalType": "euint32",
          "name": "",
          "type": "bytes32"
        },
        {
          "internalType": "euint32",
          "name": "",
          "type": "bytes32"
        }
      ],
      "stateMutability": "view",
      "type": "function"
    },
    {
      "inputs": [
        {
          "internalType": "uint256",
          "name": "claimId",
          "type": "uint256"
        }
      ],
      "name": "getClaimInfo",
      "outputs": [
        {
          "internalType": "euint32",
          "name": "claimAmount",
          "type": "bytes32"
        },
        {
          "internalType": "euint32",
          "name": "policyId",
          "type": "bytes32"
        },
        {
          "internalType": "bool",
          "name": "isApproved",
          "type": "bool"
        },
        {
          "internalType": "bool",
          "name": "isProcessed",
          "type": "bool"
        },
        {
          "internalType": "string",
          "name": "claimType",
          "type": "string"
        },
        {
          "internalType": "string",
          "name": "description",
          "type": "string"
        },
        {
          "internalType": "string",
          "name": "evidenceHash",
          "type": "string"
        },
        {
          "internalType": "address",
          "name": "claimant",
          "type": "address"
        },
        {
          "internalType": "address",
          "name": "claimAdjuster",
          "type": "address"
        },
        {
          "internalType": "uint256",
          "name": "submissionDate",
          "type": "uint256"
        },
        {
          "internalType": "uint256",
          "name": "processingDate",
          "type": "uint256"
        }
      ],
      "stateMutability": "view",
      "type": "function"
    },
    {
      "inputs": [
        {
          "internalType": "address",
          "name": "insurer",
          "type": "address"
        }
      ],
      "name": "getInsurerReputation",
      "outputs": [
        {
          "internalType": "euint32",
          "name": "",
          "type": "bytes32"
        }
      ],
      "stateMutability": "view",
      "type": "function"
    },
    {
      "inputs": [
        {
          "internalType": "uint256",
          "name": "policyId",
          "type": "uint256"
        }
      ],
      "name": "getPolicyInfo",
      "outputs": [
        {
          "internalType": "string",
          "name": "policyType",
          "type": "string"
        },
        {
          "internalType": "string",
          "name": "description",
          "type": "string"
        },
        {
          "internalType": "euint32",
          "name": "premiumAmount",
          "type": "bytes32"
        },
        {
          "internalType": "euint32",
          "name": "coverageAmount",
          "type": "bytes32"
        },
        {
          "internalType": "euint32",
          "name": "claimCount",
          "type": "bytes32"
        },
        {
          "internalType": "bool",
          "name": "isActive",
          "type": "bool"
        },
        {
          "internalType": "bool",
          "name": "isVerified",
          "type": "bool"
        },
        {
          "internalType": "address",
          "name": "policyholder",
          "type": "address"
        },
        {
          "internalType": "address",
          "name": "insurer",
          "type": "address"
        },
        {
          "internalType": "uint256",
          "name": "startDate",
          "type": "uint256"
        },
        {
          "internalType": "uint256",
          "name": "endDate",
          "type": "uint256"
        }
      ],
      "stateMutability": "view",
      "type": "function"
    },
    {
      "inputs": [
        {
          "internalType": "address",
          "name": "policyholder",
          "type": "address"
        }
      ],
      "name": "getPolicyholderReputation",
      "outputs": [
        {
          "internalType": "euint32",
          "name": "",
          "type": "bytes32"
        }
      ],
      "stateMutability": "view",
      "type": "function"
    },
    {
      "inputs": [
        {
          "internalType": "address",
          "name": "policyholder",
          "type": "address"
        }
      ],
      "name": "getRiskAssessment",
      "outputs": [
        {
          "internalType": "euint32",
          "name": "riskScore",
          "type": "bytes32"
        },
        {
          "internalType": "euint32",
          "name": "riskLevel",
          "type": "bytes32"
        },
        {
          "internalType": "bool",
          "name": "isVerified",
          "type": "bool"
        },
        {
          "internalType": "string",
          "name": "assessmentHash",
          "type": "string"
        },
        {
          "internalType": "address",
          "name": "assessor",
          "type": "address"
        },
        {
          "internalType": "uint256",
          "name": "assessmentDate",
          "type": "uint256"
        }
      ],
      "stateMutability": "view",
      "type": "function"
    },
    {
      "inputs": [
        {
          "internalType": "uint256",
          "name": "settlementId",
          "type": "uint256"
        }
      ],
      "name": "getSettlementInfo",
      "outputs": [
        {
          "internalType": "euint32",
          "name": "claimId",
          "type": "bytes32"
        },
        {
          "internalType": "euint32",
          "name": "settlementAmount",
          "type": "bytes32"
        },
        {
          "internalType": "bool",
          "name": "isCompleted",
          "type": "bool"
        },
        {
          "internalType": "string",
          "name": "settlementHash",
          "type": "string"
        },
        {
          "internalType": "address",
          "name": "beneficiary",
          "type": "address"
        },
        {
          "internalType": "uint256",
          "name": "settlementDate",
          "type": "uint256"
        }
      ],
      "stateMutability": "view",
      "type": "function"
    },
    {
      "inputs": [
        {
          "internalType": "uint256",
          "name": "claimId",
          "type": "uint256"
        }
      ],
      "name": "getSimpleClaimInfo",
      "outputs": [
        {
          "internalType": "uint256",
          "name": "",
          "type": "uint256"
        },
        {
          "internalType": "address",
          "name": "",
          "type": "address"
        },
        {
          "internalType": "uint256",
          "name": "",
          "type": "uint256"
        },
        {
          "internalType": "bool",
          "name": "",
          "type": "bool"
        }
      ],
      "stateMutability": "view",
      "type": "function"
    },
    {
      "inputs": [],
      "name": "getTotalSimpleClaims",
      "outputs": [
        {
          "internalType": "uint256",
          "name": "",
          "type": "uint256"
        }
      ],
      "stateMutability": "view",
      "type": "function"
    },
    {
      "inputs": [
        {
          "internalType": "address",
          "name": "user",
          "type": "address"
        }
      ],
      "name": "getUserClaims",
      "outputs": [
        {
          "internalType": "uint256[]",
          "name": "",
          "type": "uint256[]"
        }
      ],
      "stateMutability": "view",
      "type": "function"
    },
    {
      "inputs": [
        {
          "internalType": "address",
          "name": "",
          "type": "address"
        }
      ],
      "name": "insurerReputation",
      "outputs": [
        {
          "internalType": "euint32",
          "name": "",
          "type": "bytes32"
        }
      ],
      "stateMutability": "view",
      "type": "function"
    },
    {
      "inputs": [
        {
          "internalType": "uint256",
          "name": "claimId",
          "type": "uint256"
        }
      ],
      "name": "markClaimAsDecrypted",
      "outputs": [],
      "stateMutability": "nonpayable",
      "type": "function"
    },
    {
      "inputs": [],
      "name": "owner",
      "outputs": [
        {
          "internalType": "address",
          "name": "",
          "type": "address"
        }
      ],
      "stateMutability": "view",
      "type": "function"
    },
    {
      "inputs": [
        {
          "internalType": "uint256",
          "name": "policyId",
          "type": "uint256"
        }
      ],
      "name": "payPremium",
      "outputs": [],
      "stateMutability": "payable",
      "type": "function"
    },
    {
      "inputs": [
        {
          "internalType": "uint256",
          "name": "",
          "type": "uint256"
        }
      ],
      "name": "policies",
      "outputs": [
        {
          "internalType": "euint32",
          "name": "policyId",
          "type": "bytes32"
        },
        {
          "internalType": "euint32",
          "name": "premiumAmount",
          "type": "bytes32"
        },
        {
          "internalType": "euint32",
          "name": "coverageAmount",
          "type": "bytes32"
        },
        {
          "internalType": "euint32",
          "name": "claimLimit",
          "type": "bytes32"
        },
        {
          "internalType": "euint32",
          "name": "claimCount",
          "type": "bytes32"
        },
        {
          "internalType": "bool",
          "name": "isActive",
          "type": "bool"
        },
        {
          "internalType": "bool",
          "name": "isVerified",
          "type": "bool"
        },
        {
          "internalType": "string",
          "name": "policyType",
          "type": "string"
        },
        {
          "internalType": "string",
          "name": "description",
          "type": "string"
        },
        {
          "internalType": "address",
          "name": "policyholder",
          "type": "address"
        },
        {
          "internalType": "address",
          "name": "insurer",
          "type": "address"
        },
        {
          "internalType": "uint256",
          "name": "startDate",
          "type": "uint256"
        },
        {
          "internalType": "uint256",
          "name": "endDate",
          "type": "uint256"
        }
      ],
      "stateMutability": "view",
      "type": "function"
    },
    {
      "inputs": [],
      "name": "policyCounter",
      "outputs": [
        {
          "internalType": "uint256",
          "name": "",
          "type": "uint256"
        }
      ],
      "stateMutability": "view",
      "type": "function"
    },
    {
      "inputs": [
        {
          "internalType": "address",
          "name": "",
          "type": "address"
        }
      ],
      "name": "policyholderReputation",
      "outputs": [
        {
          "internalType": "euint32",
          "name": "",
          "type": "bytes32"
        }
      ],
      "stateMutability": "view",
      "type": "function"
    },
    {
      "inputs": [
        {
          "internalType": "uint256",
          "name": "claimId",
          "type": "uint256"
        },
        {
          "internalType": "bool",
          "name": "isApproved",
          "type": "bool"
        },
        {
          "internalType": "externalEuint32",
          "name": "settlementAmount",
          "type": "bytes32"
        },
        {
          "internalType": "bytes",
          "name": "inputProof",
          "type": "bytes"
        }
      ],
      "name": "processClaim",
      "outputs": [
        {
          "internalType": "uint256",
          "name": "",
          "type": "uint256"
        }
      ],
      "stateMutability": "nonpayable",
      "type": "function"
    },
    {
      "inputs": [],
      "name": "protocolId",
      "outputs": [
        {
          "internalType": "uint256",
          "name": "",
          "type": "uint256"
        }
      ],
      "stateMutability": "pure",
      "type": "function"
    },
    {
      "inputs": [
        {
          "internalType": "address",
          "name": "",
          "type": "address"
        }
      ],
      "name": "riskAssessments",
      "outputs": [
        {
          "internalType": "euint32",
          "name": "riskScore",
          "type": "bytes32"
        },
        {
          "internalType": "euint32",
          "name": "riskLevel",
          "type": "bytes32"
        },
        {
          "internalType": "bool",
          "name": "isVerified",
          "type": "bool"
        },
        {
          "internalType": "string",
          "name": "assessmentHash",
          "type": "string"
        },
        {
          "internalType": "address",
          "name": "assessor",
          "type": "address"
        },
        {
          "internalType": "uint256",
          "name": "assessmentDate",
          "type": "uint256"
        }
      ],
      "stateMutability": "view",
      "type": "function"
    },
    {
      "inputs": [],
      "name": "settlementCounter",
      "outputs": [
        {
          "internalType": "uint256",
          "name": "",
          "type": "uint256"
        }
      ],
      "stateMutability": "view",
      "type": "function"
    },
    {
      "inputs": [
        {
          "internalType": "uint256",
          "name": "",
          "type": "uint256"
        }
      ],
      "name": "settlements",
      "outputs": [
        {
          "internalType": "euint32",
          "name": "settlementId",
          "type": "bytes32"
        },
        {
          "internalType": "euint32",
          "name": "claimId",
          "type": "bytes32"
        },
        {
          "internalType": "euint32",
          "name": "settlementAmount",
          "type": "bytes32"
        },
        {
          "internalType": "bool",
          "name": "isCompleted",
          "type": "bool"
        },
        {
          "internalType": "string",
          "name": "settlementHash",
          "type": "string"
        },
        {
          "internalType": "address",
          "name": "beneficiary",
          "type": "address"
        },
        {
          "internalType": "uint256",
          "name": "settlementDate",
          "type": "uint256"
        }
      ],
      "stateMutability": "view",
      "type": "function"
    },
    {
      "inputs": [],
      "name": "simpleClaimCounter",
      "outputs": [
        {
          "internalType": "uint256",
          "name": "",
          "type": "uint256"
        }
      ],
      "stateMutability": "view",
      "type": "function"
    },
    {
      "inputs": [
        {
          "internalType": "uint256",
          "name": "",
          "type": "uint256"
        }
      ],
      "name": "simpleClaims",
      "outputs": [
        {
          "internalType": "uint256",
          "name": "claimId",
          "type": "uint256"
        },
        {
          "internalType": "euint8",
          "name": "encryptedClaimType",
          "type": "bytes32"
        },
        {
          "internalType": "euint32",
          "name": "encryptedAmount",
          "type": "bytes32"
        },
        {
          "internalType": "euint32",
          "name": "encryptedPolicyNumber",
          "type": "bytes32"
        },
        {
          "internalType": "euint32",
          "name": "encryptedContactInfo",
          "type": "bytes32"
        },
        {
          "internalType": "euint32",
          "name": "encryptedDescription",
          "type": "bytes32"
        },
        {
          "internalType": "address",
          "name": "claimant",
          "type": "address"
        },
        {
          "internalType": "uint256",
          "name": "submissionDate",
          "type": "uint256"
        },
        {
          "internalType": "bool",
          "name": "isActive",
          "type": "bool"
        }
      ],
      "stateMutability": "view",
      "type": "function"
    },
    {
      "inputs": [
        {
          "internalType": "uint256",
          "name": "policyId",
          "type": "uint256"
        },
        {
          "internalType": "externalEuint32",
          "name": "claimAmount",
          "type": "bytes32"
        },
        {
          "internalType": "string",
          "name": "claimType",
          "type": "string"
        },
        {
          "internalType": "string",
          "name": "description",
          "type": "string"
        },
        {
          "internalType": "string",
          "name": "evidenceHash",
          "type": "string"
        },
        {
          "internalType": "bytes",
          "name": "inputProof",
          "type": "bytes"
        }
      ],
      "name": "submitClaim",
      "outputs": [
        {
          "internalType": "uint256",
          "name": "",
          "type": "uint256"
        }
      ],
      "stateMutability": "nonpayable",
      "type": "function"
    },
    {
      "inputs": [
        {
          "internalType": "externalEuint8",
          "name": "claimTypeEncrypted",
          "type": "bytes32"
        },
        {
          "internalType": "externalEuint32",
          "name": "claimAmountEncrypted",
          "type": "bytes32"
        },
        {
          "internalType": "externalEuint32",
          "name": "policyNumberEncrypted",
          "type": "bytes32"
        },
        {
          "internalType": "externalEuint32",
          "name": "contactInfoEncrypted",
          "type": "bytes32"
        },
        {
          "internalType": "externalEuint32",
          "name": "descriptionEncrypted",
          "type": "bytes32"
        },
        {
          "internalType": "bytes",
          "name": "inputProof",
          "type": "bytes"
        }
      ],
      "name": "submitSimpleClaim",
      "outputs": [
        {
          "internalType": "uint256",
          "name": "",
          "type": "uint256"
        }
      ],
      "stateMutability": "nonpayable",
      "type": "function"
    },
    {
      "inputs": [
        {
          "internalType": "address",
          "name": "user",
          "type": "address"
        },
        {
          "internalType": "externalEuint32",
          "name": "reputation",
          "type": "bytes32"
        },
        {
          "internalType": "bytes",
          "name": "inputProof",
          "type": "bytes"
        }
      ],
      "name": "updateReputation",
      "outputs": [],
      "stateMutability": "nonpayable",
      "type": "function"
    },
    {
      "inputs": [
        {
          "internalType": "address",
          "name": "",
          "type": "address"
        },
        {
          "internalType": "uint256",
          "name": "",
          "type": "uint256"
        }
      ],
      "name": "userClaims",
      "outputs": [
        {
          "internalType": "uint256",
          "name": "",
          "type": "uint256"
        }
      ],
      "stateMutability": "view",
      "type": "function"
    },
    {
      "inputs": [],
      "name": "verifier",
      "outputs": [
        {
          "internalType": "address",
          "name": "",
          "type": "address"
        }
      ],
      "stateMutability": "view",
      "type": "function"
    },
    {
      "inputs": [
        {
          "internalType": "uint256",
          "name": "policyId",
          "type": "uint256"
        },
        {
          "internalType": "bool",
          "name": "isVerified",
          "type": "bool"
        }
      ],
      "name": "verifyPolicy",
      "outputs": [],
      "stateMutability": "nonpayable",
      "type": "function"
    },
    {
      "inputs": [
        {
          "internalType": "uint256",
          "name": "settlementId",
          "type": "uint256"
        }
      ],
      "name": "withdrawSettlement",
      "outputs": [],
      "stateMutability": "nonpayable",
      "type": "function"
    }
  ],
  "bytecode": "0x60806040523480156200001157600080fd5b5060405162003fb638038062003fb683398101604081905262000034916200020b565b620001b1620000d5604080516080810182526000808252602082018190529181018290526060810191909152506040805160808101825273687820221192c5b662b25367f70076a37bc79b6c815273848b0066793bcc60346da1f49049357399b8d595602082015273a02cda4ca3a71d7c46997716f4283aa851c2881291810191909152731364cbbf2cdf5032c47d8226a6f6fbd2afcdacac606082015290565b80517f9e7b61f58c47dc699ac88507c4f5bb9f121c03808c5676a8078fe583e464970080546001600160a01b03199081166001600160a01b039384161790915560208301517f9e7b61f58c47dc699ac88507c4f5bb9f121c03808c5676a8078fe583e46497018054831691841691909117905560408301517f9e7b61f58c47dc699ac88507c4f5bb9f121c03808c5676a8078fe583e46497028054831691841691909117905560608301517f9e7b61f58c47dc699ac88507c4f5bb9f121c03808c5676a8078fe583e46497038054909216921691909117905550565b600c80546001600160a01b03199081163317909155600d80546001600160a01b03948516908316179055600e805492909316911617905562000243565b80516001600160a01b03811681146200020657600080fd5b919050565b600080604083850312156200021f57600080fd5b6200022a83620001ee565b91506200023a60208401620001ee565b90509250929050565b613d6380620002536000396000f3fe6080604052600436106102255760003560e01c806380e4f9c211610123578063ab6ad7fe116100ab578063d3e894831161006f578063d3e8948314610786578063d52c1bea146107bf578063da1f12ab146107d5578063da5687af146107ea578063db17bb41146108ae57600080fd5b8063ab6ad7fe146106a7578063b1d4bcca146106c7578063be9895231461070f578063ca9748ea1461072f578063d20701931461074f57600080fd5b80639588d85b116100f25780639588d85b146105be5780639765f633146105f557806397b7c29714610622578063a010454814610642578063a888c2cd1461066f57600080fd5b806380e4f9c21461053d57806384b971a5146105735780638b0cde62146105895780638da5cb5b1461059e57600080fd5b8063258cdc6d116101b15780634efa8f17116101755780634efa8f17146104885780635278a5ea1461049e5780635eb47649146104be57806371892da8146104de5780637bcb4a641461051057600080fd5b8063258cdc6d1461038c57806328335e74146103a25780632b7ac3f31461041d5780632bb5edd3146104555780634364b26e1461047557600080fd5b80630f5d1b47116101f85780630f5d1b47146102d6578063142834dd146102f657806316d8950d1461031657806319c976f71461033657806323d336261461036c57600080fd5b806306b301271461022a57806306fda44f1461024c57806308df7dc81461026c5780630a59d872146102a8575b600080fd5b34801561023657600080fd5b5061024a610245366004613224565b6108ce565b005b34801561025857600080fd5b5061024a610267366004613252565b6109d0565b34801561027857600080fd5b5061028c610287366004613224565b610abd565b60405161029f97969594939291906132c4565b60405180910390f35b3480156102b457600080fd5b506102c86102c33660046133fc565b610b92565b60405190815260200161029f565b3480156102e257600080fd5b5061024a6102f13660046134bf565b610f3c565b34801561030257600080fd5b5061024a610311366004613224565b6111c5565b34801561032257600080fd5b506102c8610331366004613224565b6112ad565b34801561034257600080fd5b506102c8610351366004613544565b6001600160a01b031660009081526005602052604090205490565b34801561037857600080fd5b5061024a61038736600461355f565b611334565b34801561039857600080fd5b506102c8600b5481565b3480156103ae57600080fd5b506103f36103bd366004613224565b6000908152600660208190526040909120805491810154600782015460089092015492936001600160a01b039091169260ff1690565b604080519485526001600160a01b039093166020850152918301521515606082015260800161029f565b34801561042957600080fd5b50600d5461043d906001600160a01b031681565b6040516001600160a01b03909116815260200161029f565b34801561046157600080fd5b506102c86104703660046135a6565b6114e4565b61024a610483366004613224565b61189f565b34801561049457600080fd5b506102c860095481565b3480156104aa57600080fd5b506102c86104b936600461364d565b6119be565b3480156104ca57600080fd5b5061024a6104d93660046136a4565b611d4a565b3480156104ea57600080fd5b506104fe6104f9366004613224565b611f5d565b60405161029f969594939291906136fe565b34801561051c57600080fd5b5061053061052b366004613544565b612050565b60405161029f9190613743565b34801561054957600080fd5b506102c8610558366004613544565b6001600160a01b031660009081526004602052604090205490565b34801561057f57600080fd5b506102c8600a5481565b34801561059557600080fd5b50600b546102c8565b3480156105aa57600080fd5b50600c5461043d906001600160a01b031681565b3480156105ca57600080fd5b506105de6105d9366004613224565b6120bc565b60405161029f9b9a99989796959493929190613787565b34801561060157600080fd5b506102c8610610366004613544565b60056020526000908152604090205481565b34801561062e57600080fd5b506102c861063d366004613803565b612275565b34801561064e57600080fd5b506102c861065d366004613544565b60046020526000908152604090205481565b34801561067b57600080fd5b5061068f61068a366004613224565b6126b6565b60405161029f9c9b9a99989796959493929190613864565b3480156106b357600080fd5b506104fe6106c2366004613544565b6128c0565b3480156106d357600080fd5b506106e76106e2366004613224565b612920565b604080519586526020860194909452928401919091526060830152608082015260a00161029f565b34801561071b57600080fd5b50600e5461043d906001600160a01b031681565b34801561073b57600080fd5b506102c861074a366004613900565b6129d0565b34801561075b57600080fd5b5061076f61076a366004613224565b612a01565b60405161029f9b9a9998979695949392919061392a565b34801561079257600080fd5b506107a66107a1366004613224565b612c43565b60405161029f9d9c9b9a999897969594939291906139b9565b3480156107cb57600080fd5b506102c860085481565b3480156107e157600080fd5b506127116102c8565b3480156107f657600080fd5b5061085f610805366004613224565b60066020819052600091825260409091208054600182015460028301546003840154600485015460058601549686015460078701546008909701549597949693959294919391926001600160a01b03909116919060ff1689565b60408051998a5260208a0198909852968801959095526060870193909352608086019190915260a08501526001600160a01b031660c084015260e083015215156101008201526101200161029f565b3480156108ba57600080fd5b506104fe6108c9366004613544565b612dce565b600081815260066020819052604090912001546001600160a01b031633146109495760405162461bcd60e51b815260206004820152602360248201527f4f6e6c7920636c61696d616e742063616e206d61726b206173206465637279706044820152621d195960ea1b60648201526084015b60405180910390fd5b60008181526006602052604090206008015460ff166109a05760405162461bcd60e51b8152602060048201526013602482015272436c61696d206973206e6f742061637469766560681b6044820152606401610940565b604051339082907faa7324ada1ab84655c9ef0ae2f2a0f13f240ca11235d1f1d161dd08e83f4a37390600090a350565b600d546001600160a01b03163314610a345760405162461bcd60e51b815260206004820152602160248201527f4f6e6c792076657269666965722063616e2076657269667920706f6c696369656044820152607360f81b6064820152608401610940565b6000828152602081905260409020600801546001600160a01b0316610a935760405162461bcd60e51b8152602060048201526015602482015274141bdb1a58de48191bd95cc81b9bdd08195e1a5cdd605a1b6044820152606401610940565b60009182526020829052604090912060050180549115156101000261ff0019909216919091179055565b600260208190526000918252604090912080546001820154928201546003830154600484018054939594929360ff9092169291610af990613a56565b80601f0160208091040260200160405190810160405280929190818152602001828054610b2590613a56565b8015610b725780601f10610b4757610100808354040283529160200191610b72565b820191906000526020600020905b815481529060010190602001808311610b5557829003601f168201915b50505050600583015460069093015491926001600160a01b031691905087565b600080885111610be45760405162461bcd60e51b815260206004820152601b60248201527f506f6c69637920747970652063616e6e6f7420626520656d70747900000000006044820152606401610940565b60008411610c345760405162461bcd60e51b815260206004820152601960248201527f4475726174696f6e206d75737420626520706f736974697665000000000000006044820152606401610940565b6008805460009182610c4583613aa6565b9190505590506000610c8d8886868080601f016020809104026020016040519081016040528093929190818152602001838380828437600092019190915250612e9c92505050565b90506000610cd18887878080601f016020809104026020016040519081016040528093929190818152602001838380828437600092019190915250612e9c92505050565b9050604051806101a00160405280610ce885612eb3565b8152602001838152602001828152602001610d03600a612eb3565b8152602001610d126000612eb3565b81526001602082015260006040820152606081018d9052608081018c90523360a08201523060c08201524260e0820181905261010090910190610d56908a90613abf565b90526000848152602081815260409182902083518155908301516001820155908201516002820155606082015160038201556080820151600482015560a082015160058201805460c085015115156101000261ff00199315159390931661ffff199091161791909117905560e08201516006820190610dd59082613b23565b506101008201516007820190610deb9082613b23565b506101208201516008820180546001600160a01b039283166001600160a01b031991821617909155610140840151600984018054919093169116179055610160820151600a82015561018090910151600b90910155600083815260208190526040902060010154610e5b90612ec6565b50600083815260208190526040902060020154610e7790612ec6565b50600083815260208190526040902060040154610e9390612ec6565b50600083815260208190526040902060010154610eb09033612ed6565b50600083815260208190526040902060020154610ecd9033612ed6565b50600083815260208190526040902060040154610eea9033612ed6565b50336001600160a01b0316837f21d0178f0cde2aed24022db30651dabafb4bbe431fb787fbc92113304d8e35498d604051610f259190613be3565b60405180910390a350909998505050505050505050565b600d546001600160a01b03163314610f965760405162461bcd60e51b815260206004820152601d60248201527f4f6e6c792076657269666965722063616e20617373657373207269736b0000006044820152606401610940565b6001600160a01b038516610fec5760405162461bcd60e51b815260206004820152601c60248201527f496e76616c696420706f6c696379686f6c6465722061646472657373000000006044820152606401610940565b600061102e8584848080601f016020809104026020016040519081016040528093929190818152602001838380828437600092019190915250612e9c92505050565b9050600061103c6002612eb3565b6040805160c08101825284815260208082018481526001838501818152606085018c81523360808701524260a08701526001600160a01b038f16600090815260039586905296909620855181559251918301919091555160028201805460ff191691151591909117905592519394509092908201906110bb9082613b23565b5060808201516004820180546001600160a01b0319166001600160a01b0392831617905560a090920151600590910155871660009081526003602052604090205461110590612ec6565b506001600160a01b03871660009081526003602052604090206001015461112b90612ec6565b506001600160a01b03871660009081526003602052604090205461114f9088612ed6565b506001600160a01b0387166000908152600360205260409020600101546111769088612ed6565b506040805160008152600160208201526001600160a01b038916917f1ef7fd80e21f3c38933a6346a8c915f88db9aea8126a6b01825f1bdae1f785d9910160405180910390a250505050505050565b6000818152600260205260409020600501546001600160a01b0316331461122e5760405162461bcd60e51b815260206004820152601d60248201527f4f6e6c792062656e65666963696172792063616e2077697468647261770000006044820152606401610940565b60008181526002602052604090206003015460ff1661128f5760405162461bcd60e51b815260206004820152601c60248201527f536574746c656d656e74206d75737420626520636f6d706c65746564000000006044820152606401610940565b6000908152600260205260409020600301805460ff19166001179055565b6000818152600660208190526040822001546001600160a01b03166112e45760405162461bcd60e51b815260040161094090613bf6565b600082815260066020819052604090912001546001600160a01b0316331461131e5760405162461bcd60e51b815260040161094090613c24565b5060009081526006602052604090206002015490565b600e546001600160a01b0316331461139d5760405162461bcd60e51b815260206004820152602660248201527f4f6e6c792061646a75737465722063616e20636f6d706c65746520736574746c604482015265656d656e747360d01b6064820152608401610940565b6000828152600260205260409020600501546001600160a01b03166114045760405162461bcd60e51b815260206004820152601960248201527f536574746c656d656e7420646f6573206e6f74206578697374000000000000006044820152606401610940565b60008281526002602052604090206003015460ff16156114665760405162461bcd60e51b815260206004820152601c60248201527f536574746c656d656e7420616c726561647920636f6d706c65746564000000006044820152606401610940565b600082815260026020526040902060038101805460ff191660011790556004016114908282613b23565b506000828152600260205260408082204260068201556005015490516001600160a01b03909116919084907fefea8d85753e9071e1b815c2c617dd6757dca98eb83158c16af00672ee0b9932908390a45050565b6000878152602081905260408120600801546001600160a01b031633146115595760405162461bcd60e51b815260206004820152602360248201527f4f6e6c7920706f6c696379686f6c6465722063616e207375626d697420636c61604482015262696d7360e81b6064820152608401610940565b60008881526020819052604090206005015460ff166115b25760405162461bcd60e51b8152602060048201526015602482015274506f6c696379206d7573742062652061637469766560581b6044820152606401610940565b6000888152602081905260409020600b01544211156116085760405162461bcd60e51b8152602060048201526012602482015271141bdb1a58de481a185cc8195e1c1a5c995960721b6044820152606401610940565b600980546000918261161983613aa6565b91905055905060006116618986868080601f016020809104026020016040519081016040528093929190818152602001838380828437600092019190915250612e9c92505050565b905060405180610180016040528061167884612eb3565b815260200182815260200161168c8c612eb3565b815260006020808301829052604080840183905260608085018e905260808086018e905260a08087018e90523360c088015260e0870186905242610100808901919091526101209097018690528986526001808652958490208851815594880151958501959095559186015160028401558501516003830180549287015161ffff1990931691151561ff001916919091179115159094021790925582015160048201906117399082613b23565b5060c0820151600582019061174e9082613b23565b5060e082015160068201906117639082613b23565b506101008201516007820180546001600160a01b039283166001600160a01b031991821617909155610120840151600884018054919093169116179055610140820151600982015561016090910151600a90910155600082815260016020819052604090912001546117d490612ec6565b506000828152600160205260409020600201546117f090612ec6565b506000828152600160208190526040909120015461180e9033612ed6565b5060008281526001602052604090206002015461182b9033612ed6565b5060008a8152602081905260409020600401546118519061184c6001612eb3565b612ee9565b60008b81526020819052604080822060040192909255905133918c9185917f9fe11e531030a058803617055e27f9f4768236e4322e13b9c4c09f4338e23a6891a45098975050505050505050565b6000818152602081905260409020600801546001600160a01b031633146119125760405162461bcd60e51b815260206004820152602160248201527f4f6e6c7920706f6c696379686f6c6465722063616e20706179207072656d69756044820152606d60f81b6064820152608401610940565b60008181526020819052604090206005015460ff1661196b5760405162461bcd60e51b8152602060048201526015602482015274506f6c696379206d7573742062652061637469766560581b6044820152606401610940565b600034116119bb5760405162461bcd60e51b815260206004820152601f60248201527f5072656d69756d20616d6f756e74206d75737420626520706f736974697665006044820152606401610940565b50565b600e546000906001600160a01b03163314611a1b5760405162461bcd60e51b815260206004820181905260248201527f4f6e6c792061646a75737465722063616e2070726f6365737320636c61696d736044820152606401610940565b6000868152600160205260409020600701546001600160a01b0316611a525760405162461bcd60e51b815260040161094090613bf6565b600086815260016020526040902060030154610100900460ff1615611ab95760405162461bcd60e51b815260206004820152601760248201527f436c61696d20616c72656164792070726f6365737365640000000000000000006044820152606401610940565b600086815260016020526040812060038101805461ff0019891580159190911661ffff1990921691909117610100179091556008820180546001600160a01b0319163317905542600a90920191909155611d0157600a8054906000611b1d83613aa6565b9190505590506000611b658686868080601f016020809104026020016040519081016040528093929190818152602001838380828437600092019190915250612e9c92505050565b90506040518060e00160405280611b7b84612eb3565b8152602001611b898a612eb3565b8152602080820184905260006040808401829052805180840182528281526060808601919091528d83526001808552828420600701546001600160a01b031660808088019190915260a0909601849052888452600280865293839020875181559487015190850155908501519183019190915583015160038201805460ff1916911515919091179055908201516004820190611c259082613b23565b5060a08201516005820180546001600160a01b0319166001600160a01b0390921691909117905560c09091015160069091015560008281526002602081905260409091200154611c7490612ec6565b50600082815260026020526040902060010154611c9090612ec6565b506000828152600260208181526040808420909201548b84526001909152912060070154611cc791906001600160a01b0316612ed6565b5060008281526002602090815260408083206001908101548c8552925290912060070154611cfe91906001600160a01b0316612ed6565b50505b6040805187151581526000602082015288917f2b9c0ffbed8895983b11e6bb3b18dc85a60900f9af24a06fa36a9a6eca895815910160405180910390a290505b95945050505050565b600d546001600160a01b03163314611db05760405162461bcd60e51b815260206004820152602360248201527f4f6e6c792076657269666965722063616e20757064617465207265707574617460448201526234b7b760e91b6064820152608401610940565b6001600160a01b038416611dfd5760405162461bcd60e51b8152602060048201526014602482015273496e76616c69642075736572206164647265737360601b6044820152606401610940565b6000611e3f8484848080601f016020809104026020016040519081016040528093929190818152602001838380828437600092019190915250612e9c92505050565b9050846001600160a01b03166000806001600854611e5d9190613c6b565b81526020810191909152604001600020600801546001600160a01b031603611ecd576001600160a01b0385166000908152600460205260409020819055611ea381612ec6565b506001600160a01b038516600090815260046020526040902054611ec79086612ed6565b50611f17565b6001600160a01b0385166000908152600560205260409020819055611ef181612ec6565b506001600160a01b038516600090815260056020526040902054611f159086612ed6565b505b604051600081526001600160a01b038616907fbc29a8e6655836a9c09ee2d874d0ec6df064e0b7d9d9dd0f097ad3f2874ed9869060200160405180910390a25050505050565b60008181526002602081905260408220600181015491810154600382015460058301546006840154600485018054889788976060978997889792969395919460ff9091169391926001600160a01b031691908390611fba90613a56565b80601f0160208091040260200160405190810160405280929190818152602001828054611fe690613a56565b80156120335780601f1061200857610100808354040283529160200191612033565b820191906000526020600020905b81548152906001019060200180831161201657829003601f168201915b505050505092509650965096509650965096505091939550919395565b6001600160a01b0381166000908152600760209081526040918290208054835181840281018401909452808452606093928301828280156120b057602002820191906000526020600020905b81548152602001906001019080831161209c575b50505050509050919050565b6000818152602081905260408120600181015460028201546004830154600584015460088501546009860154600a870154600b88015460068901805460609b8c9b909a8b9a8b9a8b9a8b9a8b9a8b9a8b9a8b9a989960078b019897969560ff8082169661010090920416946001600160a01b039182169491169290918b9061214390613a56565b80601f016020809104026020016040519081016040528092919081815260200182805461216f90613a56565b80156121bc5780601f10612191576101008083540402835291602001916121bc565b820191906000526020600020905b81548152906001019060200180831161219f57829003601f168201915b50505050509a508980546121cf90613a56565b80601f01602080910402602001604051908101604052809291908181526020018280546121fb90613a56565b80156122485780601f1061221d57610100808354040283529160200191612248565b820191906000526020600020905b81548152906001019060200180831161222b57829003601f168201915b505050505099509b509b509b509b509b509b509b509b509b509b509b505091939597999b90929496989a50565b600b80546000918291908261228983613aa6565b91905055905060006122d18a86868080601f016020809104026020016040519081016040528093929190818152602001838380828437600092019190915250612f1b92505050565b905060006123158a87878080601f016020809104026020016040519081016040528093929190818152602001838380828437600092019190915250612e9c92505050565b905060006123598a88888080601f016020809104026020016040519081016040528093929190818152602001838380828437600092019190915250612e9c92505050565b9050600061239d8a89898080601f016020809104026020016040519081016040528093929190818152602001838380828437600092019190915250612e9c92505050565b905060006123e18a8a8a8080601f016020809104026020016040519081016040528093929190818152602001838380828437600092019190915250612e9c92505050565b9050604051806101200160405280878152602001868152602001858152602001848152602001838152602001828152602001336001600160a01b031681526020014281526020016001151581525060066000888152602001908152602001600020600082015181600001556020820151816001015560408201518160020155606082015181600301556080820151816004015560a0820151816005015560c08201518160060160006101000a8154816001600160a01b0302191690836001600160a01b0316021790555060e082015181600701556101008201518160080160006101000a81548160ff02191690831515021790555090505060076000336001600160a01b03166001600160a01b031681526020019081526020016000208690806001815401808255809150506001900390600052602060002001600090919091909150556125446006600088815260200190815260200160002060020154612ec6565b506000868152600660205260409020600201546125619033612ed6565b5060008681526006602052604090206001015461257d90612ec6565b5060008681526006602052604090206001015461259a9033612ed6565b506000868152600660205260409020600301546125b690612ec6565b506000868152600660205260409020600301546125d39033612ed6565b506000868152600660205260409020600401546125ef90612ec6565b5060008681526006602052604090206004015461260c9033612ed6565b5060008681526006602052604090206005015461262890612ec6565b506000868152600660205260409020600501546126459033612ed6565b50336001600160a01b0316867ff47cb144d57e1368191d1eb3128105958679a0866070b8ff2aa2c464ed8ed38160405161269c90602080825260099082015268195b98dc9e5c1d195960ba1b604082015260600190565b60405180910390a350939c9b505050505050505050505050565b6001602081905260009182526040909120805491810154600282015460038301546004840180549394929360ff80841694610100909404169291906126fa90613a56565b80601f016020809104026020016040519081016040528092919081815260200182805461272690613a56565b80156127735780601f1061274857610100808354040283529160200191612773565b820191906000526020600020905b81548152906001019060200180831161275657829003601f168201915b50505050509080600501805461278890613a56565b80601f01602080910402602001604051908101604052809291908181526020018280546127b490613a56565b80156128015780601f106127d657610100808354040283529160200191612801565b820191906000526020600020905b8154815290600101906020018083116127e457829003601f168201915b50505050509080600601805461281690613a56565b80601f016020809104026020016040519081016040528092919081815260200182805461284290613a56565b801561288f5780601f106128645761010080835404028352916020019161288f565b820191906000526020600020905b81548152906001019060200180831161287257829003601f168201915b50505050600783015460088401546009850154600a9095015493946001600160a01b0392831694929091169250908c565b6001600160a01b03808216600090815260036020819052604082208054600182015460028301546004840154600585015495850180549798899889986060988a98899891979096919560ff909116949093911691908390611fba90613a56565b60008181526006602081905260408220015481908190819081906001600160a01b031661295f5760405162461bcd60e51b815260040161094090613bf6565b600086815260066020819052604090912001546001600160a01b031633146129995760405162461bcd60e51b815260040161094090613c24565b5050506000928352505060066020526040902060018101546002820154600383015460048401546005909401549294919390929091565b600760205281600052604060002081815481106129ec57600080fd5b90600052602060002001600091509150505481565b600081815260016020819052604082209081015460028201546003830154600784015460088501546009860154600a8701546004880180548a998a998a996060998a998a998d998a998a998a9960ff8088169761010090041695919460058b019460068c01946001600160a01b0394851694909216929091908790612a8590613a56565b80601f0160208091040260200160405190810160405280929190818152602001828054612ab190613a56565b8015612afe5780601f10612ad357610100808354040283529160200191612afe565b820191906000526020600020905b815481529060010190602001808311612ae157829003601f168201915b50505050509650858054612b1190613a56565b80601f0160208091040260200160405190810160405280929190818152602001828054612b3d90613a56565b8015612b8a5780601f10612b5f57610100808354040283529160200191612b8a565b820191906000526020600020905b815481529060010190602001808311612b6d57829003601f168201915b50505050509550848054612b9d90613a56565b80601f0160208091040260200160405190810160405280929190818152602001828054612bc990613a56565b8015612c165780601f10612beb57610100808354040283529160200191612c16565b820191906000526020600020905b815481529060010190602001808311612bf957829003601f168201915b505050505094509b509b509b509b509b509b509b509b509b509b509b505091939597999b90929496989a50565b60006020819052908152604090208054600182015460028301546003840154600485015460058601546006870180549697959694959394929360ff808416946101009094041692909190612c9690613a56565b80601f0160208091040260200160405190810160405280929190818152602001828054612cc290613a56565b8015612d0f5780601f10612ce457610100808354040283529160200191612d0f565b820191906000526020600020905b815481529060010190602001808311612cf257829003601f168201915b505050505090806007018054612d2490613a56565b80601f0160208091040260200160405190810160405280929190818152602001828054612d5090613a56565b8015612d9d5780601f10612d7257610100808354040283529160200191612d9d565b820191906000526020600020905b815481529060010190602001808311612d8057829003601f168201915b5050505060088301546009840154600a850154600b9095015493946001600160a01b0392831694929091169250908d565b600360208190526000918252604090912080546001820154600283015493830180549294919360ff90921692612e0390613a56565b80601f0160208091040260200160405190810160405280929190818152602001828054612e2f90613a56565b8015612e7c5780601f10612e5157610100808354040283529160200191612e7c565b820191906000526020600020905b815481529060010190602001808311612e5f57829003601f168201915b50505050600483015460059093015491926001600160a01b031691905086565b6000612eaa83836004612f25565b90505b92915050565b6000612ead8263ffffffff16600461303c565b6000612ed282306130eb565b5090565b6000612ee283836130eb565b5090919050565b600082612efd57612efa6000612eb3565b92505b81612f0f57612f0c6000612eb3565b91505b612eaa83836000613168565b6000612eaa838360025b7f9e7b61f58c47dc699ac88507c4f5bb9f121c03808c5676a8078fe583e46497015460405163196d0b9b60e01b8152600091600080516020613d0e833981519152916001600160a01b039091169063196d0b9b90612f8d908890339089908990600401613ca0565b6020604051808303816000875af1158015612fac573d6000803e3d6000fd5b505050506040513d601f19601f82011682018060405250810190612fd09190613cd9565b8154604051630f8e573b60e21b8152600481018390523360248201529193506001600160a01b031690633e395cec90604401600060405180830381600087803b15801561301c57600080fd5b505af1158015613030573d6000803e3d6000fd5b50505050509392505050565b7f9e7b61f58c47dc699ac88507c4f5bb9f121c03808c5676a8078fe583e464970154604051639cd07acb60e01b8152600091600080516020613d0e833981519152916001600160a01b0390911690639cd07acb906130a09087908790600401613cf2565b6020604051808303816000875af11580156130bf573d6000803e3d6000fd5b505050506040513d601f19601f820116820180604052508101906130e39190613cd9565b949350505050565b6000600080516020613d0e8339815191528054604051635ca4b5b160e11b8152600481018690526001600160a01b03858116602483015292935091169063b9496b6290604401600060405180830381600087803b15801561314b57600080fd5b505af115801561315f573d6000803e3d6000fd5b50505050505050565b600080821561317c5750600160f81b613180565b5060005b6000600080516020613d0e833981519152600181015460405163022f65e760e31b815260048101899052602481018890526001600160f81b0319851660448201529192506001600160a01b03169063117b2f38906064016020604051808303816000875af11580156131f6573d6000803e3d6000fd5b505050506040513d601f19601f8201168201806040525081019061321a9190613cd9565b9695505050505050565b60006020828403121561323657600080fd5b5035919050565b8035801515811461324d57600080fd5b919050565b6000806040838503121561326557600080fd5b823591506132756020840161323d565b90509250929050565b6000815180845260005b818110156132a457602081850181015186830182015201613288565b506000602082860101526020601f19601f83011685010191505092915050565b878152866020820152856040820152841515606082015260e0608082015260006132f160e083018661327e565b6001600160a01b039490941660a08301525060c0015295945050505050565b634e487b7160e01b600052604160045260246000fd5b600082601f83011261333757600080fd5b813567ffffffffffffffff8082111561335257613352613310565b604051601f8301601f19908116603f0116810190828211818310171561337a5761337a613310565b8160405283815286602085880101111561339357600080fd5b836020870160208301376000602085830101528094505050505092915050565b60008083601f8401126133c557600080fd5b50813567ffffffffffffffff8111156133dd57600080fd5b6020830191508360208285010111156133f557600080fd5b9250929050565b600080600080600080600060c0888a03121561341757600080fd5b873567ffffffffffffffff8082111561342f57600080fd5b61343b8b838c01613326565b985060208a013591508082111561345157600080fd5b61345d8b838c01613326565b975060408a0135965060608a0135955060808a0135945060a08a013591508082111561348857600080fd5b506134958a828b016133b3565b989b979a50959850939692959293505050565b80356001600160a01b038116811461324d57600080fd5b6000806000806000608086880312156134d757600080fd5b6134e0866134a8565b945060208601359350604086013567ffffffffffffffff8082111561350457600080fd5b61351089838a01613326565b9450606088013591508082111561352657600080fd5b50613533888289016133b3565b969995985093965092949392505050565b60006020828403121561355657600080fd5b612eaa826134a8565b6000806040838503121561357257600080fd5b82359150602083013567ffffffffffffffff81111561359057600080fd5b61359c85828601613326565b9150509250929050565b600080600080600080600060c0888a0312156135c157600080fd5b8735965060208801359550604088013567ffffffffffffffff808211156135e757600080fd5b6135f38b838c01613326565b965060608a013591508082111561360957600080fd5b6136158b838c01613326565b955060808a013591508082111561362b57600080fd5b6136378b838c01613326565b945060a08a013591508082111561348857600080fd5b60008060008060006080868803121561366557600080fd5b853594506136756020870161323d565b935060408601359250606086013567ffffffffffffffff81111561369857600080fd5b613533888289016133b3565b600080600080606085870312156136ba57600080fd5b6136c3856134a8565b935060208501359250604085013567ffffffffffffffff8111156136e657600080fd5b6136f2878288016133b3565b95989497509550505050565b868152856020820152841515604082015260c06060820152600061372560c083018661327e565b6001600160a01b039490941660808301525060a00152949350505050565b6020808252825182820181905260009190848201906040850190845b8181101561377b5783518352928401929184019160010161375f565b50909695505050505050565b600061016080835261379b8184018f61327e565b905082810360208401526137af818e61327e565b604084019c909c5250506060810198909852608088019690965293151560a087015291151560c08601526001600160a01b0390811660e0860152166101008401526101208301526101409091015292915050565b600080600080600080600060c0888a03121561381e57600080fd5b873596506020880135955060408801359450606088013593506080880135925060a088013567ffffffffffffffff81111561385857600080fd5b6134958a828b016133b3565b60006101808e83528d60208401528c60408401528b151560608401528a151560808401528060a084015261389a8184018b61327e565b905082810360c08401526138ae818a61327e565b905082810360e08401526138c2818961327e565b6001600160a01b03888116610100860152871661012085015291506138e49050565b61014082019390935261016001529a9950505050505050505050565b6000806040838503121561391357600080fd5b61391c836134a8565b946020939093013593505050565b60006101608d83528c60208401528b151560408401528a1515606084015280608084015261395a8184018b61327e565b905082810360a084015261396e818a61327e565b905082810360c0840152613982818961327e565b6001600160a01b0397881660e085015295909616610100830152506101208101929092526101409091015298975050505050505050565b60006101a08f83528e60208401528d60408401528c60608401528b60808401528a151560a084015289151560c08401528060e08401526139fb8184018a61327e565b9050828103610100840152613a10818961327e565b915050613a296101208301876001600160a01b03169052565b6001600160a01b03851661014083015261016082019390935261018001529b9a5050505050505050505050565b600181811c90821680613a6a57607f821691505b602082108103613a8a57634e487b7160e01b600052602260045260246000fd5b50919050565b634e487b7160e01b600052601160045260246000fd5b600060018201613ab857613ab8613a90565b5060010190565b80820180821115612ead57612ead613a90565b601f821115613b1e576000816000526020600020601f850160051c81016020861015613afb5750805b601f850160051c820191505b81811015613b1a57828155600101613b07565b5050505b505050565b815167ffffffffffffffff811115613b3d57613b3d613310565b613b5181613b4b8454613a56565b84613ad2565b602080601f831160018114613b865760008415613b6e5750858301515b600019600386901b1c1916600185901b178555613b1a565b600085815260208120601f198616915b82811015613bb557888601518255948401946001909101908401613b96565b5085821015613bd35787850151600019600388901b60f8161c191681555b5050505050600190811b01905550565b602081526000612eaa602083018461327e565b60208082526014908201527310db185a5b48191bd95cc81b9bdd08195e1a5cdd60621b604082015260600190565b60208082526027908201527f4f6e6c7920636c61696d616e742063616e2061636365737320656e63727970746040820152666564206461746160c81b606082015260800190565b81810381811115612ead57612ead613a90565b60548110613c9c57634e487b7160e01b600052602160045260246000fd5b9052565b8481526001600160a01b0384166020820152608060408201819052600090613cca9083018561327e565b9050611d416060830184613c7e565b600060208284031215613ceb57600080fd5b5051919050565b82815260408101613d066020830184613c7e565b939250505056fe9e7b61f58c47dc699ac88507c4f5bb9f121c03808c5676a8078fe583e4649700a26469706673582212207cf8eba121c6a66916e0150636da563d8381be7a9ed6ea026d1cac6d5625aa0064736f6c63430008180033",
  "linkReferences": {},
  "deployedLinkReferences": {}
}