{
  "_format": "hh-sol-artifact-1",
  "contractName": "CipherPolicyHub",
  "sourceName": "contracts/CipherPolicyHub.sol",
  "abi": [
    {
      "inputs": [
        {
          "internalType": "address",
          "name": "_verifier",
          "type": "address"
        },
        {
          "internalType": "address",
          "name": "_adjuster",
          "type": "address"
        }
      ],
      "stateMutability": "nonpayable",
      "type": "constructor"
    },
    {
      "anonymous": false,
      "inputs": [
        {
          "indexed": true,
          "internalType": "uint256",
          "name": "claimId",
          "type": "uint256"
        },
        {
          "indexed": true,
          "internalType": "address",
          "name": "claimant",
          "type": "address"
        }
      ],
      "name": "ClaimDecrypted",
      "type": "event"
    },
    {
      "anonymous": false,
      "inputs": [
        {
          "indexed": true,
          "internalType": "uint256",
          "name": "claimId",
          "type": "uint256"
        },
        {
          "indexed": false,
          "internalType": "bool",
          "name": "isApproved",
          "type": "bool"
        },
        {
          "indexed": false,
          "internalType": "uint32",
          "name": "settlementAmount",
          "type": "uint32"
        }
      ],
      "name": "ClaimProcessed",
      "type": "event"
    },
    {
      "anonymous": false,
      "inputs": [
        {
          "indexed": true,
          "internalType": "uint256",
          "name": "claimId",
          "type": "uint256"
        },
        {
          "indexed": true,
          "internalType": "uint256",
          "name": "policyId",
          "type": "uint256"
        },
        {
          "indexed": true,
          "internalType": "address",
          "name": "claimant",
          "type": "address"
        }
      ],
      "name": "ClaimSubmitted",
      "type": "event"
    },
    {
      "anonymous": false,
      "inputs": [
        {
          "indexed": true,
          "internalType": "uint256",
          "name": "policyId",
          "type": "uint256"
        },
        {
          "indexed": true,
          "internalType": "address",
          "name": "policyholder",
          "type": "address"
        },
        {
          "indexed": false,
          "internalType": "string",
          "name": "policyType",
          "type": "string"
        }
      ],
      "name": "PolicyCreated",
      "type": "event"
    },
    {
      "anonymous": false,
      "inputs": [
        {
          "indexed": true,
          "internalType": "address",
          "name": "user",
          "type": "address"
        },
        {
          "indexed": false,
          "internalType": "uint32",
          "name": "reputation",
          "type": "uint32"
        }
      ],
      "name": "ReputationUpdated",
      "type": "event"
    },
    {
      "anonymous": false,
      "inputs": [
        {
          "indexed": true,
          "internalType": "address",
          "name": "policyholder",
          "type": "address"
        },
        {
          "indexed": false,
          "internalType": "uint32",
          "name": "riskScore",
          "type": "uint32"
        },
        {
          "indexed": false,
          "internalType": "bool",
          "name": "isVerified",
          "type": "bool"
        }
      ],
      "name": "RiskAssessed",
      "type": "event"
    },
    {
      "anonymous": false,
      "inputs": [
        {
          "indexed": true,
          "internalType": "uint256",
          "name": "settlementId",
          "type": "uint256"
        },
        {
          "indexed": true,
          "internalType": "uint256",
          "name": "claimId",
          "type": "uint256"
        },
        {
          "indexed": true,
          "internalType": "address",
          "name": "beneficiary",
          "type": "address"
        }
      ],
      "name": "SettlementCompleted",
      "type": "event"
    },
    {
      "anonymous": false,
      "inputs": [
        {
          "indexed": true,
          "internalType": "uint256",
          "name": "claimId",
          "type": "uint256"
        },
        {
          "indexed": true,
          "internalType": "address",
          "name": "claimant",
          "type": "address"
        },
        {
          "indexed": false,
          "internalType": "string",
          "name": "claimType",
          "type": "string"
        }
      ],
      "name": "SimpleClaimSubmitted",
      "type": "event"
    },
    {
      "inputs": [],
      "name": "adjuster",
      "outputs": [
        {
          "internalType": "address",
          "name": "",
          "type": "address"
        }
      ],
      "stateMutability": "view",
      "type": "function"
    },
    {
      "inputs": [
        {
          "internalType": "address",
          "name": "policyholder",
          "type": "address"
        },
        {
          "internalType": "externalEuint32",
          "name": "riskScore",
          "type": "bytes32"
        },
        {
          "internalType": "string",
          "name": "assessmentHash",
          "type": "string"
        },
        {
          "internalType": "bytes",
          "name": "inputProof",
          "type": "bytes"
        }
      ],
      "name": "assessRisk",
      "outputs": [],
      "stateMutability": "nonpayable",
      "type": "function"
    },
    {
      "inputs": [],
      "name": "claimCounter",
      "outputs": [
        {
          "internalType": "uint256",
          "name": "",
          "type": "uint256"
        }
      ],
      "stateMutability": "view",
      "type": "function"
    },
    {
      "inputs": [
        {
          "internalType": "uint256",
          "name": "",
          "type": "uint256"
        }
      ],
      "name": "claims",
      "outputs": [
        {
          "internalType": "euint32",
          "name": "claimId",
          "type": "bytes32"
        },
        {
          "internalType": "euint8",
          "name": "encryptedClaimType",
          "type": "bytes32"
        },
        {
          "internalType": "euint32",
          "name": "claimAmount",
          "type": "bytes32"
        },
        {
          "internalType": "euint32",
          "name": "policyId",
          "type": "bytes32"
        },
        {
          "internalType": "euint32",
          "name": "encryptedPolicyNumber",
          "type": "bytes32"
        },
        {
          "internalType": "euint32",
          "name": "encryptedContactInfo",
          "type": "bytes32"
        },
        {
          "internalType": "euint32",
          "name": "encryptedDescription",
          "type": "bytes32"
        },
        {
          "internalType": "bool",
          "name": "isApproved",
          "type": "bool"
        },
        {
          "internalType": "bool",
          "name": "isProcessed",
          "type": "bool"
        },
        {
          "internalType": "address",
          "name": "claimant",
          "type": "address"
        },
        {
          "internalType": "address",
          "name": "adjuster",
          "type": "address"
        },
        {
          "internalType": "uint256",
          "name": "submissionDate",
          "type": "uint256"
        },
        {
          "internalType": "uint256",
          "name": "processingDate",
          "type": "uint256"
        }
      ],
      "stateMutability": "view",
      "type": "function"
    },
    {
      "inputs": [
        {
          "internalType": "uint256",
          "name": "settlementId",
          "type": "uint256"
        },
        {
          "internalType": "string",
          "name": "settlementHash",
          "type": "string"
        }
      ],
      "name": "completeSettlement",
      "outputs": [],
      "stateMutability": "nonpayable",
      "type": "function"
    },
    {
      "inputs": [
        {
          "internalType": "string",
          "name": "_policyType",
          "type": "string"
        },
        {
          "internalType": "string",
          "name": "_description",
          "type": "string"
        },
        {
          "internalType": "externalEuint32",
          "name": "_premiumAmount",
          "type": "bytes32"
        },
        {
          "internalType": "externalEuint32",
          "name": "_coverageAmount",
          "type": "bytes32"
        },
        {
          "internalType": "uint256",
          "name": "_duration",
          "type": "uint256"
        },
        {
          "internalType": "bytes",
          "name": "inputProof",
          "type": "bytes"
        }
      ],
      "name": "createPolicy",
      "outputs": [
        {
          "internalType": "uint256",
          "name": "",
          "type": "uint256"
        }
      ],
      "stateMutability": "nonpayable",
      "type": "function"
    },
    {
      "inputs": [
        {
          "internalType": "address",
          "name": "_policyholder",
          "type": "address"
        },
        {
          "internalType": "string",
          "name": "_policyType",
          "type": "string"
        },
        {
          "internalType": "string",
          "name": "_description",
          "type": "string"
        },
        {
          "internalType": "uint256",
          "name": "_premiumAmount",
          "type": "uint256"
        },
        {
          "internalType": "uint256",
          "name": "_coverageAmount",
          "type": "uint256"
        },
        {
          "internalType": "uint256",
          "name": "_duration",
          "type": "uint256"
        }
      ],
      "name": "createPolicyForUser",
      "outputs": [
        {
          "internalType": "uint256",
          "name": "",
          "type": "uint256"
        }
      ],
      "stateMutability": "nonpayable",
      "type": "function"
    },
    {
      "inputs": [
        {
          "internalType": "string",
          "name": "_policyType",
          "type": "string"
        },
        {
          "internalType": "string",
          "name": "_description",
          "type": "string"
        },
        {
          "internalType": "uint256",
          "name": "_premiumAmount",
          "type": "uint256"
        },
        {
          "internalType": "uint256",
          "name": "_coverageAmount",
          "type": "uint256"
        },
        {
          "internalType": "uint256",
          "name": "_duration",
          "type": "uint256"
        }
      ],
      "name": "createSimplePolicy",
      "outputs": [
        {
          "internalType": "uint256",
          "name": "",
          "type": "uint256"
        }
      ],
      "stateMutability": "nonpayable",
      "type": "function"
    },
    {
      "inputs": [
        {
          "internalType": "uint256",
          "name": "claimId",
          "type": "uint256"
        }
      ],
      "name": "getClaimEncryptedAmount",
      "outputs": [
        {
          "internalType": "euint32",
          "name": "",
          "type": "bytes32"
        }
      ],
      "stateMutability": "view",
      "type": "function"
    },
    {
      "inputs": [
        {
          "internalType": "uint256",
          "name": "claimId",
          "type": "uint256"
        }
      ],
      "name": "getClaimEncryptedData",
      "outputs": [
        {
          "internalType": "euint8",
          "name": "",
          "type": "bytes32"
        },
        {
          "internalType": "euint32",
          "name": "",
          "type": "bytes32"
        },
        {
          "internalType": "euint32",
          "name": "",
          "type": "bytes32"
        },
        {
          "internalType": "euint32",
          "name": "",
          "type": "bytes32"
        },
        {
          "internalType": "euint32",
          "name": "",
          "type": "bytes32"
        }
      ],
      "stateMutability": "view",
      "type": "function"
    },
    {
      "inputs": [
        {
          "internalType": "uint256",
          "name": "claimId",
          "type": "uint256"
        }
      ],
      "name": "getClaimInfo",
      "outputs": [
        {
          "internalType": "euint32",
          "name": "claimAmount",
          "type": "bytes32"
        },
        {
          "internalType": "euint32",
          "name": "policyId",
          "type": "bytes32"
        },
        {
          "internalType": "bool",
          "name": "isApproved",
          "type": "bool"
        },
        {
          "internalType": "bool",
          "name": "isProcessed",
          "type": "bool"
        },
        {
          "internalType": "address",
          "name": "claimant",
          "type": "address"
        },
        {
          "internalType": "address",
          "name": "claimAdjuster",
          "type": "address"
        },
        {
          "internalType": "uint256",
          "name": "submissionDate",
          "type": "uint256"
        },
        {
          "internalType": "uint256",
          "name": "processingDate",
          "type": "uint256"
        }
      ],
      "stateMutability": "view",
      "type": "function"
    },
    {
      "inputs": [
        {
          "internalType": "address",
          "name": "insurer",
          "type": "address"
        }
      ],
      "name": "getInsurerReputation",
      "outputs": [
        {
          "internalType": "euint32",
          "name": "",
          "type": "bytes32"
        }
      ],
      "stateMutability": "view",
      "type": "function"
    },
    {
      "inputs": [
        {
          "internalType": "uint256",
          "name": "policyId",
          "type": "uint256"
        }
      ],
      "name": "getPolicyInfo",
      "outputs": [
        {
          "internalType": "string",
          "name": "policyType",
          "type": "string"
        },
        {
          "internalType": "string",
          "name": "description",
          "type": "string"
        },
        {
          "internalType": "euint32",
          "name": "premiumAmount",
          "type": "bytes32"
        },
        {
          "internalType": "euint32",
          "name": "coverageAmount",
          "type": "bytes32"
        },
        {
          "internalType": "euint32",
          "name": "claimCount",
          "type": "bytes32"
        },
        {
          "internalType": "bool",
          "name": "isActive",
          "type": "bool"
        },
        {
          "internalType": "bool",
          "name": "isVerified",
          "type": "bool"
        },
        {
          "internalType": "address",
          "name": "policyholder",
          "type": "address"
        },
        {
          "internalType": "address",
          "name": "insurer",
          "type": "address"
        },
        {
          "internalType": "uint256",
          "name": "startDate",
          "type": "uint256"
        },
        {
          "internalType": "uint256",
          "name": "endDate",
          "type": "uint256"
        }
      ],
      "stateMutability": "view",
      "type": "function"
    },
    {
      "inputs": [
        {
          "internalType": "address",
          "name": "policyholder",
          "type": "address"
        }
      ],
      "name": "getPolicyholderReputation",
      "outputs": [
        {
          "internalType": "euint32",
          "name": "",
          "type": "bytes32"
        }
      ],
      "stateMutability": "view",
      "type": "function"
    },
    {
      "inputs": [
        {
          "internalType": "uint256",
          "name": "claimId",
          "type": "uint256"
        }
      ],
      "name": "getRegularClaimEncryptedData",
      "outputs": [
        {
          "internalType": "euint8",
          "name": "",
          "type": "bytes32"
        },
        {
          "internalType": "euint32",
          "name": "",
          "type": "bytes32"
        },
        {
          "internalType": "euint32",
          "name": "",
          "type": "bytes32"
        },
        {
          "internalType": "euint32",
          "name": "",
          "type": "bytes32"
        },
        {
          "internalType": "euint32",
          "name": "",
          "type": "bytes32"
        }
      ],
      "stateMutability": "view",
      "type": "function"
    },
    {
      "inputs": [
        {
          "internalType": "address",
          "name": "policyholder",
          "type": "address"
        }
      ],
      "name": "getRiskAssessment",
      "outputs": [
        {
          "internalType": "euint32",
          "name": "riskScore",
          "type": "bytes32"
        },
        {
          "internalType": "euint32",
          "name": "riskLevel",
          "type": "bytes32"
        },
        {
          "internalType": "bool",
          "name": "isVerified",
          "type": "bool"
        },
        {
          "internalType": "string",
          "name": "assessmentHash",
          "type": "string"
        },
        {
          "internalType": "address",
          "name": "assessor",
          "type": "address"
        },
        {
          "internalType": "uint256",
          "name": "assessmentDate",
          "type": "uint256"
        }
      ],
      "stateMutability": "view",
      "type": "function"
    },
    {
      "inputs": [
        {
          "internalType": "uint256",
          "name": "settlementId",
          "type": "uint256"
        }
      ],
      "name": "getSettlementInfo",
      "outputs": [
        {
          "internalType": "euint32",
          "name": "claimId",
          "type": "bytes32"
        },
        {
          "internalType": "euint32",
          "name": "settlementAmount",
          "type": "bytes32"
        },
        {
          "internalType": "bool",
          "name": "isCompleted",
          "type": "bool"
        },
        {
          "internalType": "string",
          "name": "settlementHash",
          "type": "string"
        },
        {
          "internalType": "address",
          "name": "beneficiary",
          "type": "address"
        },
        {
          "internalType": "uint256",
          "name": "settlementDate",
          "type": "uint256"
        }
      ],
      "stateMutability": "view",
      "type": "function"
    },
    {
      "inputs": [
        {
          "internalType": "uint256",
          "name": "claimId",
          "type": "uint256"
        }
      ],
      "name": "getSimpleClaimInfo",
      "outputs": [
        {
          "internalType": "uint256",
          "name": "",
          "type": "uint256"
        },
        {
          "internalType": "address",
          "name": "",
          "type": "address"
        },
        {
          "internalType": "uint256",
          "name": "",
          "type": "uint256"
        },
        {
          "internalType": "bool",
          "name": "",
          "type": "bool"
        }
      ],
      "stateMutability": "view",
      "type": "function"
    },
    {
      "inputs": [],
      "name": "getTotalSimpleClaims",
      "outputs": [
        {
          "internalType": "uint256",
          "name": "",
          "type": "uint256"
        }
      ],
      "stateMutability": "view",
      "type": "function"
    },
    {
      "inputs": [
        {
          "internalType": "address",
          "name": "user",
          "type": "address"
        }
      ],
      "name": "getUserClaims",
      "outputs": [
        {
          "internalType": "uint256[]",
          "name": "",
          "type": "uint256[]"
        }
      ],
      "stateMutability": "view",
      "type": "function"
    },
    {
      "inputs": [
        {
          "internalType": "address",
          "name": "",
          "type": "address"
        }
      ],
      "name": "insurerReputation",
      "outputs": [
        {
          "internalType": "euint32",
          "name": "",
          "type": "bytes32"
        }
      ],
      "stateMutability": "view",
      "type": "function"
    },
    {
      "inputs": [
        {
          "internalType": "uint256",
          "name": "claimId",
          "type": "uint256"
        }
      ],
      "name": "markClaimAsDecrypted",
      "outputs": [],
      "stateMutability": "nonpayable",
      "type": "function"
    },
    {
      "inputs": [],
      "name": "owner",
      "outputs": [
        {
          "internalType": "address",
          "name": "",
          "type": "address"
        }
      ],
      "stateMutability": "view",
      "type": "function"
    },
    {
      "inputs": [
        {
          "internalType": "uint256",
          "name": "policyId",
          "type": "uint256"
        }
      ],
      "name": "payPremium",
      "outputs": [],
      "stateMutability": "payable",
      "type": "function"
    },
    {
      "inputs": [
        {
          "internalType": "uint256",
          "name": "",
          "type": "uint256"
        }
      ],
      "name": "policies",
      "outputs": [
        {
          "internalType": "euint32",
          "name": "policyId",
          "type": "bytes32"
        },
        {
          "internalType": "euint32",
          "name": "premiumAmount",
          "type": "bytes32"
        },
        {
          "internalType": "euint32",
          "name": "coverageAmount",
          "type": "bytes32"
        },
        {
          "internalType": "euint32",
          "name": "claimLimit",
          "type": "bytes32"
        },
        {
          "internalType": "euint32",
          "name": "claimCount",
          "type": "bytes32"
        },
        {
          "internalType": "bool",
          "name": "isActive",
          "type": "bool"
        },
        {
          "internalType": "bool",
          "name": "isVerified",
          "type": "bool"
        },
        {
          "internalType": "string",
          "name": "policyType",
          "type": "string"
        },
        {
          "internalType": "string",
          "name": "description",
          "type": "string"
        },
        {
          "internalType": "address",
          "name": "policyholder",
          "type": "address"
        },
        {
          "internalType": "address",
          "name": "insurer",
          "type": "address"
        },
        {
          "internalType": "uint256",
          "name": "startDate",
          "type": "uint256"
        },
        {
          "internalType": "uint256",
          "name": "endDate",
          "type": "uint256"
        }
      ],
      "stateMutability": "view",
      "type": "function"
    },
    {
      "inputs": [],
      "name": "policyCounter",
      "outputs": [
        {
          "internalType": "uint256",
          "name": "",
          "type": "uint256"
        }
      ],
      "stateMutability": "view",
      "type": "function"
    },
    {
      "inputs": [
        {
          "internalType": "address",
          "name": "",
          "type": "address"
        }
      ],
      "name": "policyholderReputation",
      "outputs": [
        {
          "internalType": "euint32",
          "name": "",
          "type": "bytes32"
        }
      ],
      "stateMutability": "view",
      "type": "function"
    },
    {
      "inputs": [
        {
          "internalType": "uint256",
          "name": "claimId",
          "type": "uint256"
        },
        {
          "internalType": "bool",
          "name": "isApproved",
          "type": "bool"
        },
        {
          "internalType": "externalEuint32",
          "name": "settlementAmount",
          "type": "bytes32"
        },
        {
          "internalType": "bytes",
          "name": "inputProof",
          "type": "bytes"
        }
      ],
      "name": "processClaim",
      "outputs": [
        {
          "internalType": "uint256",
          "name": "",
          "type": "uint256"
        }
      ],
      "stateMutability": "nonpayable",
      "type": "function"
    },
    {
      "inputs": [],
      "name": "protocolId",
      "outputs": [
        {
          "internalType": "uint256",
          "name": "",
          "type": "uint256"
        }
      ],
      "stateMutability": "pure",
      "type": "function"
    },
    {
      "inputs": [
        {
          "internalType": "address",
          "name": "",
          "type": "address"
        }
      ],
      "name": "riskAssessments",
      "outputs": [
        {
          "internalType": "euint32",
          "name": "riskScore",
          "type": "bytes32"
        },
        {
          "internalType": "euint32",
          "name": "riskLevel",
          "type": "bytes32"
        },
        {
          "internalType": "bool",
          "name": "isVerified",
          "type": "bool"
        },
        {
          "internalType": "string",
          "name": "assessmentHash",
          "type": "string"
        },
        {
          "internalType": "address",
          "name": "assessor",
          "type": "address"
        },
        {
          "internalType": "uint256",
          "name": "assessmentDate",
          "type": "uint256"
        }
      ],
      "stateMutability": "view",
      "type": "function"
    },
    {
      "inputs": [],
      "name": "settlementCounter",
      "outputs": [
        {
          "internalType": "uint256",
          "name": "",
          "type": "uint256"
        }
      ],
      "stateMutability": "view",
      "type": "function"
    },
    {
      "inputs": [
        {
          "internalType": "uint256",
          "name": "",
          "type": "uint256"
        }
      ],
      "name": "settlements",
      "outputs": [
        {
          "internalType": "euint32",
          "name": "settlementId",
          "type": "bytes32"
        },
        {
          "internalType": "euint32",
          "name": "claimId",
          "type": "bytes32"
        },
        {
          "internalType": "euint32",
          "name": "settlementAmount",
          "type": "bytes32"
        },
        {
          "internalType": "bool",
          "name": "isCompleted",
          "type": "bool"
        },
        {
          "internalType": "string",
          "name": "settlementHash",
          "type": "string"
        },
        {
          "internalType": "address",
          "name": "beneficiary",
          "type": "address"
        },
        {
          "internalType": "uint256",
          "name": "settlementDate",
          "type": "uint256"
        }
      ],
      "stateMutability": "view",
      "type": "function"
    },
    {
      "inputs": [],
      "name": "simpleClaimCounter",
      "outputs": [
        {
          "internalType": "uint256",
          "name": "",
          "type": "uint256"
        }
      ],
      "stateMutability": "view",
      "type": "function"
    },
    {
      "inputs": [
        {
          "internalType": "uint256",
          "name": "",
          "type": "uint256"
        }
      ],
      "name": "simpleClaims",
      "outputs": [
        {
          "internalType": "uint256",
          "name": "claimId",
          "type": "uint256"
        },
        {
          "internalType": "euint8",
          "name": "encryptedClaimType",
          "type": "bytes32"
        },
        {
          "internalType": "euint32",
          "name": "encryptedAmount",
          "type": "bytes32"
        },
        {
          "internalType": "euint32",
          "name": "encryptedPolicyNumber",
          "type": "bytes32"
        },
        {
          "internalType": "euint32",
          "name": "encryptedContactInfo",
          "type": "bytes32"
        },
        {
          "internalType": "euint32",
          "name": "encryptedDescription",
          "type": "bytes32"
        },
        {
          "internalType": "address",
          "name": "claimant",
          "type": "address"
        },
        {
          "internalType": "uint256",
          "name": "submissionDate",
          "type": "uint256"
        },
        {
          "internalType": "bool",
          "name": "isActive",
          "type": "bool"
        }
      ],
      "stateMutability": "view",
      "type": "function"
    },
    {
      "inputs": [
        {
          "internalType": "uint256",
          "name": "policyId",
          "type": "uint256"
        },
        {
          "internalType": "externalEuint8",
          "name": "claimTypeEncrypted",
          "type": "bytes32"
        },
        {
          "internalType": "externalEuint32",
          "name": "claimAmountEncrypted",
          "type": "bytes32"
        },
        {
          "internalType": "externalEuint32",
          "name": "policyNumberEncrypted",
          "type": "bytes32"
        },
        {
          "internalType": "externalEuint32",
          "name": "contactInfoEncrypted",
          "type": "bytes32"
        },
        {
          "internalType": "externalEuint32",
          "name": "descriptionEncrypted",
          "type": "bytes32"
        },
        {
          "internalType": "bytes",
          "name": "inputProof",
          "type": "bytes"
        }
      ],
      "name": "submitClaim",
      "outputs": [
        {
          "internalType": "uint256",
          "name": "",
          "type": "uint256"
        }
      ],
      "stateMutability": "nonpayable",
      "type": "function"
    },
    {
      "inputs": [
        {
          "internalType": "externalEuint8",
          "name": "claimTypeEncrypted",
          "type": "bytes32"
        },
        {
          "internalType": "externalEuint32",
          "name": "claimAmountEncrypted",
          "type": "bytes32"
        },
        {
          "internalType": "externalEuint32",
          "name": "policyNumberEncrypted",
          "type": "bytes32"
        },
        {
          "internalType": "externalEuint32",
          "name": "contactInfoEncrypted",
          "type": "bytes32"
        },
        {
          "internalType": "externalEuint32",
          "name": "descriptionEncrypted",
          "type": "bytes32"
        },
        {
          "internalType": "bytes",
          "name": "inputProof",
          "type": "bytes"
        }
      ],
      "name": "submitSimpleClaim",
      "outputs": [
        {
          "internalType": "uint256",
          "name": "",
          "type": "uint256"
        }
      ],
      "stateMutability": "nonpayable",
      "type": "function"
    },
    {
      "inputs": [
        {
          "internalType": "address",
          "name": "user",
          "type": "address"
        },
        {
          "internalType": "externalEuint32",
          "name": "reputation",
          "type": "bytes32"
        },
        {
          "internalType": "bytes",
          "name": "inputProof",
          "type": "bytes"
        }
      ],
      "name": "updateReputation",
      "outputs": [],
      "stateMutability": "nonpayable",
      "type": "function"
    },
    {
      "inputs": [
        {
          "internalType": "address",
          "name": "",
          "type": "address"
        },
        {
          "internalType": "uint256",
          "name": "",
          "type": "uint256"
        }
      ],
      "name": "userClaims",
      "outputs": [
        {
          "internalType": "uint256",
          "name": "",
          "type": "uint256"
        }
      ],
      "stateMutability": "view",
      "type": "function"
    },
    {
      "inputs": [],
      "name": "verifier",
      "outputs": [
        {
          "internalType": "address",
          "name": "",
          "type": "address"
        }
      ],
      "stateMutability": "view",
      "type": "function"
    },
    {
      "inputs": [
        {
          "internalType": "uint256",
          "name": "policyId",
          "type": "uint256"
        },
        {
          "internalType": "bool",
          "name": "isVerified",
          "type": "bool"
        }
      ],
      "name": "verifyPolicy",
      "outputs": [],
      "stateMutability": "nonpayable",
      "type": "function"
    },
    {
      "inputs": [
        {
          "internalType": "uint256",
          "name": "settlementId",
          "type": "uint256"
        }
      ],
      "name": "withdrawSettlement",
      "outputs": [],
      "stateMutability": "nonpayable",
      "type": "function"
    }
  ],
  "bytecode": "0x60806040523480156200001157600080fd5b50604051620045ab380380620045ab83398101604081905262000034916200020b565b620001b1620000d560408051608081018252600080825260208201819052918101829052606081019190915250604080516080810182527350157cffd6bbfa2dece204a89ec419c23ef5755d815273cd3ab3bd6bcc0c0bf3e27912a92043e817b1cf69602082015273a02cda4ca3a71d7c46997716f4283aa851c2881291810191909152731364cbbf2cdf5032c47d8226a6f6fbd2afcdacac606082015290565b80517f9e7b61f58c47dc699ac88507c4f5bb9f121c03808c5676a8078fe583e464970080546001600160a01b03199081166001600160a01b039384161790915560208301517f9e7b61f58c47dc699ac88507c4f5bb9f121c03808c5676a8078fe583e46497018054831691841691909117905560408301517f9e7b61f58c47dc699ac88507c4f5bb9f121c03808c5676a8078fe583e46497028054831691841691909117905560608301517f9e7b61f58c47dc699ac88507c4f5bb9f121c03808c5676a8078fe583e46497038054909216921691909117905550565b600c80546001600160a01b03199081163317909155600d80546001600160a01b03948516908316179055600e805492909316911617905562000243565b80516001600160a01b03811681146200020657600080fd5b919050565b600080604083850312156200021f57600080fd5b6200022a83620001ee565b91506200023a60208401620001ee565b90509250929050565b61435880620002536000396000f3fe6080604052600436106102465760003560e01c806384b971a511610139578063ad9cf181116100b6578063d20701931161007a578063d20701931461089c578063d3e894831461095c578063d52c1bea14610995578063da1f12ab146109ab578063da5687af146109c0578063db17bb4114610a8457600080fd5b8063ad9cf181146107d4578063b1d4bcca146107f4578063b9ca15cd1461083c578063be9895231461085c578063ca9748ea1461087c57600080fd5b80639765f633116100fd5780639765f6331461063657806397b7c29714610663578063a010454814610683578063a888c2cd146106b0578063ab6ad7fe146107b457600080fd5b806384b971a51461059457806387294c63146105aa5780638b0cde62146105ca5780638da5cb5b146105df5780639588d85b146105ff57600080fd5b806328335e74116101c75780635eb476491161018b5780635eb47649146104bf57806371892da8146104df5780637bcb4a64146105115780637d69301b1461053e57806380e4f9c21461055e57600080fd5b806328335e74146103c35780632b7ac3f31461043e5780634364b26e146104765780634efa8f17146104895780635278a5ea1461049f57600080fd5b8063142834dd1161020e578063142834dd1461031757806316d8950d1461033757806319c976f71461035757806323d336261461038d578063258cdc6d146103ad57600080fd5b806306b301271461024b57806306fda44f1461026d57806308df7dc81461028d5780630a59d872146102c95780630f5d1b47146102f7575b600080fd5b34801561025757600080fd5b5061026b6102663660046137ba565b610aa4565b005b34801561027957600080fd5b5061026b6102883660046137e8565b610ba6565b34801561029957600080fd5b506102ad6102a83660046137ba565b610c93565b6040516102c0979695949392919061385a565b60405180910390f35b3480156102d557600080fd5b506102e96102e4366004613992565b610d68565b6040519081526020016102c0565b34801561030357600080fd5b5061026b610312366004613a55565b6110b2565b34801561032357600080fd5b5061026b6103323660046137ba565b61133b565b34801561034357600080fd5b506102e96103523660046137ba565b611423565b34801561036357600080fd5b506102e9610372366004613ada565b6001600160a01b031660009081526005602052604090205490565b34801561039957600080fd5b5061026b6103a8366004613af5565b6114aa565b3480156103b957600080fd5b506102e9600b5481565b3480156103cf57600080fd5b506104146103de3660046137ba565b6000908152600660208190526040909120805491810154600782015460089092015492936001600160a01b039091169260ff1690565b604080519485526001600160a01b03909316602085015291830152151560608201526080016102c0565b34801561044a57600080fd5b50600d5461045e906001600160a01b031681565b6040516001600160a01b0390911681526020016102c0565b61026b6104843660046137ba565b61165a565b34801561049557600080fd5b506102e960095481565b3480156104ab57600080fd5b506102e96104ba366004613b3c565b611749565b3480156104cb57600080fd5b5061026b6104da366004613b93565b611aed565b3480156104eb57600080fd5b506104ff6104fa3660046137ba565b611d00565b6040516102c096959493929190613bed565b34801561051d57600080fd5b5061053161052c366004613ada565b611df3565b6040516102c09190613c32565b34801561054a57600080fd5b506102e9610559366004613c76565b611e5f565b34801561056a57600080fd5b506102e9610579366004613ada565b6001600160a01b031660009081526004602052604090205490565b3480156105a057600080fd5b506102e9600a5481565b3480156105b657600080fd5b506102e96105c5366004613cf5565b612163565b3480156105d657600080fd5b50600b546102e9565b3480156105eb57600080fd5b50600c5461045e906001600160a01b031681565b34801561060b57600080fd5b5061061f61061a3660046137ba565b61262f565b6040516102c09b9a99989796959493929190613d72565b34801561064257600080fd5b506102e9610651366004613ada565b60056020526000908152604090205481565b34801561066f57600080fd5b506102e961067e366004613dee565b6127e8565b34801561068f57600080fd5b506102e961069e366004613ada565b60046020526000908152604090205481565b3480156106bc57600080fd5b506107426106cb3660046137ba565b600160208190526000918252604090912080549181015460028201546003830154600484015460058501546006860154600787015460088801546009890154600a9099015497989697959694959394929360ff808416946101008504909116936001600160a01b036201000090910481169316918d565b604080519d8e5260208e019c909c529a8c019990995260608b019790975260808a019590955260a089019390935260c0880191909152151560e087015215156101008601526001600160a01b03908116610120860152166101408401526101608301526101808201526101a0016102c0565b3480156107c057600080fd5b506104ff6107cf366004613ada565b612c6d565b3480156107e057600080fd5b506102e96107ef366004613e4f565b612ccd565b34801561080057600080fd5b5061081461080f3660046137ba565b613037565b604080519586526020860194909452928401919091526060830152608082015260a0016102c0565b34801561084857600080fd5b506108146108573660046137ba565b6130e7565b34801561086857600080fd5b50600e5461045e906001600160a01b031681565b34801561088857600080fd5b506102e9610897366004613edf565b6131a4565b3480156108a857600080fd5b5061090f6108b73660046137ba565b600090815260016020526040902060028101546003820154600783015460088401546009850154600a909501549395929460ff80841695610100850490911694620100009094046001600160a01b0390811694931692565b6040805198895260208901979097529415159587019590955291151560608601526001600160a01b0390811660808601521660a084015260c083019190915260e0820152610100016102c0565b34801561096857600080fd5b5061097c6109773660046137ba565b6131d5565b6040516102c09d9c9b9a99989796959493929190613f09565b3480156109a157600080fd5b506102e960085481565b3480156109b757600080fd5b506127116102e9565b3480156109cc57600080fd5b50610a356109db3660046137ba565b60066020819052600091825260409091208054600182015460028301546003840154600485015460058601549686015460078701546008909701549597949693959294919391926001600160a01b03909116919060ff1689565b60408051998a5260208a0198909852968801959095526060870193909352608086019190915260a08501526001600160a01b031660c084015260e08301521515610100820152610120016102c0565b348015610a9057600080fd5b506104ff610a9f366004613ada565b613360565b600081815260066020819052604090912001546001600160a01b03163314610b1f5760405162461bcd60e51b815260206004820152602360248201527f4f6e6c7920636c61696d616e742063616e206d61726b206173206465637279706044820152621d195960ea1b60648201526084015b60405180910390fd5b60008181526006602052604090206008015460ff16610b765760405162461bcd60e51b8152602060048201526013602482015272436c61696d206973206e6f742061637469766560681b6044820152606401610b16565b604051339082907faa7324ada1ab84655c9ef0ae2f2a0f13f240ca11235d1f1d161dd08e83f4a37390600090a350565b600d546001600160a01b03163314610c0a5760405162461bcd60e51b815260206004820152602160248201527f4f6e6c792076657269666965722063616e2076657269667920706f6c696369656044820152607360f81b6064820152608401610b16565b6000828152602081905260409020600801546001600160a01b0316610c695760405162461bcd60e51b8152602060048201526015602482015274141bdb1a58de48191bd95cc81b9bdd08195e1a5cdd605a1b6044820152606401610b16565b60009182526020829052604090912060050180549115156101000261ff0019909216919091179055565b600260208190526000918252604090912080546001820154928201546003830154600484018054939594929360ff9092169291610ccf90613fa6565b80601f0160208091040260200160405190810160405280929190818152602001828054610cfb90613fa6565b8015610d485780601f10610d1d57610100808354040283529160200191610d48565b820191906000526020600020905b815481529060010190602001808311610d2b57829003601f168201915b50505050600583015460069093015491926001600160a01b031691905087565b600080885111610d8a5760405162461bcd60e51b8152600401610b1690613fe0565b60008411610daa5760405162461bcd60e51b8152600401610b1690614017565b6008805460009182610dbb83614064565b9190505590506000610e038886868080601f01602080910402602001604051908101604052809392919081815260200183838082843760009201919091525061342e92505050565b90506000610e478887878080601f01602080910402602001604051908101604052809392919081815260200183838082843760009201919091525061342e92505050565b9050604051806101a00160405280610e5e85613445565b8152602001838152602001828152602001610e79600a613445565b8152602001610e886000613445565b81526001602082015260006040820152606081018d9052608081018c90523360a08201523060c08201524260e0820181905261010090910190610ecc908a9061407d565b90526000848152602081815260409182902083518155908301516001820155908201516002820155606082015160038201556080820151600482015560a082015160058201805460c085015115156101000261ff00199315159390931661ffff199091161791909117905560e08201516006820190610f4b90826140e1565b506101008201516007820190610f6190826140e1565b506101208201516008820180546001600160a01b039283166001600160a01b031991821617909155610140840151600984018054919093169116179055610160820151600a82015561018090910151600b90910155600083815260208190526040902060010154610fd190613458565b50600083815260208190526040902060020154610fed90613458565b5060008381526020819052604090206004015461100990613458565b506000838152602081905260409020600101546110269033613468565b506000838152602081905260409020600201546110439033613468565b506000838152602081905260409020600401546110609033613468565b50336001600160a01b0316837f21d0178f0cde2aed24022db30651dabafb4bbe431fb787fbc92113304d8e35498d60405161109b91906141a1565b60405180910390a350909998505050505050505050565b600d546001600160a01b0316331461110c5760405162461bcd60e51b815260206004820152601d60248201527f4f6e6c792076657269666965722063616e20617373657373207269736b0000006044820152606401610b16565b6001600160a01b0385166111625760405162461bcd60e51b815260206004820152601c60248201527f496e76616c696420706f6c696379686f6c6465722061646472657373000000006044820152606401610b16565b60006111a48584848080601f01602080910402602001604051908101604052809392919081815260200183838082843760009201919091525061342e92505050565b905060006111b26002613445565b6040805160c08101825284815260208082018481526001838501818152606085018c81523360808701524260a08701526001600160a01b038f16600090815260039586905296909620855181559251918301919091555160028201805460ff1916911515919091179055925193945090929082019061123190826140e1565b5060808201516004820180546001600160a01b0319166001600160a01b0392831617905560a090920151600590910155871660009081526003602052604090205461127b90613458565b506001600160a01b0387166000908152600360205260409020600101546112a190613458565b506001600160a01b0387166000908152600360205260409020546112c59088613468565b506001600160a01b0387166000908152600360205260409020600101546112ec9088613468565b506040805160008152600160208201526001600160a01b038916917f1ef7fd80e21f3c38933a6346a8c915f88db9aea8126a6b01825f1bdae1f785d9910160405180910390a250505050505050565b6000818152600260205260409020600501546001600160a01b031633146113a45760405162461bcd60e51b815260206004820152601d60248201527f4f6e6c792062656e65666963696172792063616e2077697468647261770000006044820152606401610b16565b60008181526002602052604090206003015460ff166114055760405162461bcd60e51b815260206004820152601c60248201527f536574746c656d656e74206d75737420626520636f6d706c65746564000000006044820152606401610b16565b6000908152600260205260409020600301805460ff19166001179055565b6000818152600660208190526040822001546001600160a01b031661145a5760405162461bcd60e51b8152600401610b16906141b4565b600082815260066020819052604090912001546001600160a01b031633146114945760405162461bcd60e51b8152600401610b16906141e2565b5060009081526006602052604090206002015490565b600e546001600160a01b031633146115135760405162461bcd60e51b815260206004820152602660248201527f4f6e6c792061646a75737465722063616e20636f6d706c65746520736574746c604482015265656d656e747360d01b6064820152608401610b16565b6000828152600260205260409020600501546001600160a01b031661157a5760405162461bcd60e51b815260206004820152601960248201527f536574746c656d656e7420646f6573206e6f74206578697374000000000000006044820152606401610b16565b60008281526002602052604090206003015460ff16156115dc5760405162461bcd60e51b815260206004820152601c60248201527f536574746c656d656e7420616c726561647920636f6d706c65746564000000006044820152606401610b16565b600082815260026020526040902060038101805460ff1916600117905560040161160682826140e1565b506000828152600260205260408082204260068201556005015490516001600160a01b03909116919084907fefea8d85753e9071e1b815c2c617dd6757dca98eb83158c16af00672ee0b9932908390a45050565b6000818152602081905260409020600801546001600160a01b031633146116cd5760405162461bcd60e51b815260206004820152602160248201527f4f6e6c7920706f6c696379686f6c6465722063616e20706179207072656d69756044820152606d60f81b6064820152608401610b16565b60008181526020819052604090206005015460ff166117265760405162461bcd60e51b8152602060048201526015602482015274506f6c696379206d7573742062652061637469766560581b6044820152606401610b16565b600034116117465760405162461bcd60e51b8152600401610b1690614229565b50565b600e546000906001600160a01b031633146117a65760405162461bcd60e51b815260206004820181905260248201527f4f6e6c792061646a75737465722063616e2070726f6365737320636c61696d736044820152606401610b16565b6000868152600160205260409020600701546201000090046001600160a01b03166117e35760405162461bcd60e51b8152600401610b16906141b4565b600086815260016020526040902060070154610100900460ff161561184a5760405162461bcd60e51b815260206004820152601760248201527f436c61696d20616c72656164792070726f6365737365640000000000000000006044820152606401610b16565b600086815260016020526040812060078101805461ff0019891580159190911661ffff1990921691909117610100179091556008820180546001600160a01b0319163317905542600a90920191909155611aa457600a80549060006118ae83614064565b91905055905060006118f68686868080601f01602080910402602001604051908101604052809392919081815260200183838082843760009201919091525061342e92505050565b90506040518060e0016040528061190c84613445565b815260200161191a8a613445565b8152602080820184905260006040808401829052805180840182528281526060808601919091528d83526001808552828420600701546201000090046001600160a01b031660808088019190915260a0909601849052888452600280865293839020875181559487015190850155908501519183019190915583015160038201805460ff19169115159190911790559082015160048201906119bc90826140e1565b5060a08201516005820180546001600160a01b0319166001600160a01b0390921691909117905560c09091015160069091015560008281526002602081905260409091200154611a0b90613458565b50600082815260026020526040902060010154611a2790613458565b506000828152600260208181526040808420909201548b84526001909152912060070154611a6491906201000090046001600160a01b0316613468565b5060008281526002602090815260408083206001908101548c8552925290912060070154611aa191906201000090046001600160a01b0316613468565b50505b6040805187151581526000602082015288917f2b9c0ffbed8895983b11e6bb3b18dc85a60900f9af24a06fa36a9a6eca895815910160405180910390a290505b95945050505050565b600d546001600160a01b03163314611b535760405162461bcd60e51b815260206004820152602360248201527f4f6e6c792076657269666965722063616e20757064617465207265707574617460448201526234b7b760e91b6064820152608401610b16565b6001600160a01b038416611ba05760405162461bcd60e51b8152602060048201526014602482015273496e76616c69642075736572206164647265737360601b6044820152606401610b16565b6000611be28484848080601f01602080910402602001604051908101604052809392919081815260200183838082843760009201919091525061342e92505050565b9050846001600160a01b03166000806001600854611c009190614260565b81526020810191909152604001600020600801546001600160a01b031603611c70576001600160a01b0385166000908152600460205260409020819055611c4681613458565b506001600160a01b038516600090815260046020526040902054611c6a9086613468565b50611cba565b6001600160a01b0385166000908152600560205260409020819055611c9481613458565b506001600160a01b038516600090815260056020526040902054611cb89086613468565b505b604051600081526001600160a01b038616907fbc29a8e6655836a9c09ee2d874d0ec6df064e0b7d9d9dd0f097ad3f2874ed9869060200160405180910390a25050505050565b60008181526002602081905260408220600181015491810154600382015460058301546006840154600485018054889788976060978997889792969395919460ff9091169391926001600160a01b031691908390611d5d90613fa6565b80601f0160208091040260200160405190810160405280929190818152602001828054611d8990613fa6565b8015611dd65780601f10611dab57610100808354040283529160200191611dd6565b820191906000526020600020905b815481529060010190602001808311611db957829003601f168201915b505050505092509650965096509650965096505091939550919395565b6001600160a01b038116600090815260076020908152604091829020805483518184028101840190945280845260609392830182828015611e5357602002820191906000526020600020905b815481526020019060010190808311611e3f575b50505050509050919050565b600080865111611e815760405162461bcd60e51b8152600401610b1690613fe0565b60008211611ea15760405162461bcd60e51b8152600401610b1690614017565b60008411611ec15760405162461bcd60e51b8152600401610b1690614229565b60008311611f115760405162461bcd60e51b815260206004820181905260248201527f436f76657261676520616d6f756e74206d75737420626520706f7369746976656044820152606401610b16565b6008805460009182611f2283614064565b919050559050604051806101a00160405280611f3d83613445565b8152602001611f4b87613445565b8152602001611f5986613445565b8152602001611f68600a613445565b8152602001611f776000613445565b8152600160208201819052604082015260608101899052608081018890523360a08201523060c08201524260e0820181905261010090910190611fbb90869061407d565b90526000828152602081815260409182902083518155908301516001820155908201516002820155606082015160038201556080820151600482015560a082015160058201805460c085015115156101000261ff00199315159390931661ffff199091161791909117905560e0820151600682019061203a90826140e1565b50610100820151600782019061205090826140e1565b506101208201516008820180546001600160a01b039283166001600160a01b031991821617909155610140840151600984018054919093169116179055610160820151600a82015561018090910151600b909101556000818152602081905260409020600101546120c090613458565b506000818152602081905260409020600101546120dd9033613468565b506000818152602081905260409020600201546120f990613458565b506000818152602081905260409020600201546121169033613468565b50336001600160a01b0316817f21d0178f0cde2aed24022db30651dabafb4bbe431fb787fbc92113304d8e35498960405161215191906141a1565b60405180910390a39695505050505050565b6000888152602081905260408120600801546001600160a01b031633146121d85760405162461bcd60e51b815260206004820152602360248201527f4f6e6c7920706f6c696379686f6c6465722063616e207375626d697420636c61604482015262696d7360e81b6064820152608401610b16565b60008981526020819052604090206005015460ff166122315760405162461bcd60e51b8152602060048201526015602482015274506f6c696379206d7573742062652061637469766560581b6044820152606401610b16565b6000898152602081905260409020600b01544211156122875760405162461bcd60e51b8152602060048201526012602482015271141bdb1a58de481a185cc8195e1c1a5c995960721b6044820152606401610b16565b600980546000918261229883614064565b9091555060008181526001602052604090209091506122b682613445565b8155604080516020601f87018190048102820181019092528581526122f8918c9190889088908190840183828082843760009201919091525061347b92505050565b81600101819055506123408986868080601f01602080910402602001604051908101604052809392919081815260200183838082843760009201919091525061342e92505050565b600282015561234e8b613445565b81600301819055506123968886868080601f01602080910402602001604051908101604052809392919081815260200183838082843760009201919091525061342e92505050565b81600401819055506123de8786868080601f01602080910402602001604051908101604052809392919081815260200183838082843760009201919091525061342e92505050565b81600501819055506124268686868080601f01602080910402602001604051908101604052809392919081815260200183838082843760009201919091525061342e92505050565b60068201556007810180546001600160b01b0319163362010000021790556008810180546001600160a01b03191690554260098201556000600a82018190558281526001602052604090206002015461247e90613458565b5060008281526001602052604090206003015461249a90613458565b50600082815260016020819052604090912001546124b790613458565b506000828152600160205260409020600401546124d390613458565b506000828152600160205260409020600501546124ef90613458565b5060008281526001602052604090206006015461250b90613458565b506000828152600160205260409020600201546125289033613468565b506000828152600160205260409020600301546125459033613468565b50600082815260016020819052604090912001546125639033613468565b506000828152600160205260409020600401546125809033613468565b5060008281526001602052604090206005015461259d9033613468565b506000828152600160205260409020600601546125ba9033613468565b5060008b8152602081905260409020600401546125e0906125db6001613445565b613489565b60008c81526020819052604080822060040192909255905133918d9185917f9fe11e531030a058803617055e27f9f4768236e4322e13b9c4c09f4338e23a6891a4509998505050505050505050565b6000818152602081905260408120600181015460028201546004830154600584015460088501546009860154600a870154600b88015460068901805460609b8c9b909a8b9a8b9a8b9a8b9a8b9a8b9a8b9a8b9a989960078b019897969560ff8082169661010090920416946001600160a01b039182169491169290918b906126b690613fa6565b80601f01602080910402602001604051908101604052809291908181526020018280546126e290613fa6565b801561272f5780601f106127045761010080835404028352916020019161272f565b820191906000526020600020905b81548152906001019060200180831161271257829003601f168201915b50505050509a5089805461274290613fa6565b80601f016020809104026020016040519081016040528092919081815260200182805461276e90613fa6565b80156127bb5780601f10612790576101008083540402835291602001916127bb565b820191906000526020600020905b81548152906001019060200180831161279e57829003601f168201915b505050505099509b509b509b509b509b509b509b509b509b509b509b505091939597999b90929496989a50565b6000806008541161282f5760405162461bcd60e51b8152602060048201526011602482015270139bc81c1bdb1a58da595cc8195e1a5cdd607a1b6044820152606401610b16565b600b80546000918261284083614064565b91905055905060006128888a86868080601f01602080910402602001604051908101604052809392919081815260200183838082843760009201919091525061347b92505050565b905060006128cc8a87878080601f01602080910402602001604051908101604052809392919081815260200183838082843760009201919091525061342e92505050565b905060006129108a88888080601f01602080910402602001604051908101604052809392919081815260200183838082843760009201919091525061342e92505050565b905060006129548a89898080601f01602080910402602001604051908101604052809392919081815260200183838082843760009201919091525061342e92505050565b905060006129988a8a8a8080601f01602080910402602001604051908101604052809392919081815260200183838082843760009201919091525061342e92505050565b9050604051806101200160405280878152602001868152602001858152602001848152602001838152602001828152602001336001600160a01b031681526020014281526020016001151581525060066000888152602001908152602001600020600082015181600001556020820151816001015560408201518160020155606082015181600301556080820151816004015560a0820151816005015560c08201518160060160006101000a8154816001600160a01b0302191690836001600160a01b0316021790555060e082015181600701556101008201518160080160006101000a81548160ff02191690831515021790555090505060076000336001600160a01b03166001600160a01b03168152602001908152602001600020869080600181540180825580915050600190039060005260206000200160009091909190915055612afb6006600088815260200190815260200160002060020154613458565b50600086815260066020526040902060020154612b189033613468565b50600086815260066020526040902060010154612b3490613458565b50600086815260066020526040902060010154612b519033613468565b50600086815260066020526040902060030154612b6d90613458565b50600086815260066020526040902060030154612b8a9033613468565b50600086815260066020526040902060040154612ba690613458565b50600086815260066020526040902060040154612bc39033613468565b50600086815260066020526040902060050154612bdf90613458565b50600086815260066020526040902060050154612bfc9033613468565b50336001600160a01b0316867ff47cb144d57e1368191d1eb3128105958679a0866070b8ff2aa2c464ed8ed381604051612c5390602080825260099082015268195b98dc9e5c1d195960ba1b604082015260600190565b60405180910390a350939c9b505050505050505050505050565b6001600160a01b03808216600090815260036020819052604082208054600182015460028301546004840154600585015495850180549798899889986060988a98899891979096919560ff909116949093911691908390611d5d90613fa6565b600080865111612cef5760405162461bcd60e51b8152600401610b1690613fe0565b60008211612d0f5760405162461bcd60e51b8152600401610b1690614017565b60008411612d2f5760405162461bcd60e51b8152600401610b1690614229565b60008311612d7f5760405162461bcd60e51b815260206004820181905260248201527f436f76657261676520616d6f756e74206d75737420626520706f7369746976656044820152606401610b16565b6001600160a01b038716612dd55760405162461bcd60e51b815260206004820152601c60248201527f496e76616c696420706f6c696379686f6c6465722061646472657373000000006044820152606401610b16565b6008805460009182612de683614064565b919050559050604051806101a00160405280612e0183613445565b8152602001612e0f87613445565b8152602001612e1d86613445565b8152602001612e2c600a613445565b8152602001612e3b6000613445565b8152602001600115158152602001600115158152602001888152602001878152602001896001600160a01b03168152602001306001600160a01b031681526020014281526020018442612e8e919061407d565b90526000828152602081815260409182902083518155908301516001820155908201516002820155606082015160038201556080820151600482015560a082015160058201805460c085015115156101000261ff00199315159390931661ffff199091161791909117905560e08201516006820190612f0d90826140e1565b506101008201516007820190612f2390826140e1565b506101208201516008820180546001600160a01b039283166001600160a01b031991821617909155610140840151600984018054919093169116179055610160820151600a82015561018090910151600b90910155600081815260208190526040902060010154612f9390613458565b50600081815260208190526040902060010154612fb09089613468565b50600081815260208190526040902060020154612fcc90613458565b50600081815260208190526040902060020154612fe99089613468565b50876001600160a01b0316817f21d0178f0cde2aed24022db30651dabafb4bbe431fb787fbc92113304d8e35498960405161302491906141a1565b60405180910390a3979650505050505050565b60008181526006602081905260408220015481908190819081906001600160a01b03166130765760405162461bcd60e51b8152600401610b16906141b4565b600086815260066020819052604090912001546001600160a01b031633146130b05760405162461bcd60e51b8152600401610b16906141e2565b5050506000928352505060066020526040902060018101546002820154600383015460048401546005909401549294919390929091565b60008181526001602052604081206007015481908190819081906201000090046001600160a01b031661312c5760405162461bcd60e51b8152600401610b16906141b4565b6000868152600160205260409020600701546201000090046001600160a01b0316331461316b5760405162461bcd60e51b8152600401610b16906141e2565b50505060009283525050600160208190526040909120908101546002820154600483015460058401546006909401549294919390929091565b600760205281600052604060002081815481106131c057600080fd5b90600052602060002001600091509150505481565b60006020819052908152604090208054600182015460028301546003840154600485015460058601546006870180549697959694959394929360ff80841694610100909404169290919061322890613fa6565b80601f016020809104026020016040519081016040528092919081815260200182805461325490613fa6565b80156132a15780601f10613276576101008083540402835291602001916132a1565b820191906000526020600020905b81548152906001019060200180831161328457829003601f168201915b5050505050908060070180546132b690613fa6565b80601f01602080910402602001604051908101604052809291908181526020018280546132e290613fa6565b801561332f5780601f106133045761010080835404028352916020019161332f565b820191906000526020600020905b81548152906001019060200180831161331257829003601f168201915b5050505060088301546009840154600a850154600b9095015493946001600160a01b0392831694929091169250908d565b600360208190526000918252604090912080546001820154600283015493830180549294919360ff9092169261339590613fa6565b80601f01602080910402602001604051908101604052809291908181526020018280546133c190613fa6565b801561340e5780601f106133e35761010080835404028352916020019161340e565b820191906000526020600020905b8154815290600101906020018083116133f157829003601f168201915b50505050600483015460059093015491926001600160a01b031691905086565b600061343c838360046134bb565b90505b92915050565b600061343f8263ffffffff1660046135d2565b60006134648230613681565b5090565b60006134748383613681565b5090919050565b600061343c838360026134bb565b60008261349d5761349a6000613445565b92505b816134af576134ac6000613445565b91505b61343c838360006136fe565b7f9e7b61f58c47dc699ac88507c4f5bb9f121c03808c5676a8078fe583e46497015460405163196d0b9b60e01b8152600091600080516020614303833981519152916001600160a01b039091169063196d0b9b90613523908890339089908990600401614295565b6020604051808303816000875af1158015613542573d6000803e3d6000fd5b505050506040513d601f19601f8201168201806040525081019061356691906142ce565b8154604051630f8e573b60e21b8152600481018390523360248201529193506001600160a01b031690633e395cec90604401600060405180830381600087803b1580156135b257600080fd5b505af11580156135c6573d6000803e3d6000fd5b50505050509392505050565b7f9e7b61f58c47dc699ac88507c4f5bb9f121c03808c5676a8078fe583e464970154604051639cd07acb60e01b8152600091600080516020614303833981519152916001600160a01b0390911690639cd07acb9061363690879087906004016142e7565b6020604051808303816000875af1158015613655573d6000803e3d6000fd5b505050506040513d601f19601f8201168201806040525081019061367991906142ce565b949350505050565b60006000805160206143038339815191528054604051635ca4b5b160e11b8152600481018690526001600160a01b03858116602483015292935091169063b9496b6290604401600060405180830381600087803b1580156136e157600080fd5b505af11580156136f5573d6000803e3d6000fd5b50505050505050565b60008082156137125750600160f81b613716565b5060005b6000600080516020614303833981519152600181015460405163022f65e760e31b815260048101899052602481018890526001600160f81b0319851660448201529192506001600160a01b03169063117b2f38906064016020604051808303816000875af115801561378c573d6000803e3d6000fd5b505050506040513d601f19601f820116820180604052508101906137b091906142ce565b9695505050505050565b6000602082840312156137cc57600080fd5b5035919050565b803580151581146137e357600080fd5b919050565b600080604083850312156137fb57600080fd5b8235915061380b602084016137d3565b90509250929050565b6000815180845260005b8181101561383a5760208185018101518683018201520161381e565b506000602082860101526020601f19601f83011685010191505092915050565b878152866020820152856040820152841515606082015260e06080820152600061388760e0830186613814565b6001600160a01b039490941660a08301525060c0015295945050505050565b634e487b7160e01b600052604160045260246000fd5b600082601f8301126138cd57600080fd5b813567ffffffffffffffff808211156138e8576138e86138a6565b604051601f8301601f19908116603f01168101908282118183101715613910576139106138a6565b8160405283815286602085880101111561392957600080fd5b836020870160208301376000602085830101528094505050505092915050565b60008083601f84011261395b57600080fd5b50813567ffffffffffffffff81111561397357600080fd5b60208301915083602082850101111561398b57600080fd5b9250929050565b600080600080600080600060c0888a0312156139ad57600080fd5b873567ffffffffffffffff808211156139c557600080fd5b6139d18b838c016138bc565b985060208a01359150808211156139e757600080fd5b6139f38b838c016138bc565b975060408a0135965060608a0135955060808a0135945060a08a0135915080821115613a1e57600080fd5b50613a2b8a828b01613949565b989b979a50959850939692959293505050565b80356001600160a01b03811681146137e357600080fd5b600080600080600060808688031215613a6d57600080fd5b613a7686613a3e565b945060208601359350604086013567ffffffffffffffff80821115613a9a57600080fd5b613aa689838a016138bc565b94506060880135915080821115613abc57600080fd5b50613ac988828901613949565b969995985093965092949392505050565b600060208284031215613aec57600080fd5b61343c82613a3e565b60008060408385031215613b0857600080fd5b82359150602083013567ffffffffffffffff811115613b2657600080fd5b613b32858286016138bc565b9150509250929050565b600080600080600060808688031215613b5457600080fd5b85359450613b64602087016137d3565b935060408601359250606086013567ffffffffffffffff811115613b8757600080fd5b613ac988828901613949565b60008060008060608587031215613ba957600080fd5b613bb285613a3e565b935060208501359250604085013567ffffffffffffffff811115613bd557600080fd5b613be187828801613949565b95989497509550505050565b868152856020820152841515604082015260c060608201526000613c1460c0830186613814565b6001600160a01b039490941660808301525060a00152949350505050565b6020808252825182820181905260009190848201906040850190845b81811015613c6a57835183529284019291840191600101613c4e565b50909695505050505050565b600080600080600060a08688031215613c8e57600080fd5b853567ffffffffffffffff80821115613ca657600080fd5b613cb289838a016138bc565b96506020880135915080821115613cc857600080fd5b50613cd5888289016138bc565b959895975050505060408401359360608101359360809091013592509050565b60008060008060008060008060e0898b031215613d1157600080fd5b883597506020890135965060408901359550606089013594506080890135935060a0890135925060c089013567ffffffffffffffff811115613d5257600080fd5b613d5e8b828c01613949565b999c989b5096995094979396929594505050565b6000610160808352613d868184018f613814565b90508281036020840152613d9a818e613814565b604084019c909c5250506060810198909852608088019690965293151560a087015291151560c08601526001600160a01b0390811660e0860152166101008401526101208301526101409091015292915050565b600080600080600080600060c0888a031215613e0957600080fd5b873596506020880135955060408801359450606088013593506080880135925060a088013567ffffffffffffffff811115613e4357600080fd5b613a2b8a828b01613949565b60008060008060008060c08789031215613e6857600080fd5b613e7187613a3e565b9550602087013567ffffffffffffffff80821115613e8e57600080fd5b613e9a8a838b016138bc565b96506040890135915080821115613eb057600080fd5b50613ebd89828a016138bc565b945050606087013592506080870135915060a087013590509295509295509295565b60008060408385031215613ef257600080fd5b613efb83613a3e565b946020939093013593505050565b60006101a08f83528e60208401528d60408401528c60608401528b60808401528a151560a084015289151560c08401528060e0840152613f4b8184018a613814565b9050828103610100840152613f608189613814565b915050613f796101208301876001600160a01b03169052565b6001600160a01b03851661014083015261016082019390935261018001529b9a5050505050505050505050565b600181811c90821680613fba57607f821691505b602082108103613fda57634e487b7160e01b600052602260045260246000fd5b50919050565b6020808252601b908201527f506f6c69637920747970652063616e6e6f7420626520656d7074790000000000604082015260600190565b60208082526019908201527f4475726174696f6e206d75737420626520706f73697469766500000000000000604082015260600190565b634e487b7160e01b600052601160045260246000fd5b6000600182016140765761407661404e565b5060010190565b8082018082111561343f5761343f61404e565b601f8211156140dc576000816000526020600020601f850160051c810160208610156140b95750805b601f850160051c820191505b818110156140d8578281556001016140c5565b5050505b505050565b815167ffffffffffffffff8111156140fb576140fb6138a6565b61410f816141098454613fa6565b84614090565b602080601f831160018114614144576000841561412c5750858301515b600019600386901b1c1916600185901b1785556140d8565b600085815260208120601f198616915b8281101561417357888601518255948401946001909101908401614154565b50858210156141915787850151600019600388901b60f8161c191681555b5050505050600190811b01905550565b60208152600061343c6020830184613814565b60208082526014908201527310db185a5b48191bd95cc81b9bdd08195e1a5cdd60621b604082015260600190565b60208082526027908201527f4f6e6c7920636c61696d616e742063616e2061636365737320656e63727970746040820152666564206461746160c81b606082015260800190565b6020808252601f908201527f5072656d69756d20616d6f756e74206d75737420626520706f73697469766500604082015260600190565b8181038181111561343f5761343f61404e565b6054811061429157634e487b7160e01b600052602160045260246000fd5b9052565b8481526001600160a01b03841660208201526080604082018190526000906142bf90830185613814565b9050611ae46060830184614273565b6000602082840312156142e057600080fd5b5051919050565b828152604081016142fb6020830184614273565b939250505056fe9e7b61f58c47dc699ac88507c4f5bb9f121c03808c5676a8078fe583e4649700a26469706673582212208b13429d0f42322e55c6e1b3e881da615c33265e1b756064050095270842c83464736f6c63430008180033",
  "linkReferences": {},
  "deployedLinkReferences": {}
}